{
  "_format": "hh-sol-artifact-1",
  "contractName": "WavePortal",
  "sourceName": "contracts/WavePortal.sol",
  "abi": [
    {
      "inputs": [],
      "stateMutability": "nonpayable",
      "type": "constructor"
    },
    {
      "anonymous": false,
      "inputs": [
        {
          "indexed": true,
          "internalType": "address",
          "name": "from",
          "type": "address"
        },
        {
          "indexed": false,
          "internalType": "uint256",
          "name": "timestamp",
          "type": "uint256"
        },
        {
          "indexed": false,
          "internalType": "string",
          "name": "message",
          "type": "string"
        }
      ],
      "name": "NewWave",
      "type": "event"
    },
    {
      "inputs": [],
      "name": "getAllWaves",
      "outputs": [
        {
          "components": [
            {
              "internalType": "address",
              "name": "waver",
              "type": "address"
            },
            {
              "internalType": "string",
              "name": "message",
              "type": "string"
            },
            {
              "internalType": "uint256",
              "name": "timestamp",
              "type": "uint256"
            }
          ],
          "internalType": "struct WavePortal.Wave[]",
          "name": "",
          "type": "tuple[]"
        }
      ],
      "stateMutability": "view",
      "type": "function"
    },
    {
      "inputs": [],
      "name": "getTotalWaves",
      "outputs": [
        {
          "internalType": "uint256",
          "name": "",
          "type": "uint256"
        }
      ],
      "stateMutability": "view",
      "type": "function"
    },
    {
      "inputs": [
        {
          "internalType": "address",
          "name": "account",
          "type": "address"
        }
      ],
      "name": "toString",
      "outputs": [
        {
          "internalType": "string",
          "name": "",
          "type": "string"
        }
      ],
      "stateMutability": "pure",
      "type": "function"
    },
    {
      "inputs": [
        {
          "internalType": "uint256",
          "name": "value",
          "type": "uint256"
        }
      ],
      "name": "toString",
      "outputs": [
        {
          "internalType": "string",
          "name": "",
          "type": "string"
        }
      ],
      "stateMutability": "pure",
      "type": "function"
    },
    {
      "inputs": [
        {
          "internalType": "bytes",
          "name": "data",
          "type": "bytes"
        }
      ],
      "name": "toString",
      "outputs": [
        {
          "internalType": "string",
          "name": "",
          "type": "string"
        }
      ],
      "stateMutability": "pure",
      "type": "function"
    },
    {
      "inputs": [
        {
          "internalType": "bytes32",
          "name": "value",
          "type": "bytes32"
        }
      ],
      "name": "toString",
      "outputs": [
        {
          "internalType": "string",
          "name": "",
          "type": "string"
        }
      ],
      "stateMutability": "pure",
      "type": "function"
    },
    {
      "inputs": [
        {
          "internalType": "string",
          "name": "_message",
          "type": "string"
        },
        {
          "internalType": "string",
          "name": "_to",
          "type": "string"
        }
      ],
      "name": "wave",
      "outputs": [],
      "stateMutability": "nonpayable",
      "type": "function"
    }
  ],
  "bytecode": "0x60806040523480156200001157600080fd5b506200004160405180606001604052806025815260200162001b6c602591396200004760201b620009e91760201c565b620001db565b620000e7816040516024016200005e919062000154565b6040516020818303038152906040527f41304fac000000000000000000000000000000000000000000000000000000007bffffffffffffffffffffffffffffffffffffffffffffffffffffffff19166020820180517bffffffffffffffffffffffffffffffffffffffffffffffffffffffff8381831617835250505050620000ea60201b60201c565b50565b60008151905060006a636f6e736f6c652e6c6f679050602083016000808483855afa5050505050565b6000620001208262000178565b6200012c818562000183565b93506200013e81856020860162000194565b6200014981620001ca565b840191505092915050565b6000602082019050818103600083015262000170818462000113565b905092915050565b600081519050919050565b600082825260208201905092915050565b60005b83811015620001b457808201518184015260208101905062000197565b83811115620001c4576000848401525b50505050565b6000601f19601f8301169050919050565b61198180620001eb6000396000f3fe608060405234801561001057600080fd5b506004361061007d5760003560e01c806371aad10d1161005b57806371aad10d146100fe5780639a2cdc081461012e578063b11a19e81461014c578063bd43a9081461017c5761007d565b8063518729591461008257806356ca623e1461009e5780636900a3ae146100ce575b600080fd5b61009c600480360381019061009791906110f0565b61019a565b005b6100b860048036038101906100b3919061105d565b610338565b6040516100c5919061140c565b60405180910390f35b6100e860048036038101906100e3919061115c565b610369565b6040516100f5919061140c565b60405180910390f35b610118600480360381019061011391906110af565b61039a565b604051610125919061140c565b60405180910390f35b6101366107ea565b60405161014391906114b8565b60405180910390f35b61016660048036038101906101619190611086565b610835565b604051610173919061140c565b60405180910390f35b610184610866565b60405161019191906113ea565b60405180910390f35b60016000808282546101ac91906115fb565b925050819055506101f46040518060400160405280601c81526020017f257320776176656420772f206d65737361676520257320746f20257300000000815250338484610a82565b60016101ff82610b24565b60405161020c91906113b8565b908152602001604051809103902060405180606001604052803373ffffffffffffffffffffffffffffffffffffffff16815260200184815260200142815250908060018154018082558091505060019003906000526020600020906003020160009091909190915060008201518160000160006101000a81548173ffffffffffffffffffffffffffffffffffffffff021916908373ffffffffffffffffffffffffffffffffffffffff16021790555060208201518160010190805190602001906102d7929190610eab565b506040820151816002015550503373ffffffffffffffffffffffffffffffffffffffff167f5f7e16dc676677766a70e9c5628aa6c54ddb8b6e5188e2ae1e1f17f1ffbea716428460405161032c9291906114d3565b60405180910390a25050565b60606103628260405160200161034e9190611382565b60405160208183030381529060405261039a565b9050919050565b60606103938260405160200161037f91906113cf565b60405160208183030381529060405261039a565b9050919050565b606060006040518060400160405280601681526020017f303132333435363738396162636465664142434445460000000000000000000081525090506000600284516103e69190611688565b60026103f291906115fb565b67ffffffffffffffff811115610431577f4e487b7100000000000000000000000000000000000000000000000000000000600052604160045260246000fd5b6040519080825280601f01601f1916602001820160405280156104635781602001600182028036833780820191505090505b5090507f3000000000000000000000000000000000000000000000000000000000000000816000815181106104c1577f4e487b7100000000000000000000000000000000000000000000000000000000600052603260045260246000fd5b60200101907effffffffffffffffffffffffffffffffffffffffffffffffffffffffffffff1916908160001a9053507f78000000000000000000000000000000000000000000000000000000000000008160018151811061054b577f4e487b7100000000000000000000000000000000000000000000000000000000600052603260045260246000fd5b60200101907effffffffffffffffffffffffffffffffffffffffffffffffffffffffffffff1916908160001a90535060005b84518110156107df578260048683815181106105c2577f4e487b7100000000000000000000000000000000000000000000000000000000600052603260045260246000fd5b602001015160f81c60f81b7effffffffffffffffffffffffffffffffffffffffffffffffffffffffffffff1916901c60f81c60ff168151811061062e577f4e487b7100000000000000000000000000000000000000000000000000000000600052603260045260246000fd5b602001015160f81c60f81b826002836106479190611688565b600261065391906115fb565b8151811061068a577f4e487b7100000000000000000000000000000000000000000000000000000000600052603260045260246000fd5b60200101907effffffffffffffffffffffffffffffffffffffffffffffffffffffffffffff1916908160001a90535082600f60f81b8683815181106106f8577f4e487b7100000000000000000000000000000000000000000000000000000000600052603260045260246000fd5b602001015160f81c60f81b1660f81c60ff1681518110610741577f4e487b7100000000000000000000000000000000000000000000000000000000600052603260045260246000fd5b602001015160f81c60f81b8260028361075a9190611688565b600361076691906115fb565b8151811061079d577f4e487b7100000000000000000000000000000000000000000000000000000000600052603260045260246000fd5b60200101907effffffffffffffffffffffffffffffffffffffffffffffffffffffffffffff1916908160001a90535080806107d7906117da565b91505061057d565b508092505050919050565b600061082d6040518060400160405280601781526020017f5765206861766520256420746f74616c20776176657321000000000000000000815250600054610de6565b600054905090565b606061085f8260405160200161084b919061139d565b60405160208183030381529060405261039a565b9050919050565b60606000600161087d61087833610338565b610b24565b60405161088a91906113b8565b9081526020016040518091039020805480602002602001604051908101604052809291908181526020016000905b828210156109dc57838290600052602060002090600302016040518060600160405290816000820160009054906101000a900473ffffffffffffffffffffffffffffffffffffffff1673ffffffffffffffffffffffffffffffffffffffff1673ffffffffffffffffffffffffffffffffffffffff16815260200160018201805461094190611777565b80601f016020809104026020016040519081016040528092919081815260200182805461096d90611777565b80156109ba5780601f1061098f576101008083540402835291602001916109ba565b820191906000526020600020905b81548152906001019060200180831161099d57829003601f168201915b50505050508152602001600282015481525050815260200190600101906108b8565b5050505090508091505090565b610a7f816040516024016109fd919061140c565b6040516020818303038152906040527f41304fac000000000000000000000000000000000000000000000000000000007bffffffffffffffffffffffffffffffffffffffffffffffffffffffff19166020820180517bffffffffffffffffffffffffffffffffffffffffffffffffffffffff8381831617835250505050610e82565b50565b610b1e84848484604051602401610a9c949392919061142e565b6040516020818303038152906040527f245986f2000000000000000000000000000000000000000000000000000000007bffffffffffffffffffffffffffffffffffffffffffffffffffffffff19166020820180517bffffffffffffffffffffffffffffffffffffffffffffffffffffffff8381831617835250505050610e82565b50505050565b606060008290506000815167ffffffffffffffff811115610b6e577f4e487b7100000000000000000000000000000000000000000000000000000000600052604160045260246000fd5b6040519080825280601f01601f191660200182016040528015610ba05781602001600182028036833780820191505090505b50905060005b8251811015610ddb576041838281518110610bea577f4e487b7100000000000000000000000000000000000000000000000000000000600052603260045260246000fd5b602001015160f81c60f81b60f81c60ff1610158015610c535750605a838281518110610c3f577f4e487b7100000000000000000000000000000000000000000000000000000000600052603260045260246000fd5b602001015160f81c60f81b60f81c60ff1611155b15610d1b576020838281518110610c93577f4e487b7100000000000000000000000000000000000000000000000000000000600052603260045260246000fd5b602001015160f81c60f81b60f81c610cab9190611651565b60f81b828281518110610ce7577f4e487b7100000000000000000000000000000000000000000000000000000000600052603260045260246000fd5b60200101907effffffffffffffffffffffffffffffffffffffffffffffffffffffffffffff1916908160001a905350610dc8565b828181518110610d54577f4e487b7100000000000000000000000000000000000000000000000000000000600052603260045260246000fd5b602001015160f81c60f81b828281518110610d98577f4e487b7100000000000000000000000000000000000000000000000000000000600052603260045260246000fd5b60200101907effffffffffffffffffffffffffffffffffffffffffffffffffffffffffffff1916908160001a9053505b8080610dd3906117da565b915050610ba6565b508092505050919050565b610e7e8282604051602401610dfc929190611488565b6040516020818303038152906040527fb60e72cc000000000000000000000000000000000000000000000000000000007bffffffffffffffffffffffffffffffffffffffffffffffffffffffff19166020820180517bffffffffffffffffffffffffffffffffffffffffffffffffffffffff8381831617835250505050610e82565b5050565b60008151905060006a636f6e736f6c652e6c6f679050602083016000808483855afa5050505050565b828054610eb790611777565b90600052602060002090601f016020900481019282610ed95760008555610f20565b82601f10610ef257805160ff1916838001178555610f20565b82800160010185558215610f20579182015b82811115610f1f578251825591602001919060010190610f04565b5b509050610f2d9190610f31565b5090565b5b80821115610f4a576000816000905550600101610f32565b5090565b6000610f61610f5c84611528565b611503565b905082815260208101848484011115610f7957600080fd5b610f84848285611735565b509392505050565b6000610f9f610f9a84611559565b611503565b905082815260208101848484011115610fb757600080fd5b610fc2848285611735565b509392505050565b600081359050610fd981611906565b92915050565b600081359050610fee8161191d565b92915050565b600082601f83011261100557600080fd5b8135611015848260208601610f4e565b91505092915050565b600082601f83011261102f57600080fd5b813561103f848260208601610f8c565b91505092915050565b60008135905061105781611934565b92915050565b60006020828403121561106f57600080fd5b600061107d84828501610fca565b91505092915050565b60006020828403121561109857600080fd5b60006110a684828501610fdf565b91505092915050565b6000602082840312156110c157600080fd5b600082013567ffffffffffffffff8111156110db57600080fd5b6110e784828501610ff4565b91505092915050565b6000806040838503121561110357600080fd5b600083013567ffffffffffffffff81111561111d57600080fd5b6111298582860161101e565b925050602083013567ffffffffffffffff81111561114657600080fd5b6111528582860161101e565b9150509250929050565b60006020828403121561116e57600080fd5b600061117c84828501611048565b91505092915050565b600061119183836112fd565b905092915050565b6111a2816116e2565b82525050565b6111b1816116e2565b82525050565b6111c86111c3826116e2565b611823565b82525050565b60006111d98261159a565b6111e381856115bd565b9350836020820285016111f58561158a565b8060005b8581101561123157848403895281516112128582611185565b945061121d836115b0565b925060208a019950506001810190506111f9565b50829750879550505050505092915050565b61125461124f826116f4565b611835565b82525050565b6000611265826115a5565b61126f81856115ce565b935061127f818560208601611744565b611288816118e8565b840191505092915050565b600061129e826115a5565b6112a881856115df565b93506112b8818560208601611744565b6112c1816118e8565b840191505092915050565b60006112d7826115a5565b6112e181856115f0565b93506112f1818560208601611744565b80840191505092915050565b60006060830160008301516113156000860182611199565b506020830151848203602086015261132d828261125a565b9150506040830151611342604086018261134d565b508091505092915050565b6113568161171e565b82525050565b6113658161171e565b82525050565b61137c6113778261171e565b611851565b82525050565b600061138e82846111b7565b60148201915081905092915050565b60006113a98284611243565b60208201915081905092915050565b60006113c482846112cc565b915081905092915050565b60006113db828461136b565b60208201915081905092915050565b6000602082019050818103600083015261140481846111ce565b905092915050565b600060208201905081810360008301526114268184611293565b905092915050565b600060808201905081810360008301526114488187611293565b905061145760208301866111a8565b81810360408301526114698185611293565b9050818103606083015261147d8184611293565b905095945050505050565b600060408201905081810360008301526114a28185611293565b90506114b1602083018461135c565b9392505050565b60006020820190506114cd600083018461135c565b92915050565b60006040820190506114e8600083018561135c565b81810360208301526114fa8184611293565b90509392505050565b600061150d61151e565b905061151982826117a9565b919050565b6000604051905090565b600067ffffffffffffffff821115611543576115426118b9565b5b61154c826118e8565b9050602081019050919050565b600067ffffffffffffffff821115611574576115736118b9565b5b61157d826118e8565b9050602081019050919050565b6000819050602082019050919050565b600081519050919050565b600081519050919050565b6000602082019050919050565b600082825260208201905092915050565b600082825260208201905092915050565b600082825260208201905092915050565b600081905092915050565b60006116068261171e565b91506116118361171e565b9250827fffffffffffffffffffffffffffffffffffffffffffffffffffffffffffffffff038211156116465761164561185b565b5b828201905092915050565b600061165c82611728565b915061166783611728565b92508260ff0382111561167d5761167c61185b565b5b828201905092915050565b60006116938261171e565b915061169e8361171e565b9250817fffffffffffffffffffffffffffffffffffffffffffffffffffffffffffffffff04831182151516156116d7576116d661185b565b5b828202905092915050565b60006116ed826116fe565b9050919050565b6000819050919050565b600073ffffffffffffffffffffffffffffffffffffffff82169050919050565b6000819050919050565b600060ff82169050919050565b82818337600083830152505050565b60005b83811015611762578082015181840152602081019050611747565b83811115611771576000848401525b50505050565b6000600282049050600182168061178f57607f821691505b602082108114156117a3576117a261188a565b5b50919050565b6117b2826118e8565b810181811067ffffffffffffffff821117156117d1576117d06118b9565b5b80604052505050565b60006117e58261171e565b91507fffffffffffffffffffffffffffffffffffffffffffffffffffffffffffffffff8214156118185761181761185b565b5b600182019050919050565b600061182e8261183f565b9050919050565b6000819050919050565b600061184a826118f9565b9050919050565b6000819050919050565b7f4e487b7100000000000000000000000000000000000000000000000000000000600052601160045260246000fd5b7f4e487b7100000000000000000000000000000000000000000000000000000000600052602260045260246000fd5b7f4e487b7100000000000000000000000000000000000000000000000000000000600052604160045260246000fd5b6000601f19601f8301169050919050565b60008160601b9050919050565b61190f816116e2565b811461191a57600080fd5b50565b611926816116f4565b811461193157600080fd5b50565b61193d8161171e565b811461194857600080fd5b5056fea26469706673582212202c0a3376bc0b58ca6489dda6825af24414f258c8824ba5ac9ba89bdc90e068e564736f6c63430008040033596f20796f2c204920616d206120636f6e747261637420616e64204920616d20736d617274",
  "linkReferences": {},
  "deployedLinkReferences": {}
}