{
  "_format": "hh-sol-artifact-1",
  "contractName": "WavePortal",
  "sourceName": "contracts/WavePortal.sol",
  "abi": [
    {
      "inputs": [
        {
          "internalType": "address",
          "name": "_stakingToken",
          "type": "address"
        },
        {
          "internalType": "address",
          "name": "_rewardToken",
          "type": "address"
        },
        {
          "internalType": "address",
          "name": "_houseNFT",
          "type": "address"
        },
        {
          "internalType": "address",
          "name": "_rentalNFT",
          "type": "address"
        }
      ],
      "stateMutability": "payable",
      "type": "constructor"
    },
    {
      "anonymous": false,
      "inputs": [
        {
          "indexed": true,
          "internalType": "address",
          "name": "from",
          "type": "address"
        },
        {
          "indexed": false,
          "internalType": "uint256",
          "name": "timestamp",
          "type": "uint256"
        },
        {
          "indexed": false,
          "internalType": "string",
          "name": "message",
          "type": "string"
        }
      ],
      "name": "NewWave",
      "type": "event"
    },
    {
      "inputs": [
        {
          "internalType": "uint256",
          "name": "_amount",
          "type": "uint256"
        }
      ],
      "name": "addRewardAmount",
      "outputs": [],
      "stateMutability": "nonpayable",
      "type": "function"
    },
    {
      "inputs": [
        {
          "internalType": "uint256",
          "name": "_amount",
          "type": "uint256"
        },
        {
          "internalType": "address",
          "name": "whoPaid",
          "type": "address"
        },
        {
          "internalType": "uint256",
          "name": "id",
          "type": "uint256"
        }
      ],
      "name": "agree",
      "outputs": [],
      "stateMutability": "nonpayable",
      "type": "function"
    },
    {
      "inputs": [
        {
          "internalType": "address",
          "name": "player",
          "type": "address"
        },
        {
          "internalType": "string",
          "name": "tokenURI",
          "type": "string"
        },
        {
          "internalType": "uint256",
          "name": "newItemId",
          "type": "uint256"
        }
      ],
      "name": "awardItem",
      "outputs": [
        {
          "internalType": "uint256",
          "name": "",
          "type": "uint256"
        }
      ],
      "stateMutability": "nonpayable",
      "type": "function"
    },
    {
      "inputs": [
        {
          "internalType": "address",
          "name": "",
          "type": "address"
        }
      ],
      "name": "balanceOf",
      "outputs": [
        {
          "internalType": "uint256",
          "name": "",
          "type": "uint256"
        }
      ],
      "stateMutability": "view",
      "type": "function"
    },
    {
      "inputs": [],
      "name": "duration",
      "outputs": [
        {
          "internalType": "uint256",
          "name": "",
          "type": "uint256"
        }
      ],
      "stateMutability": "view",
      "type": "function"
    },
    {
      "inputs": [
        {
          "internalType": "address",
          "name": "_account",
          "type": "address"
        }
      ],
      "name": "earned",
      "outputs": [
        {
          "internalType": "uint256",
          "name": "",
          "type": "uint256"
        }
      ],
      "stateMutability": "view",
      "type": "function"
    },
    {
      "inputs": [],
      "name": "finishAt",
      "outputs": [
        {
          "internalType": "uint256",
          "name": "",
          "type": "uint256"
        }
      ],
      "stateMutability": "view",
      "type": "function"
    },
    {
      "inputs": [],
      "name": "getAccountDetails",
      "outputs": [
        {
          "internalType": "uint256",
          "name": "",
          "type": "uint256"
        },
        {
          "internalType": "uint256",
          "name": "",
          "type": "uint256"
        },
        {
          "internalType": "uint256",
          "name": "",
          "type": "uint256"
        },
        {
          "internalType": "uint256",
          "name": "",
          "type": "uint256"
        },
        {
          "internalType": "uint256",
          "name": "",
          "type": "uint256"
        },
        {
          "internalType": "uint256",
          "name": "",
          "type": "uint256"
        }
      ],
      "stateMutability": "view",
      "type": "function"
    },
    {
      "inputs": [],
      "name": "getAllWaves",
      "outputs": [
        {
          "components": [
            {
              "internalType": "address",
              "name": "waver",
              "type": "address"
            },
            {
              "internalType": "string",
              "name": "message",
              "type": "string"
            },
            {
              "internalType": "uint256",
              "name": "timestamp",
              "type": "uint256"
            }
          ],
          "internalType": "struct WavePortal.Wave[]",
          "name": "",
          "type": "tuple[]"
        }
      ],
      "stateMutability": "view",
      "type": "function"
    },
    {
      "inputs": [
        {
          "internalType": "uint256",
          "name": "id",
          "type": "uint256"
        }
      ],
      "name": "getAllWhoPaid",
      "outputs": [
        {
          "components": [
            {
              "internalType": "address",
              "name": "tenant",
              "type": "address"
            },
            {
              "internalType": "uint256",
              "name": "amount",
              "type": "uint256"
            },
            {
              "internalType": "uint256",
              "name": "timestamp",
              "type": "uint256"
            }
          ],
          "internalType": "struct WavePortal.WhoPaid[]",
          "name": "",
          "type": "tuple[]"
        }
      ],
      "stateMutability": "view",
      "type": "function"
    },
    {
      "inputs": [],
      "name": "getReward",
      "outputs": [],
      "stateMutability": "nonpayable",
      "type": "function"
    },
    {
      "inputs": [],
      "name": "getTotalWaves",
      "outputs": [
        {
          "internalType": "uint256",
          "name": "",
          "type": "uint256"
        }
      ],
      "stateMutability": "view",
      "type": "function"
    },
    {
      "inputs": [],
      "name": "houseNFT",
      "outputs": [
        {
          "internalType": "contract House",
          "name": "",
          "type": "address"
        }
      ],
      "stateMutability": "view",
      "type": "function"
    },
    {
      "inputs": [],
      "name": "lastTimeRewardApplicable",
      "outputs": [
        {
          "internalType": "uint256",
          "name": "",
          "type": "uint256"
        }
      ],
      "stateMutability": "view",
      "type": "function"
    },
    {
      "inputs": [
        {
          "internalType": "address",
          "name": "",
          "type": "address"
        }
      ],
      "name": "lastWavedAt",
      "outputs": [
        {
          "internalType": "uint256",
          "name": "",
          "type": "uint256"
        }
      ],
      "stateMutability": "view",
      "type": "function"
    },
    {
      "inputs": [
        {
          "internalType": "uint256",
          "name": "_amount",
          "type": "uint256"
        }
      ],
      "name": "notifyRewardAmount",
      "outputs": [],
      "stateMutability": "nonpayable",
      "type": "function"
    },
    {
      "inputs": [],
      "name": "owner",
      "outputs": [
        {
          "internalType": "address",
          "name": "",
          "type": "address"
        }
      ],
      "stateMutability": "view",
      "type": "function"
    },
    {
      "inputs": [
        {
          "internalType": "uint256",
          "name": "_amount",
          "type": "uint256"
        },
        {
          "internalType": "uint256",
          "name": "id",
          "type": "uint256"
        }
      ],
      "name": "paid",
      "outputs": [],
      "stateMutability": "nonpayable",
      "type": "function"
    },
    {
      "inputs": [],
      "name": "rentalNFT",
      "outputs": [
        {
          "internalType": "contract Rental",
          "name": "",
          "type": "address"
        }
      ],
      "stateMutability": "view",
      "type": "function"
    },
    {
      "inputs": [],
      "name": "rewardPerToken",
      "outputs": [
        {
          "internalType": "uint256",
          "name": "",
          "type": "uint256"
        }
      ],
      "stateMutability": "view",
      "type": "function"
    },
    {
      "inputs": [],
      "name": "rewardPerTokenStored",
      "outputs": [
        {
          "internalType": "uint256",
          "name": "",
          "type": "uint256"
        }
      ],
      "stateMutability": "view",
      "type": "function"
    },
    {
      "inputs": [],
      "name": "rewardRate",
      "outputs": [
        {
          "internalType": "uint256",
          "name": "",
          "type": "uint256"
        }
      ],
      "stateMutability": "view",
      "type": "function"
    },
    {
      "inputs": [
        {
          "internalType": "address",
          "name": "",
          "type": "address"
        }
      ],
      "name": "rewards",
      "outputs": [
        {
          "internalType": "uint256",
          "name": "",
          "type": "uint256"
        }
      ],
      "stateMutability": "view",
      "type": "function"
    },
    {
      "inputs": [],
      "name": "rewardsToken",
      "outputs": [
        {
          "internalType": "contract IERC20",
          "name": "",
          "type": "address"
        }
      ],
      "stateMutability": "view",
      "type": "function"
    },
    {
      "inputs": [
        {
          "internalType": "uint256",
          "name": "_duration",
          "type": "uint256"
        }
      ],
      "name": "setRewardsDuration",
      "outputs": [],
      "stateMutability": "nonpayable",
      "type": "function"
    },
    {
      "inputs": [
        {
          "internalType": "uint256",
          "name": "_amount",
          "type": "uint256"
        }
      ],
      "name": "stake",
      "outputs": [],
      "stateMutability": "nonpayable",
      "type": "function"
    },
    {
      "inputs": [],
      "name": "stakingToken",
      "outputs": [
        {
          "internalType": "contract IERC20",
          "name": "",
          "type": "address"
        }
      ],
      "stateMutability": "view",
      "type": "function"
    },
    {
      "inputs": [
        {
          "internalType": "address",
          "name": "account",
          "type": "address"
        }
      ],
      "name": "toString",
      "outputs": [
        {
          "internalType": "string",
          "name": "",
          "type": "string"
        }
      ],
      "stateMutability": "pure",
      "type": "function"
    },
    {
      "inputs": [
        {
          "internalType": "uint256",
          "name": "value",
          "type": "uint256"
        }
      ],
      "name": "toString",
      "outputs": [
        {
          "internalType": "string",
          "name": "",
          "type": "string"
        }
      ],
      "stateMutability": "pure",
      "type": "function"
    },
    {
      "inputs": [
        {
          "internalType": "bytes",
          "name": "data",
          "type": "bytes"
        }
      ],
      "name": "toString",
      "outputs": [
        {
          "internalType": "string",
          "name": "",
          "type": "string"
        }
      ],
      "stateMutability": "pure",
      "type": "function"
    },
    {
      "inputs": [
        {
          "internalType": "bytes32",
          "name": "value",
          "type": "bytes32"
        }
      ],
      "name": "toString",
      "outputs": [
        {
          "internalType": "string",
          "name": "",
          "type": "string"
        }
      ],
      "stateMutability": "pure",
      "type": "function"
    },
    {
      "inputs": [],
      "name": "totalSupply",
      "outputs": [
        {
          "internalType": "uint256",
          "name": "",
          "type": "uint256"
        }
      ],
      "stateMutability": "view",
      "type": "function"
    },
    {
      "inputs": [],
      "name": "updatedAt",
      "outputs": [
        {
          "internalType": "uint256",
          "name": "",
          "type": "uint256"
        }
      ],
      "stateMutability": "view",
      "type": "function"
    },
    {
      "inputs": [
        {
          "internalType": "address",
          "name": "",
          "type": "address"
        }
      ],
      "name": "userRewardPerTokenPaid",
      "outputs": [
        {
          "internalType": "uint256",
          "name": "",
          "type": "uint256"
        }
      ],
      "stateMutability": "view",
      "type": "function"
    },
    {
      "inputs": [
        {
          "internalType": "string",
          "name": "_message",
          "type": "string"
        },
        {
          "internalType": "string",
          "name": "_to",
          "type": "string"
        }
      ],
      "name": "wave",
      "outputs": [],
      "stateMutability": "nonpayable",
      "type": "function"
    },
    {
      "inputs": [
        {
          "internalType": "uint256",
          "name": "_amount",
          "type": "uint256"
        }
      ],
      "name": "withdraw",
      "outputs": [],
      "stateMutability": "nonpayable",
      "type": "function"
    }
  ],
  "bytecode": "0x61010060405260405162004d3338038062004d3383398181016040528101906200002a919062000285565b6200005960405180606001604052806035815260200162004cfe60359139620001a260201b62002bed1760201c565b6064444262000069919062000372565b62000075919062000443565b60018190555033600360006101000a81548173ffffffffffffffffffffffffffffffffffffffff021916908373ffffffffffffffffffffffffffffffffffffffff1602179055508373ffffffffffffffffffffffffffffffffffffffff1660808173ffffffffffffffffffffffffffffffffffffffff1660601b815250508273ffffffffffffffffffffffffffffffffffffffff1660a08173ffffffffffffffffffffffffffffffffffffffff1660601b815250508173ffffffffffffffffffffffffffffffffffffffff1660c08173ffffffffffffffffffffffffffffffffffffffff1660601b815250508073ffffffffffffffffffffffffffffffffffffffff1660e08173ffffffffffffffffffffffffffffffffffffffff1660601b815250505050505062000504565b6200024281604051602401620001b9919062000332565b6040516020818303038152906040527f41304fac000000000000000000000000000000000000000000000000000000007bffffffffffffffffffffffffffffffffffffffffffffffffffffffff19166020820180517bffffffffffffffffffffffffffffffffffffffffffffffffffffffff83818316178352505050506200024560201b60201c565b50565b60008151905060006a636f6e736f6c652e6c6f679050602083016000808483855afa5050505050565b6000815190506200027f81620004ea565b92915050565b600080600080608085870312156200029c57600080fd5b6000620002ac878288016200026e565b9450506020620002bf878288016200026e565b9350506040620002d2878288016200026e565b9250506060620002e5878288016200026e565b91505092959194509250565b6000620002fe8262000356565b6200030a818562000361565b93506200031c8185602086016200040d565b6200032781620004d9565b840191505092915050565b600060208201905081810360008301526200034e8184620002f1565b905092915050565b600081519050919050565b600082825260208201905092915050565b60006200037f8262000403565b91506200038c8362000403565b9250827fffffffffffffffffffffffffffffffffffffffffffffffffffffffffffffffff03821115620003c457620003c36200047b565b5b828201905092915050565b6000620003dc82620003e3565b9050919050565b600073ffffffffffffffffffffffffffffffffffffffff82169050919050565b6000819050919050565b60005b838110156200042d57808201518184015260208101905062000410565b838111156200043d576000848401525b50505050565b6000620004508262000403565b91506200045d8362000403565b92508262000470576200046f620004aa565b5b828206905092915050565b7f4e487b7100000000000000000000000000000000000000000000000000000000600052601160045260246000fd5b7f4e487b7100000000000000000000000000000000000000000000000000000000600052601260045260246000fd5b6000601f19601f8301169050919050565b620004f581620003cf565b81146200050157600080fd5b50565b60805160601c60a05160601c60c05160601c60e05160601c614759620005a560003960008181610b040152818161136a0152612903015260008181610942015281816118970152818161285a0152612b0b015260008181611028015281816112b7015281816121ed015281816127680152612bc5015260008181610d5a01528181611d5a01528181611edc015281816123df01526126bf01526147596000f3fe608060405234801561001057600080fd5b506004361061021b5760003560e01c80637519ab5011610125578063a694fc3a116100ad578063cc1a378f1161007c578063cc1a378f14610659578063cd3daf9d14610675578063cd3dd21a14610693578063d1af0c7d146106c3578063df136d65146106e15761021b565b8063a694fc3a146105cc578063b11a19e8146105e8578063bd43a90814610618578063c39869c1146106365761021b565b80638d42394d116100f45780638d42394d146105285780638da5cb5b146105445780639a2cdc08146105625780639b7ccf4c14610580578063a42a46631461059c5761021b565b80637519ab501461049e5780637b0a47ee146104bc57806380faa57d146104da5780638b876347146104f85761021b565b806351872959116101a857806367d3b4881161017757806367d3b488146103d25780636900a3ae146103f057806370a082311461042057806371aad10d1461045057806372f702f3146104805761021b565b8063518729591461033857806356ca623e146103545780636604de0314610384578063673578f4146103b45761021b565b806318160ddd116101ef57806318160ddd146102ba5780632e1a7d4d146102d85780633c6b16ab146102f45780633d18b9121461031057806349c2beae1461031a5761021b565b80628cc262146102205780630700037d146102505780630eebadae146102805780630fb5a6b41461029c575b600080fd5b61023a60048036038101906102359190613359565b6106ff565b6040516102479190613e62565b60405180910390f35b61026a60048036038101906102659190613359565b610801565b6040516102779190613e62565b60405180910390f35b61029a60048036038101906102959190613563565b610819565b005b6102a4610bb6565b6040516102b19190613e62565b60405180910390f35b6102c2610bbc565b6040516102cf9190613e62565b60405180910390f35b6102f260048036038101906102ed9190613511565b610bc2565b005b61030e60048036038101906103099190613511565b610e0a565b005b61031861113f565b005b610322611368565b60405161032f9190613c3d565b60405180910390f35b610352600480360381019061034d91906134a5565b61138c565b005b61036e60048036038101906103699190613359565b611782565b60405161037b9190613c58565b60405180910390f35b61039e60048036038101906103999190613511565b6117b3565b6040516103ab9190613be5565b60405180910390f35b6103bc611895565b6040516103c99190613c07565b60405180910390f35b6103da6118b9565b6040516103e79190613e62565b60405180910390f35b61040a60048036038101906104059190613511565b6118bf565b6040516104179190613c58565b60405180910390f35b61043a60048036038101906104359190613359565b6118f0565b6040516104479190613e62565b60405180910390f35b61046a60048036038101906104659190613464565b611908565b6040516104779190613c58565b60405180910390f35b610488611d58565b6040516104959190613c22565b60405180910390f35b6104a6611d7c565b6040516104b39190613e62565b60405180910390f35b6104c4611d82565b6040516104d19190613e62565b60405180910390f35b6104e2611d88565b6040516104ef9190613e62565b60405180910390f35b610512600480360381019061050d9190613359565b611d9b565b60405161051f9190613e62565b60405180910390f35b610542600480360381019061053d91906135b2565b611db3565b005b61054c6120c8565b6040516105599190613ace565b60405180910390f35b61056a6120ee565b6040516105779190613e62565b60405180910390f35b61059a60048036038101906105959190613511565b61211c565b005b6105b660048036038101906105b19190613359565b61229e565b6040516105c39190613e62565b60405180910390f35b6105e660048036038101906105e19190613511565b6122b6565b005b61060260048036038101906105fd919061343b565b612500565b60405161060f9190613c58565b60405180910390f35b610620612531565b60405161062d9190613bc3565b60405180910390f35b61063e6126b4565b60405161065096959493929190613ead565b60405180910390f35b610673600480360381019061066e9190613511565b6129be565b005b61067d612a9c565b60405161068a9190613e62565b60405180910390f35b6106ad60048036038101906106a891906133ab565b612b07565b6040516106ba9190613e62565b60405180910390f35b6106cb612bc3565b6040516106d89190613c22565b60405180910390f35b6106e9612be7565b6040516106f69190613e62565b60405180910390f35b6000600a60008373ffffffffffffffffffffffffffffffffffffffff1673ffffffffffffffffffffffffffffffffffffffff16815260200190815260200160002054670de0b6b3a7640000600960008573ffffffffffffffffffffffffffffffffffffffff1673ffffffffffffffffffffffffffffffffffffffff16815260200190815260200160002054610792612a9c565b61079c9190614162565b600c60008673ffffffffffffffffffffffffffffffffffffffff1673ffffffffffffffffffffffffffffffffffffffff168152602001908152602001600020546107e69190614108565b6107f091906140d7565b6107fa919061404a565b9050919050565b600a6020528060005260406000206000915090505481565b33610822612a9c565b600881905550610830611d88565b600681905550600073ffffffffffffffffffffffffffffffffffffffff168173ffffffffffffffffffffffffffffffffffffffff16146108fd57610873816106ff565b600a60008373ffffffffffffffffffffffffffffffffffffffff1673ffffffffffffffffffffffffffffffffffffffff16815260200190815260200160002081905550600854600960008373ffffffffffffffffffffffffffffffffffffffff1673ffffffffffffffffffffffffffffffffffffffff168152602001908152602001600020819055505b60008411610940576040517f08c379a000000000000000000000000000000000000000000000000000000000815260040161093790613e22565b60405180910390fd5b7f000000000000000000000000000000000000000000000000000000000000000073ffffffffffffffffffffffffffffffffffffffff16636352211e836040518263ffffffff1660e01b81526004016109999190613e62565b60206040518083038186803b1580156109b157600080fd5b505afa1580156109c5573d6000803e3d6000fd5b505050506040513d601f19601f820116820180604052508101906109e99190613382565b73ffffffffffffffffffffffffffffffffffffffff163373ffffffffffffffffffffffffffffffffffffffff1614610a56576040517f08c379a0000000000000000000000000000000000000000000000000000000008152600401610a4d90613de2565b60405180910390fd5b83600c60008573ffffffffffffffffffffffffffffffffffffffff1673ffffffffffffffffffffffffffffffffffffffff1681526020019081526020016000206000828254610aa59190614162565b9250508190555083600c60003373ffffffffffffffffffffffffffffffffffffffff1673ffffffffffffffffffffffffffffffffffffffff1681526020019081526020016000206000828254610afb919061404a565b925050819055507f000000000000000000000000000000000000000000000000000000000000000073ffffffffffffffffffffffffffffffffffffffff1663cd3dd21a84846040518363ffffffff1660e01b8152600401610b5d929190613b5e565b602060405180830381600087803b158015610b7757600080fd5b505af1158015610b8b573d6000803e3d6000fd5b505050506040513d601f19601f82011682018060405250810190610baf919061353a565b5050505050565b60045481565b600b5481565b33610bcb612a9c565b600881905550610bd9611d88565b600681905550600073ffffffffffffffffffffffffffffffffffffffff168173ffffffffffffffffffffffffffffffffffffffff1614610ca657610c1c816106ff565b600a60008373ffffffffffffffffffffffffffffffffffffffff1673ffffffffffffffffffffffffffffffffffffffff16815260200190815260200160002081905550600854600960008373ffffffffffffffffffffffffffffffffffffffff1673ffffffffffffffffffffffffffffffffffffffff168152602001908152602001600020819055505b60008211610ce9576040517f08c379a0000000000000000000000000000000000000000000000000000000008152600401610ce090613e22565b60405180910390fd5b81600c60003373ffffffffffffffffffffffffffffffffffffffff1673ffffffffffffffffffffffffffffffffffffffff1681526020019081526020016000206000828254610d389190614162565b9250508190555081600b6000828254610d519190614162565b925050819055507f000000000000000000000000000000000000000000000000000000000000000073ffffffffffffffffffffffffffffffffffffffff1663a9059cbb33846040518363ffffffff1660e01b8152600401610db3929190613b9a565b602060405180830381600087803b158015610dcd57600080fd5b505af1158015610de1573d6000803e3d6000fd5b505050506040513d601f19601f82011682018060405250810190610e059190613412565b505050565b600360009054906101000a900473ffffffffffffffffffffffffffffffffffffffff1673ffffffffffffffffffffffffffffffffffffffff163373ffffffffffffffffffffffffffffffffffffffff1614610e9a576040517f08c379a0000000000000000000000000000000000000000000000000000000008152600401610e9190613dc2565b60405180910390fd5b6000610ea4612a9c565b600881905550610eb2611d88565b600681905550600073ffffffffffffffffffffffffffffffffffffffff168173ffffffffffffffffffffffffffffffffffffffff1614610f7f57610ef5816106ff565b600a60008373ffffffffffffffffffffffffffffffffffffffff1673ffffffffffffffffffffffffffffffffffffffff16815260200190815260200160002081905550600854600960008373ffffffffffffffffffffffffffffffffffffffff1673ffffffffffffffffffffffffffffffffffffffff168152602001908152602001600020819055505b6005544210610fa15760045482610f9691906140d7565b600781905550610fe1565b600060075442600554610fb49190614162565b610fbe9190614108565b90506004548184610fcf919061404a565b610fd991906140d7565b600781905550505b600060075411611026576040517f08c379a000000000000000000000000000000000000000000000000000000000815260040161101d90613e42565b60405180910390fd5b7f000000000000000000000000000000000000000000000000000000000000000073ffffffffffffffffffffffffffffffffffffffff166370a08231306040518263ffffffff1660e01b815260040161107f9190613ace565b60206040518083038186803b15801561109757600080fd5b505afa1580156110ab573d6000803e3d6000fd5b505050506040513d601f19601f820116820180604052508101906110cf919061353a565b6004546007546110df9190614108565b1115611120576040517f08c379a000000000000000000000000000000000000000000000000000000000815260040161111790613e02565b60405180910390fd5b6004544261112e919061404a565b600581905550426006819055505050565b33611148612a9c565b600881905550611156611d88565b600681905550600073ffffffffffffffffffffffffffffffffffffffff168173ffffffffffffffffffffffffffffffffffffffff161461122357611199816106ff565b600a60008373ffffffffffffffffffffffffffffffffffffffff1673ffffffffffffffffffffffffffffffffffffffff16815260200190815260200160002081905550600854600960008373ffffffffffffffffffffffffffffffffffffffff1673ffffffffffffffffffffffffffffffffffffffff168152602001908152602001600020819055505b6000600a60003373ffffffffffffffffffffffffffffffffffffffff1673ffffffffffffffffffffffffffffffffffffffff1681526020019081526020016000205490506000811115611364576000600a60003373ffffffffffffffffffffffffffffffffffffffff1673ffffffffffffffffffffffffffffffffffffffff168152602001908152602001600020819055507f000000000000000000000000000000000000000000000000000000000000000073ffffffffffffffffffffffffffffffffffffffff1663a9059cbb33836040518363ffffffff1660e01b8152600401611310929190613b9a565b602060405180830381600087803b15801561132a57600080fd5b505af115801561133e573d6000803e3d6000fd5b505050506040513d601f19601f820116820180604052508101906113629190613412565b505b5050565b7f000000000000000000000000000000000000000000000000000000000000000081565b4261012c600d60003373ffffffffffffffffffffffffffffffffffffffff1673ffffffffffffffffffffffffffffffffffffffff168152602001908152602001600020546113da919061404a565b1061141a576040517f08c379a000000000000000000000000000000000000000000000000000000000815260040161141190613d82565b60405180910390fd5b42600d60003373ffffffffffffffffffffffffffffffffffffffff1673ffffffffffffffffffffffffffffffffffffffff168152602001908152602001600020819055506001600080828254611470919061404a565b9250508190555061149b6040518060600160405280602c81526020016146af602c9139338484612c86565b600e6114a682612d28565b6040516114b39190613a87565b908152602001604051809103902060405180606001604052803373ffffffffffffffffffffffffffffffffffffffff16815260200184815260200142815250908060018154018082558091505060019003906000526020600020906003020160009091909190915060008201518160000160006101000a81548173ffffffffffffffffffffffffffffffffffffffff021916908373ffffffffffffffffffffffffffffffffffffffff160217905550602082015181600101908051906020019061157e929190613168565b506040820151816002015550503373ffffffffffffffffffffffffffffffffffffffff167f5f7e16dc676677766a70e9c5628aa6c54ddb8b6e5188e2ae1e1f17f1ffbea71642846040516115d3929190613e7d565b60405180910390a2606460015442446115ec919061404a565b6115f6919061404a565b6116009190614387565b60018190555060006509184e72a00090506116506040518060400160405280601881526020017f5b736d61727420636f6e74726163745d62616c616e63653a000000000000000081525047612fea565b60326001541161168d576002816116679190614108565b905061168c6040518060600160405280602881526020016146db602891393383613086565b5b478111156116d0576040517f08c379a00000000000000000000000000000000000000000000000000000000081526004016116c790613d62565b60405180910390fd5b60003373ffffffffffffffffffffffffffffffffffffffff16826040516116f690613a9e565b60006040518083038185875af1925050503d8060008114611733576040519150601f19603f3d011682016040523d82523d6000602084013e611738565b606091505b505090508061177c576040517f08c379a000000000000000000000000000000000000000000000000000000000815260040161177390613da2565b60405180910390fd5b50505050565b60606117ac826040516020016117989190613a51565b604051602081830303815290604052611908565b9050919050565b6060600060026000848152602001908152602001600020805480602002602001604051908101604052809291908181526020016000905b8282101561188657838290600052602060002090600302016040518060600160405290816000820160009054906101000a900473ffffffffffffffffffffffffffffffffffffffff1673ffffffffffffffffffffffffffffffffffffffff1673ffffffffffffffffffffffffffffffffffffffff16815260200160018201548152602001600282015481525050815260200190600101906117ea565b50505050905080915050919050565b7f000000000000000000000000000000000000000000000000000000000000000081565b60055481565b60606118e9826040516020016118d59190613ab3565b604051602081830303815290604052611908565b9050919050565b600c6020528060005260406000206000915090505481565b606060006040518060400160405280601681526020017f303132333435363738396162636465664142434445460000000000000000000081525090506000600284516119549190614108565b6002611960919061404a565b67ffffffffffffffff81111561199f577f4e487b7100000000000000000000000000000000000000000000000000000000600052604160045260246000fd5b6040519080825280601f01601f1916602001820160405280156119d15781602001600182028036833780820191505090505b5090507f300000000000000000000000000000000000000000000000000000000000000081600081518110611a2f577f4e487b7100000000000000000000000000000000000000000000000000000000600052603260045260246000fd5b60200101907effffffffffffffffffffffffffffffffffffffffffffffffffffffffffffff1916908160001a9053507f780000000000000000000000000000000000000000000000000000000000000081600181518110611ab9577f4e487b7100000000000000000000000000000000000000000000000000000000600052603260045260246000fd5b60200101907effffffffffffffffffffffffffffffffffffffffffffffffffffffffffffff1916908160001a90535060005b8451811015611d4d57826004868381518110611b30577f4e487b7100000000000000000000000000000000000000000000000000000000600052603260045260246000fd5b602001015160f81c60f81b7effffffffffffffffffffffffffffffffffffffffffffffffffffffffffffff1916901c60f81c60ff1681518110611b9c577f4e487b7100000000000000000000000000000000000000000000000000000000600052603260045260246000fd5b602001015160f81c60f81b82600283611bb59190614108565b6002611bc1919061404a565b81518110611bf8577f4e487b7100000000000000000000000000000000000000000000000000000000600052603260045260246000fd5b60200101907effffffffffffffffffffffffffffffffffffffffffffffffffffffffffffff1916908160001a90535082600f60f81b868381518110611c66577f4e487b7100000000000000000000000000000000000000000000000000000000600052603260045260246000fd5b602001015160f81c60f81b1660f81c60ff1681518110611caf577f4e487b7100000000000000000000000000000000000000000000000000000000600052603260045260246000fd5b602001015160f81c60f81b82600283611cc89190614108565b6003611cd4919061404a565b81518110611d0b577f4e487b7100000000000000000000000000000000000000000000000000000000600052603260045260246000fd5b60200101907effffffffffffffffffffffffffffffffffffffffffffffffffffffffffffff1916908160001a9053508080611d4590614306565b915050611aeb565b508092505050919050565b7f000000000000000000000000000000000000000000000000000000000000000081565b60065481565b60075481565b6000611d9660055442613125565b905090565b60096020528060005260406000206000915090505481565b33611dbc612a9c565b600881905550611dca611d88565b600681905550600073ffffffffffffffffffffffffffffffffffffffff168173ffffffffffffffffffffffffffffffffffffffff1614611e9757611e0d816106ff565b600a60008373ffffffffffffffffffffffffffffffffffffffff1673ffffffffffffffffffffffffffffffffffffffff16815260200190815260200160002081905550600854600960008373ffffffffffffffffffffffffffffffffffffffff1673ffffffffffffffffffffffffffffffffffffffff168152602001908152602001600020819055505b60008311611eda576040517f08c379a0000000000000000000000000000000000000000000000000000000008152600401611ed190613e22565b60405180910390fd5b7f000000000000000000000000000000000000000000000000000000000000000073ffffffffffffffffffffffffffffffffffffffff166323b872dd3330866040518463ffffffff1660e01b8152600401611f3793929190613ae9565b602060405180830381600087803b158015611f5157600080fd5b505af1158015611f65573d6000803e3d6000fd5b505050506040513d601f19601f82011682018060405250810190611f899190613412565b5082600c60003373ffffffffffffffffffffffffffffffffffffffff1673ffffffffffffffffffffffffffffffffffffffff1681526020019081526020016000206000828254611fd9919061404a565b9250508190555082600b6000828254611ff2919061404a565b925050819055506002600083815260200190815260200160002060405180606001604052803373ffffffffffffffffffffffffffffffffffffffff16815260200185815260200142815250908060018154018082558091505060019003906000526020600020906003020160009091909190915060008201518160000160006101000a81548173ffffffffffffffffffffffffffffffffffffffff021916908373ffffffffffffffffffffffffffffffffffffffff16021790555060208201518160010155604082015181600201555050505050565b600360009054906101000a900473ffffffffffffffffffffffffffffffffffffffff1681565b600061211460405180606001604052806021815260200161470360219139600054612fea565b600054905090565b600360009054906101000a900473ffffffffffffffffffffffffffffffffffffffff1673ffffffffffffffffffffffffffffffffffffffff163373ffffffffffffffffffffffffffffffffffffffff16146121ac576040517f08c379a00000000000000000000000000000000000000000000000000000000081526004016121a390613dc2565b60405180910390fd5b6121eb6040518060400160405280600c81526020017f616464204847546f6b656e3a000000000000000000000000000000000000000081525082612fea565b7f000000000000000000000000000000000000000000000000000000000000000073ffffffffffffffffffffffffffffffffffffffff166323b872dd3330846040518463ffffffff1660e01b815260040161224893929190613ae9565b602060405180830381600087803b15801561226257600080fd5b505af1158015612276573d6000803e3d6000fd5b505050506040513d601f19601f8201168201806040525081019061229a9190613412565b5050565b600d6020528060005260406000206000915090505481565b336122bf612a9c565b6008819055506122cd611d88565b600681905550600073ffffffffffffffffffffffffffffffffffffffff168173ffffffffffffffffffffffffffffffffffffffff161461239a57612310816106ff565b600a60008373ffffffffffffffffffffffffffffffffffffffff1673ffffffffffffffffffffffffffffffffffffffff16815260200190815260200160002081905550600854600960008373ffffffffffffffffffffffffffffffffffffffff1673ffffffffffffffffffffffffffffffffffffffff168152602001908152602001600020819055505b600082116123dd576040517f08c379a00000000000000000000000000000000000000000000000000000000081526004016123d490613e22565b60405180910390fd5b7f000000000000000000000000000000000000000000000000000000000000000073ffffffffffffffffffffffffffffffffffffffff166323b872dd3330856040518463ffffffff1660e01b815260040161243a93929190613ae9565b602060405180830381600087803b15801561245457600080fd5b505af1158015612468573d6000803e3d6000fd5b505050506040513d601f19601f8201168201806040525081019061248c9190613412565b5081600c60003373ffffffffffffffffffffffffffffffffffffffff1673ffffffffffffffffffffffffffffffffffffffff16815260200190815260200160002060008282546124dc919061404a565b9250508190555081600b60008282546124f5919061404a565b925050819055505050565b606061252a826040516020016125169190613a6c565b604051602081830303815290604052611908565b9050919050565b60606000600e61254861254333611782565b612d28565b6040516125559190613a87565b9081526020016040518091039020805480602002602001604051908101604052809291908181526020016000905b828210156126a757838290600052602060002090600302016040518060600160405290816000820160009054906101000a900473ffffffffffffffffffffffffffffffffffffffff1673ffffffffffffffffffffffffffffffffffffffff1673ffffffffffffffffffffffffffffffffffffffff16815260200160018201805461260c906142a3565b80601f0160208091040260200160405190810160405280929190818152602001828054612638906142a3565b80156126855780601f1061265a57610100808354040283529160200191612685565b820191906000526020600020905b81548152906001019060200180831161266857829003601f168201915b5050505050815260200160028201548152505081526020019060010190612583565b5050505090508091505090565b6000806000806000807f000000000000000000000000000000000000000000000000000000000000000073ffffffffffffffffffffffffffffffffffffffff166370a08231336040518263ffffffff1660e01b81526004016127169190613ace565b60206040518083038186803b15801561272e57600080fd5b505afa158015612742573d6000803e3d6000fd5b505050506040513d601f19601f82011682018060405250810190612766919061353a565b7f000000000000000000000000000000000000000000000000000000000000000073ffffffffffffffffffffffffffffffffffffffff166370a08231336040518263ffffffff1660e01b81526004016127bf9190613ace565b60206040518083038186803b1580156127d757600080fd5b505afa1580156127eb573d6000803e3d6000fd5b505050506040513d601f19601f8201168201806040525081019061280f919061353a565b600c60003373ffffffffffffffffffffffffffffffffffffffff1673ffffffffffffffffffffffffffffffffffffffff16815260200190815260200160002054612858336106ff565b7f000000000000000000000000000000000000000000000000000000000000000073ffffffffffffffffffffffffffffffffffffffff166370a08231336040518263ffffffff1660e01b81526004016128b19190613ace565b60206040518083038186803b1580156128c957600080fd5b505afa1580156128dd573d6000803e3d6000fd5b505050506040513d601f19601f82011682018060405250810190612901919061353a565b7f000000000000000000000000000000000000000000000000000000000000000073ffffffffffffffffffffffffffffffffffffffff166370a08231336040518263ffffffff1660e01b815260040161295a9190613ace565b60206040518083038186803b15801561297257600080fd5b505afa158015612986573d6000803e3d6000fd5b505050506040513d601f19601f820116820180604052508101906129aa919061353a565b955095509550955095509550909192939495565b600360009054906101000a900473ffffffffffffffffffffffffffffffffffffffff1673ffffffffffffffffffffffffffffffffffffffff163373ffffffffffffffffffffffffffffffffffffffff1614612a4e576040517f08c379a0000000000000000000000000000000000000000000000000000000008152600401612a4590613dc2565b60405180910390fd5b4260055410612a92576040517f08c379a0000000000000000000000000000000000000000000000000000000008152600401612a8990613d42565b60405180910390fd5b8060048190555050565b600080600b541415612ab2576008549050612b04565b600b54670de0b6b3a7640000600654612ac9611d88565b612ad39190614162565b600754612ae09190614108565b612aea9190614108565b612af491906140d7565b600854612b01919061404a565b90505b90565b60007f000000000000000000000000000000000000000000000000000000000000000073ffffffffffffffffffffffffffffffffffffffff1663cd3dd21a8585856040518463ffffffff1660e01b8152600401612b6693929190613b20565b602060405180830381600087803b158015612b8057600080fd5b505af1158015612b94573d6000803e3d6000fd5b505050506040513d601f19601f82011682018060405250810190612bb8919061353a565b508190509392505050565b7f000000000000000000000000000000000000000000000000000000000000000081565b60085481565b612c8381604051602401612c019190613c58565b6040516020818303038152906040527f41304fac000000000000000000000000000000000000000000000000000000007bffffffffffffffffffffffffffffffffffffffffffffffffffffffff19166020820180517bffffffffffffffffffffffffffffffffffffffffffffffffffffffff838183161783525050505061313f565b50565b612d2284848484604051602401612ca09493929190613c7a565b6040516020818303038152906040527f245986f2000000000000000000000000000000000000000000000000000000007bffffffffffffffffffffffffffffffffffffffffffffffffffffffff19166020820180517bffffffffffffffffffffffffffffffffffffffffffffffffffffffff838183161783525050505061313f565b50505050565b606060008290506000815167ffffffffffffffff811115612d72577f4e487b7100000000000000000000000000000000000000000000000000000000600052604160045260246000fd5b6040519080825280601f01601f191660200182016040528015612da45781602001600182028036833780820191505090505b50905060005b8251811015612fdf576041838281518110612dee577f4e487b7100000000000000000000000000000000000000000000000000000000600052603260045260246000fd5b602001015160f81c60f81b60f81c60ff1610158015612e575750605a838281518110612e43577f4e487b7100000000000000000000000000000000000000000000000000000000600052603260045260246000fd5b602001015160f81c60f81b60f81c60ff1611155b15612f1f576020838281518110612e97577f4e487b7100000000000000000000000000000000000000000000000000000000600052603260045260246000fd5b602001015160f81c60f81b60f81c612eaf91906140a0565b60f81b828281518110612eeb577f4e487b7100000000000000000000000000000000000000000000000000000000600052603260045260246000fd5b60200101907effffffffffffffffffffffffffffffffffffffffffffffffffffffffffffff1916908160001a905350612fcc565b828181518110612f58577f4e487b7100000000000000000000000000000000000000000000000000000000600052603260045260246000fd5b602001015160f81c60f81b828281518110612f9c577f4e487b7100000000000000000000000000000000000000000000000000000000600052603260045260246000fd5b60200101907effffffffffffffffffffffffffffffffffffffffffffffffffffffffffffff1916908160001a9053505b8080612fd790614306565b915050612daa565b508092505050919050565b6130828282604051602401613000929190613d12565b6040516020818303038152906040527fb60e72cc000000000000000000000000000000000000000000000000000000007bffffffffffffffffffffffffffffffffffffffffffffffffffffffff19166020820180517bffffffffffffffffffffffffffffffffffffffffffffffffffffffff838183161783525050505061313f565b5050565b61312083838360405160240161309e93929190613cd4565b6040516020818303038152906040527f0d26b925000000000000000000000000000000000000000000000000000000007bffffffffffffffffffffffffffffffffffffffffffffffffffffffff19166020820180517bffffffffffffffffffffffffffffffffffffffffffffffffffffffff838183161783525050505061313f565b505050565b6000818311156131355781613137565b825b905092915050565b60008151905060006a636f6e736f6c652e6c6f679050602083016000808483855afa5050505050565b828054613174906142a3565b90600052602060002090601f01602090048101928261319657600085556131dd565b82601f106131af57805160ff19168380011785556131dd565b828001600101855582156131dd579182015b828111156131dc5782518255916020019190600101906131c1565b5b5090506131ea91906131ee565b5090565b5b808211156132075760008160009055506001016131ef565b5090565b600061321e61321984613f33565b613f0e565b90508281526020810184848401111561323657600080fd5b613241848285614261565b509392505050565b600061325c61325784613f64565b613f0e565b90508281526020810184848401111561327457600080fd5b61327f848285614261565b509392505050565b60008135905061329681614652565b92915050565b6000815190506132ab81614652565b92915050565b6000815190506132c081614669565b92915050565b6000813590506132d581614680565b92915050565b600082601f8301126132ec57600080fd5b81356132fc84826020860161320b565b91505092915050565b600082601f83011261331657600080fd5b8135613326848260208601613249565b91505092915050565b60008135905061333e81614697565b92915050565b60008151905061335381614697565b92915050565b60006020828403121561336b57600080fd5b600061337984828501613287565b91505092915050565b60006020828403121561339457600080fd5b60006133a28482850161329c565b91505092915050565b6000806000606084860312156133c057600080fd5b60006133ce86828701613287565b935050602084013567ffffffffffffffff8111156133eb57600080fd5b6133f786828701613305565b92505060406134088682870161332f565b9150509250925092565b60006020828403121561342457600080fd5b6000613432848285016132b1565b91505092915050565b60006020828403121561344d57600080fd5b600061345b848285016132c6565b91505092915050565b60006020828403121561347657600080fd5b600082013567ffffffffffffffff81111561349057600080fd5b61349c848285016132db565b91505092915050565b600080604083850312156134b857600080fd5b600083013567ffffffffffffffff8111156134d257600080fd5b6134de85828601613305565b925050602083013567ffffffffffffffff8111156134fb57600080fd5b61350785828601613305565b9150509250929050565b60006020828403121561352357600080fd5b60006135318482850161332f565b91505092915050565b60006020828403121561354c57600080fd5b600061355a84828501613344565b91505092915050565b60008060006060848603121561357857600080fd5b60006135868682870161332f565b935050602061359786828701613287565b92505060406135a88682870161332f565b9150509250925092565b600080604083850312156135c557600080fd5b60006135d38582860161332f565b92505060206135e48582860161332f565b9150509250929050565b60006135fa838361398a565b905092915050565b600061360e83836139da565b60608301905092915050565b61362381614196565b82525050565b61363281614196565b82525050565b61364961364482614196565b61434f565b82525050565b600061365a82613fb5565b6136648185613ff0565b93508360208202850161367685613f95565b8060005b858110156136b2578484038952815161369385826135ee565b945061369e83613fd6565b925060208a0199505060018101905061367a565b50829750879550505050505092915050565b60006136cf82613fc0565b6136d98185614001565b93506136e483613fa5565b8060005b838110156137155781516136fc8882613602565b975061370783613fe3565b9250506001810190506136e8565b5085935050505092915050565b61373361372e826141b4565b614361565b82525050565b613742816141f5565b82525050565b61375181614219565b82525050565b6137608161423d565b82525050565b600061377182613fcb565b61377b818561401d565b935061378b818560208601614270565b61379481614474565b840191505092915050565b60006137aa82613fcb565b6137b4818561402e565b93506137c4818560208601614270565b6137cd81614474565b840191505092915050565b60006137e382613fcb565b6137ed818561403f565b93506137fd818560208601614270565b80840191505092915050565b6000613816601c8361402e565b915061382182614492565b602082019050919050565b600061383960348361402e565b9150613844826144bb565b604082019050919050565b600061385c601a8361402e565b91506138678261450a565b602082019050919050565b600061387f60278361402e565b915061388a82614533565b604082019050919050565b60006138a2600e8361402e565b91506138ad82614582565b602082019050919050565b60006138c5600d8361402e565b91506138d0826145ab565b602082019050919050565b60006138e8600083614012565b91506138f3826145d4565b600082019050919050565b600061390b60008361402e565b9150613916826145d4565b600082019050919050565b600061392e60178361402e565b9150613939826145d7565b602082019050919050565b6000613951600a8361402e565b915061395c82614600565b602082019050919050565b6000613974600f8361402e565b915061397f82614629565b602082019050919050565b60006060830160008301516139a2600086018261361a565b50602083015184820360208601526139ba8282613766565b91505060408301516139cf6040860182613a1c565b508091505092915050565b6060820160008201516139f0600085018261361a565b506020820151613a036020850182613a1c565b506040820151613a166040850182613a1c565b50505050565b613a25816141de565b82525050565b613a34816141de565b82525050565b613a4b613a46826141de565b61437d565b82525050565b6000613a5d8284613638565b60148201915081905092915050565b6000613a788284613722565b60208201915081905092915050565b6000613a9382846137d8565b915081905092915050565b6000613aa9826138db565b9150819050919050565b6000613abf8284613a3a565b60208201915081905092915050565b6000602082019050613ae36000830184613629565b92915050565b6000606082019050613afe6000830186613629565b613b0b6020830185613629565b613b186040830184613a2b565b949350505050565b6000606082019050613b356000830186613629565b8181036020830152613b47818561379f565b9050613b566040830184613a2b565b949350505050565b6000606082019050613b736000830185613629565b8181036020830152613b84816138fe565b9050613b936040830184613a2b565b9392505050565b6000604082019050613baf6000830185613629565b613bbc6020830184613a2b565b9392505050565b60006020820190508181036000830152613bdd818461364f565b905092915050565b60006020820190508181036000830152613bff81846136c4565b905092915050565b6000602082019050613c1c6000830184613739565b92915050565b6000602082019050613c376000830184613748565b92915050565b6000602082019050613c526000830184613757565b92915050565b60006020820190508181036000830152613c72818461379f565b905092915050565b60006080820190508181036000830152613c94818761379f565b9050613ca36020830186613629565b8181036040830152613cb5818561379f565b90508181036060830152613cc9818461379f565b905095945050505050565b60006060820190508181036000830152613cee818661379f565b9050613cfd6020830185613629565b613d0a6040830184613a2b565b949350505050565b60006040820190508181036000830152613d2c818561379f565b9050613d3b6020830184613a2b565b9392505050565b60006020820190508181036000830152613d5b81613809565b9050919050565b60006020820190508181036000830152613d7b8161382c565b9050919050565b60006020820190508181036000830152613d9b8161384f565b9050919050565b60006020820190508181036000830152613dbb81613872565b9050919050565b60006020820190508181036000830152613ddb81613895565b9050919050565b60006020820190508181036000830152613dfb816138b8565b9050919050565b60006020820190508181036000830152613e1b81613921565b9050919050565b60006020820190508181036000830152613e3b81613944565b9050919050565b60006020820190508181036000830152613e5b81613967565b9050919050565b6000602082019050613e776000830184613a2b565b92915050565b6000604082019050613e926000830185613a2b565b8181036020830152613ea4818461379f565b90509392505050565b600060c082019050613ec26000830189613a2b565b613ecf6020830188613a2b565b613edc6040830187613a2b565b613ee96060830186613a2b565b613ef66080830185613a2b565b613f0360a0830184613a2b565b979650505050505050565b6000613f18613f29565b9050613f2482826142d5565b919050565b6000604051905090565b600067ffffffffffffffff821115613f4e57613f4d614445565b5b613f5782614474565b9050602081019050919050565b600067ffffffffffffffff821115613f7f57613f7e614445565b5b613f8882614474565b9050602081019050919050565b6000819050602082019050919050565b6000819050602082019050919050565b600081519050919050565b600081519050919050565b600081519050919050565b6000602082019050919050565b6000602082019050919050565b600082825260208201905092915050565b600082825260208201905092915050565b600081905092915050565b600082825260208201905092915050565b600082825260208201905092915050565b600081905092915050565b6000614055826141de565b9150614060836141de565b9250827fffffffffffffffffffffffffffffffffffffffffffffffffffffffffffffffff03821115614095576140946143b8565b5b828201905092915050565b60006140ab826141e8565b91506140b6836141e8565b92508260ff038211156140cc576140cb6143b8565b5b828201905092915050565b60006140e2826141de565b91506140ed836141de565b9250826140fd576140fc6143e7565b5b828204905092915050565b6000614113826141de565b915061411e836141de565b9250817fffffffffffffffffffffffffffffffffffffffffffffffffffffffffffffffff0483118215151615614157576141566143b8565b5b828202905092915050565b600061416d826141de565b9150614178836141de565b92508282101561418b5761418a6143b8565b5b828203905092915050565b60006141a1826141be565b9050919050565b60008115159050919050565b6000819050919050565b600073ffffffffffffffffffffffffffffffffffffffff82169050919050565b6000819050919050565b600060ff82169050919050565b600061420082614207565b9050919050565b6000614212826141be565b9050919050565b60006142248261422b565b9050919050565b6000614236826141be565b9050919050565b60006142488261424f565b9050919050565b600061425a826141be565b9050919050565b82818337600083830152505050565b60005b8381101561428e578082015181840152602081019050614273565b8381111561429d576000848401525b50505050565b600060028204905060018216806142bb57607f821691505b602082108114156142cf576142ce614416565b5b50919050565b6142de82614474565b810181811067ffffffffffffffff821117156142fd576142fc614445565b5b80604052505050565b6000614311826141de565b91507fffffffffffffffffffffffffffffffffffffffffffffffffffffffffffffffff821415614344576143436143b8565b5b600182019050919050565b600061435a8261436b565b9050919050565b6000819050919050565b600061437682614485565b9050919050565b6000819050919050565b6000614392826141de565b915061439d836141de565b9250826143ad576143ac6143e7565b5b828206905092915050565b7f4e487b7100000000000000000000000000000000000000000000000000000000600052601160045260246000fd5b7f4e487b7100000000000000000000000000000000000000000000000000000000600052601260045260246000fd5b7f4e487b7100000000000000000000000000000000000000000000000000000000600052602260045260246000fd5b7f4e487b7100000000000000000000000000000000000000000000000000000000600052604160045260246000fd5b6000601f19601f8301169050919050565b60008160601b9050919050565b7f726577617264206475726174696f6e206e6f742066696e697368656400000000600082015250565b7f547279696e6720746f207769746864726177206d6f7265206d6f6e657920746860008201527f616e2074686520636f6e7472616374206861732e000000000000000000000000602082015250565b7f5b736d61727420636f6e74726163745d5761697420356d696e73000000000000600082015250565b7f4661696c656420746f207769746864726177206d6f6e65792066726f6d20636f60008201527f6e74726163742e00000000000000000000000000000000000000000000000000602082015250565b7f6e6f7420617574686f72697a6564000000000000000000000000000000000000600082015250565b7f6e6f74204e4654206f776e657200000000000000000000000000000000000000600082015250565b50565b7f72657761726420616d6f756e74203e2062616c616e6365000000000000000000600082015250565b7f616d6f756e74203d203000000000000000000000000000000000000000000000600082015250565b7f7265776172642072617465203d20300000000000000000000000000000000000600082015250565b61465b81614196565b811461466657600080fd5b50565b614672816141a8565b811461467d57600080fd5b50565b614689816141b4565b811461469457600080fd5b50565b6146a0816141de565b81146146ab57600080fd5b5056fe5b736d61727420636f6e74726163745d257320776176656420772f206d65737361676520257320746f2025735b736d61727420636f6e74726163745d257320776f6e21205265776172642076616c75653a2025735b736d61727420636f6e74726163745d5765206861766520256420776176657321a264697066735822122038fdd58eaabd0a1baaff445a73590854969a2d59802646c312d885f731c1a60764736f6c634300080400335b736d61727420636f6e74726163745d596f20796f2c204920616d206120636f6e747261637420616e64204920616d20736d617274",
  "linkReferences": {},
  "deployedLinkReferences": {}
}