{
  "_format": "hh-sol-artifact-1",
  "contractName": "WavePortal",
  "sourceName": "contracts/WavePortal.sol",
  "abi": [
    {
      "inputs": [],
      "stateMutability": "payable",
      "type": "constructor"
    },
    {
      "anonymous": false,
      "inputs": [
        {
          "indexed": true,
          "internalType": "address",
          "name": "from",
          "type": "address"
        },
        {
          "indexed": false,
          "internalType": "uint256",
          "name": "timestamp",
          "type": "uint256"
        },
        {
          "indexed": false,
          "internalType": "string",
          "name": "message",
          "type": "string"
        }
      ],
      "name": "NewWave",
      "type": "event"
    },
    {
      "inputs": [],
      "name": "getAllWaves",
      "outputs": [
        {
          "components": [
            {
              "internalType": "address",
              "name": "waver",
              "type": "address"
            },
            {
              "internalType": "string",
              "name": "message",
              "type": "string"
            },
            {
              "internalType": "uint256",
              "name": "timestamp",
              "type": "uint256"
            }
          ],
          "internalType": "struct WavePortal.Wave[]",
          "name": "",
          "type": "tuple[]"
        }
      ],
      "stateMutability": "view",
      "type": "function"
    },
    {
      "inputs": [],
      "name": "getTotalWaves",
      "outputs": [
        {
          "internalType": "uint256",
          "name": "",
          "type": "uint256"
        }
      ],
      "stateMutability": "view",
      "type": "function"
    },
    {
      "inputs": [
        {
          "internalType": "address",
          "name": "",
          "type": "address"
        }
      ],
      "name": "lastWavedAt",
      "outputs": [
        {
          "internalType": "uint256",
          "name": "",
          "type": "uint256"
        }
      ],
      "stateMutability": "view",
      "type": "function"
    },
    {
      "inputs": [
        {
          "internalType": "address",
          "name": "account",
          "type": "address"
        }
      ],
      "name": "toString",
      "outputs": [
        {
          "internalType": "string",
          "name": "",
          "type": "string"
        }
      ],
      "stateMutability": "pure",
      "type": "function"
    },
    {
      "inputs": [
        {
          "internalType": "uint256",
          "name": "value",
          "type": "uint256"
        }
      ],
      "name": "toString",
      "outputs": [
        {
          "internalType": "string",
          "name": "",
          "type": "string"
        }
      ],
      "stateMutability": "pure",
      "type": "function"
    },
    {
      "inputs": [
        {
          "internalType": "bytes",
          "name": "data",
          "type": "bytes"
        }
      ],
      "name": "toString",
      "outputs": [
        {
          "internalType": "string",
          "name": "",
          "type": "string"
        }
      ],
      "stateMutability": "pure",
      "type": "function"
    },
    {
      "inputs": [
        {
          "internalType": "bytes32",
          "name": "value",
          "type": "bytes32"
        }
      ],
      "name": "toString",
      "outputs": [
        {
          "internalType": "string",
          "name": "",
          "type": "string"
        }
      ],
      "stateMutability": "pure",
      "type": "function"
    },
    {
      "inputs": [
        {
          "internalType": "string",
          "name": "_message",
          "type": "string"
        },
        {
          "internalType": "string",
          "name": "_to",
          "type": "string"
        }
      ],
      "name": "wave",
      "outputs": [],
      "stateMutability": "nonpayable",
      "type": "function"
    }
  ],
  "bytecode": "0x60806040526200003360405180606001604052806035815260200162002293603591396200005b60201b62000c771760201c565b60644442620000439190620001a8565b6200004f919062000245565b600181905550620002ec565b620000fb8160405160240162000072919062000168565b6040516020818303038152906040527f41304fac000000000000000000000000000000000000000000000000000000007bffffffffffffffffffffffffffffffffffffffffffffffffffffffff19166020820180517bffffffffffffffffffffffffffffffffffffffffffffffffffffffff8381831617835250505050620000fe60201b60201c565b50565b60008151905060006a636f6e736f6c652e6c6f679050602083016000808483855afa5050505050565b600062000134826200018c565b62000140818562000197565b9350620001528185602086016200020f565b6200015d81620002db565b840191505092915050565b6000602082019050818103600083015262000184818462000127565b905092915050565b600081519050919050565b600082825260208201905092915050565b6000620001b58262000205565b9150620001c28362000205565b9250827fffffffffffffffffffffffffffffffffffffffffffffffffffffffffffffffff03821115620001fa57620001f96200027d565b5b828201905092915050565b6000819050919050565b60005b838110156200022f57808201518184015260208101905062000212565b838111156200023f576000848401525b50505050565b6000620002528262000205565b91506200025f8362000205565b925082620002725762000271620002ac565b5b828206905092915050565b7f4e487b7100000000000000000000000000000000000000000000000000000000600052601160045260246000fd5b7f4e487b7100000000000000000000000000000000000000000000000000000000600052601260045260246000fd5b6000601f19601f8301169050919050565b611f9780620002fc6000396000f3fe608060405234801561001057600080fd5b50600436106100885760003560e01c80639a2cdc081161005b5780639a2cdc0814610139578063a42a466314610157578063b11a19e814610187578063bd43a908146101b757610088565b8063518729591461008d57806356ca623e146100a95780636900a3ae146100d957806371aad10d14610109575b600080fd5b6100a760048036038101906100a2919061141d565b6101d5565b005b6100c360048036038101906100be919061138a565b6105cb565b6040516100d091906117da565b60405180910390f35b6100f360048036038101906100ee9190611489565b6105fc565b60405161010091906117da565b60405180910390f35b610123600480360381019061011e91906113dc565b61062d565b60405161013091906117da565b60405180910390f35b610141610a7d565b60405161014e9190611924565b60405180910390f35b610171600480360381019061016c919061138a565b610aab565b60405161017e9190611924565b60405180910390f35b6101a1600480360381019061019c91906113b3565b610ac3565b6040516101ae91906117da565b60405180910390f35b6101bf610af4565b6040516101cc91906117b8565b60405180910390f35b4261012c600260003373ffffffffffffffffffffffffffffffffffffffff1673ffffffffffffffffffffffffffffffffffffffff168152602001908152602001600020546102239190611a72565b10610263576040517f08c379a000000000000000000000000000000000000000000000000000000000815260040161025a906118e4565b60405180910390fd5b42600260003373ffffffffffffffffffffffffffffffffffffffff1673ffffffffffffffffffffffffffffffffffffffff1681526020019081526020016000208190555060016000808282546102b99190611a72565b925050819055506102e46040518060600160405280602c8152602001611eed602c9139338484610d10565b60036102ef82610db2565b6040516102fc9190611771565b908152602001604051809103902060405180606001604052803373ffffffffffffffffffffffffffffffffffffffff16815260200184815260200142815250908060018154018082558091505060019003906000526020600020906003020160009091909190915060008201518160000160006101000a81548173ffffffffffffffffffffffffffffffffffffffff021916908373ffffffffffffffffffffffffffffffffffffffff16021790555060208201518160010190805190602001906103c79291906111d8565b506040820151816002015550503373ffffffffffffffffffffffffffffffffffffffff167f5f7e16dc676677766a70e9c5628aa6c54ddb8b6e5188e2ae1e1f17f1ffbea716428460405161041c92919061193f565b60405180910390a2606460015442446104359190611a72565b61043f9190611a72565b6104499190611cd2565b60018190555060006509184e72a00090506104996040518060400160405280601881526020017f5b736d61727420636f6e74726163745d62616c616e63653a000000000000000081525047611074565b6032600154116104d6576002816104b09190611aff565b90506104d5604051806060016040528060288152602001611f19602891393383611110565b5b47811115610519576040517f08c379a0000000000000000000000000000000000000000000000000000000008152600401610510906118c4565b60405180910390fd5b60003373ffffffffffffffffffffffffffffffffffffffff168260405161053f90611788565b60006040518083038185875af1925050503d806000811461057c576040519150601f19603f3d011682016040523d82523d6000602084013e610581565b606091505b50509050806105c5576040517f08c379a00000000000000000000000000000000000000000000000000000000081526004016105bc90611904565b60405180910390fd5b50505050565b60606105f5826040516020016105e1919061173b565b60405160208183030381529060405261062d565b9050919050565b606061062682604051602001610612919061179d565b60405160208183030381529060405261062d565b9050919050565b606060006040518060400160405280601681526020017f303132333435363738396162636465664142434445460000000000000000000081525090506000600284516106799190611aff565b60026106859190611a72565b67ffffffffffffffff8111156106c4577f4e487b7100000000000000000000000000000000000000000000000000000000600052604160045260246000fd5b6040519080825280601f01601f1916602001820160405280156106f65781602001600182028036833780820191505090505b5090507f300000000000000000000000000000000000000000000000000000000000000081600081518110610754577f4e487b7100000000000000000000000000000000000000000000000000000000600052603260045260246000fd5b60200101907effffffffffffffffffffffffffffffffffffffffffffffffffffffffffffff1916908160001a9053507f7800000000000000000000000000000000000000000000000000000000000000816001815181106107de577f4e487b7100000000000000000000000000000000000000000000000000000000600052603260045260246000fd5b60200101907effffffffffffffffffffffffffffffffffffffffffffffffffffffffffffff1916908160001a90535060005b8451811015610a7257826004868381518110610855577f4e487b7100000000000000000000000000000000000000000000000000000000600052603260045260246000fd5b602001015160f81c60f81b7effffffffffffffffffffffffffffffffffffffffffffffffffffffffffffff1916901c60f81c60ff16815181106108c1577f4e487b7100000000000000000000000000000000000000000000000000000000600052603260045260246000fd5b602001015160f81c60f81b826002836108da9190611aff565b60026108e69190611a72565b8151811061091d577f4e487b7100000000000000000000000000000000000000000000000000000000600052603260045260246000fd5b60200101907effffffffffffffffffffffffffffffffffffffffffffffffffffffffffffff1916908160001a90535082600f60f81b86838151811061098b577f4e487b7100000000000000000000000000000000000000000000000000000000600052603260045260246000fd5b602001015160f81c60f81b1660f81c60ff16815181106109d4577f4e487b7100000000000000000000000000000000000000000000000000000000600052603260045260246000fd5b602001015160f81c60f81b826002836109ed9190611aff565b60036109f99190611a72565b81518110610a30577f4e487b7100000000000000000000000000000000000000000000000000000000600052603260045260246000fd5b60200101907effffffffffffffffffffffffffffffffffffffffffffffffffffffffffffff1916908160001a9053508080610a6a90611c51565b915050610810565b508092505050919050565b6000610aa3604051806060016040528060218152602001611f4160219139600054611074565b600054905090565b60026020528060005260406000206000915090505481565b6060610aed82604051602001610ad99190611756565b60405160208183030381529060405261062d565b9050919050565b606060006003610b0b610b06336105cb565b610db2565b604051610b189190611771565b9081526020016040518091039020805480602002602001604051908101604052809291908181526020016000905b82821015610c6a57838290600052602060002090600302016040518060600160405290816000820160009054906101000a900473ffffffffffffffffffffffffffffffffffffffff1673ffffffffffffffffffffffffffffffffffffffff1673ffffffffffffffffffffffffffffffffffffffff168152602001600182018054610bcf90611bee565b80601f0160208091040260200160405190810160405280929190818152602001828054610bfb90611bee565b8015610c485780601f10610c1d57610100808354040283529160200191610c48565b820191906000526020600020905b815481529060010190602001808311610c2b57829003601f168201915b5050505050815260200160028201548152505081526020019060010190610b46565b5050505090508091505090565b610d0d81604051602401610c8b91906117da565b6040516020818303038152906040527f41304fac000000000000000000000000000000000000000000000000000000007bffffffffffffffffffffffffffffffffffffffffffffffffffffffff19166020820180517bffffffffffffffffffffffffffffffffffffffffffffffffffffffff83818316178352505050506111af565b50565b610dac84848484604051602401610d2a94939291906117fc565b6040516020818303038152906040527f245986f2000000000000000000000000000000000000000000000000000000007bffffffffffffffffffffffffffffffffffffffffffffffffffffffff19166020820180517bffffffffffffffffffffffffffffffffffffffffffffffffffffffff83818316178352505050506111af565b50505050565b606060008290506000815167ffffffffffffffff811115610dfc577f4e487b7100000000000000000000000000000000000000000000000000000000600052604160045260246000fd5b6040519080825280601f01601f191660200182016040528015610e2e5781602001600182028036833780820191505090505b50905060005b8251811015611069576041838281518110610e78577f4e487b7100000000000000000000000000000000000000000000000000000000600052603260045260246000fd5b602001015160f81c60f81b60f81c60ff1610158015610ee15750605a838281518110610ecd577f4e487b7100000000000000000000000000000000000000000000000000000000600052603260045260246000fd5b602001015160f81c60f81b60f81c60ff1611155b15610fa9576020838281518110610f21577f4e487b7100000000000000000000000000000000000000000000000000000000600052603260045260246000fd5b602001015160f81c60f81b60f81c610f399190611ac8565b60f81b828281518110610f75577f4e487b7100000000000000000000000000000000000000000000000000000000600052603260045260246000fd5b60200101907effffffffffffffffffffffffffffffffffffffffffffffffffffffffffffff1916908160001a905350611056565b828181518110610fe2577f4e487b7100000000000000000000000000000000000000000000000000000000600052603260045260246000fd5b602001015160f81c60f81b828281518110611026577f4e487b7100000000000000000000000000000000000000000000000000000000600052603260045260246000fd5b60200101907effffffffffffffffffffffffffffffffffffffffffffffffffffffffffffff1916908160001a9053505b808061106190611c51565b915050610e34565b508092505050919050565b61110c828260405160240161108a929190611894565b6040516020818303038152906040527fb60e72cc000000000000000000000000000000000000000000000000000000007bffffffffffffffffffffffffffffffffffffffffffffffffffffffff19166020820180517bffffffffffffffffffffffffffffffffffffffffffffffffffffffff83818316178352505050506111af565b5050565b6111aa83838360405160240161112893929190611856565b6040516020818303038152906040527f0d26b925000000000000000000000000000000000000000000000000000000007bffffffffffffffffffffffffffffffffffffffffffffffffffffffff19166020820180517bffffffffffffffffffffffffffffffffffffffffffffffffffffffff83818316178352505050506111af565b505050565b60008151905060006a636f6e736f6c652e6c6f679050602083016000808483855afa5050505050565b8280546111e490611bee565b90600052602060002090601f016020900481019282611206576000855561124d565b82601f1061121f57805160ff191683800117855561124d565b8280016001018555821561124d579182015b8281111561124c578251825591602001919060010190611231565b5b50905061125a919061125e565b5090565b5b8082111561127757600081600090555060010161125f565b5090565b600061128e61128984611994565b61196f565b9050828152602081018484840111156112a657600080fd5b6112b1848285611bac565b509392505050565b60006112cc6112c7846119c5565b61196f565b9050828152602081018484840111156112e457600080fd5b6112ef848285611bac565b509392505050565b60008135905061130681611ea7565b92915050565b60008135905061131b81611ebe565b92915050565b600082601f83011261133257600080fd5b813561134284826020860161127b565b91505092915050565b600082601f83011261135c57600080fd5b813561136c8482602086016112b9565b91505092915050565b60008135905061138481611ed5565b92915050565b60006020828403121561139c57600080fd5b60006113aa848285016112f7565b91505092915050565b6000602082840312156113c557600080fd5b60006113d38482850161130c565b91505092915050565b6000602082840312156113ee57600080fd5b600082013567ffffffffffffffff81111561140857600080fd5b61141484828501611321565b91505092915050565b6000806040838503121561143057600080fd5b600083013567ffffffffffffffff81111561144a57600080fd5b6114568582860161134b565b925050602083013567ffffffffffffffff81111561147357600080fd5b61147f8582860161134b565b9150509250929050565b60006020828403121561149b57600080fd5b60006114a984828501611375565b91505092915050565b60006114be83836116b6565b905092915050565b6114cf81611b59565b82525050565b6114de81611b59565b82525050565b6114f56114f082611b59565b611c9a565b82525050565b600061150682611a06565b6115108185611a29565b935083602082028501611522856119f6565b8060005b8581101561155e578484038952815161153f85826114b2565b945061154a83611a1c565b925060208a01995050600181019050611526565b50829750879550505050505092915050565b61158161157c82611b6b565b611cac565b82525050565b600061159282611a11565b61159c8185611a45565b93506115ac818560208601611bbb565b6115b581611dbf565b840191505092915050565b60006115cb82611a11565b6115d58185611a56565b93506115e5818560208601611bbb565b6115ee81611dbf565b840191505092915050565b600061160482611a11565b61160e8185611a67565b935061161e818560208601611bbb565b80840191505092915050565b6000611637603483611a56565b915061164282611ddd565b604082019050919050565b600061165a601a83611a56565b915061166582611e2c565b602082019050919050565b600061167d602783611a56565b915061168882611e55565b604082019050919050565b60006116a0600083611a3a565b91506116ab82611ea4565b600082019050919050565b60006060830160008301516116ce60008601826114c6565b50602083015184820360208601526116e68282611587565b91505060408301516116fb6040860182611706565b508091505092915050565b61170f81611b95565b82525050565b61171e81611b95565b82525050565b61173561173082611b95565b611cc8565b82525050565b600061174782846114e4565b60148201915081905092915050565b60006117628284611570565b60208201915081905092915050565b600061177d82846115f9565b915081905092915050565b600061179382611693565b9150819050919050565b60006117a98284611724565b60208201915081905092915050565b600060208201905081810360008301526117d281846114fb565b905092915050565b600060208201905081810360008301526117f481846115c0565b905092915050565b6000608082019050818103600083015261181681876115c0565b905061182560208301866114d5565b818103604083015261183781856115c0565b9050818103606083015261184b81846115c0565b905095945050505050565b6000606082019050818103600083015261187081866115c0565b905061187f60208301856114d5565b61188c6040830184611715565b949350505050565b600060408201905081810360008301526118ae81856115c0565b90506118bd6020830184611715565b9392505050565b600060208201905081810360008301526118dd8161162a565b9050919050565b600060208201905081810360008301526118fd8161164d565b9050919050565b6000602082019050818103600083015261191d81611670565b9050919050565b60006020820190506119396000830184611715565b92915050565b60006040820190506119546000830185611715565b818103602083015261196681846115c0565b90509392505050565b600061197961198a565b90506119858282611c20565b919050565b6000604051905090565b600067ffffffffffffffff8211156119af576119ae611d90565b5b6119b882611dbf565b9050602081019050919050565b600067ffffffffffffffff8211156119e0576119df611d90565b5b6119e982611dbf565b9050602081019050919050565b6000819050602082019050919050565b600081519050919050565b600081519050919050565b6000602082019050919050565b600082825260208201905092915050565b600081905092915050565b600082825260208201905092915050565b600082825260208201905092915050565b600081905092915050565b6000611a7d82611b95565b9150611a8883611b95565b9250827fffffffffffffffffffffffffffffffffffffffffffffffffffffffffffffffff03821115611abd57611abc611d03565b5b828201905092915050565b6000611ad382611b9f565b9150611ade83611b9f565b92508260ff03821115611af457611af3611d03565b5b828201905092915050565b6000611b0a82611b95565b9150611b1583611b95565b9250817fffffffffffffffffffffffffffffffffffffffffffffffffffffffffffffffff0483118215151615611b4e57611b4d611d03565b5b828202905092915050565b6000611b6482611b75565b9050919050565b6000819050919050565b600073ffffffffffffffffffffffffffffffffffffffff82169050919050565b6000819050919050565b600060ff82169050919050565b82818337600083830152505050565b60005b83811015611bd9578082015181840152602081019050611bbe565b83811115611be8576000848401525b50505050565b60006002820490506001821680611c0657607f821691505b60208210811415611c1a57611c19611d61565b5b50919050565b611c2982611dbf565b810181811067ffffffffffffffff82111715611c4857611c47611d90565b5b80604052505050565b6000611c5c82611b95565b91507fffffffffffffffffffffffffffffffffffffffffffffffffffffffffffffffff821415611c8f57611c8e611d03565b5b600182019050919050565b6000611ca582611cb6565b9050919050565b6000819050919050565b6000611cc182611dd0565b9050919050565b6000819050919050565b6000611cdd82611b95565b9150611ce883611b95565b925082611cf857611cf7611d32565b5b828206905092915050565b7f4e487b7100000000000000000000000000000000000000000000000000000000600052601160045260246000fd5b7f4e487b7100000000000000000000000000000000000000000000000000000000600052601260045260246000fd5b7f4e487b7100000000000000000000000000000000000000000000000000000000600052602260045260246000fd5b7f4e487b7100000000000000000000000000000000000000000000000000000000600052604160045260246000fd5b6000601f19601f8301169050919050565b60008160601b9050919050565b7f547279696e6720746f207769746864726177206d6f7265206d6f6e657920746860008201527f616e2074686520636f6e7472616374206861732e000000000000000000000000602082015250565b7f5b736d61727420636f6e74726163745d5761697420356d696e73000000000000600082015250565b7f4661696c656420746f207769746864726177206d6f6e65792066726f6d20636f60008201527f6e74726163742e00000000000000000000000000000000000000000000000000602082015250565b50565b611eb081611b59565b8114611ebb57600080fd5b50565b611ec781611b6b565b8114611ed257600080fd5b50565b611ede81611b95565b8114611ee957600080fd5b5056fe5b736d61727420636f6e74726163745d257320776176656420772f206d65737361676520257320746f2025735b736d61727420636f6e74726163745d257320776f6e21205265776172642076616c75653a2025735b736d61727420636f6e74726163745d5765206861766520256420776176657321a2646970667358221220b7fe164244b79478acc1ee971470abcf10b65b3d5b6143cb512d9fad4bbf562d64736f6c634300080400335b736d61727420636f6e74726163745d596f20796f2c204920616d206120636f6e747261637420616e64204920616d20736d617274",
  "linkReferences": {},
  "deployedLinkReferences": {}
}