{
  "_format": "hh-sol-artifact-1",
  "contractName": "WavePortal",
  "sourceName": "contracts/WavePortal.sol",
  "abi": [
    {
      "inputs": [],
      "stateMutability": "payable",
      "type": "constructor"
    },
    {
      "anonymous": false,
      "inputs": [
        {
          "indexed": true,
          "internalType": "address",
          "name": "from",
          "type": "address"
        },
        {
          "indexed": false,
          "internalType": "uint256",
          "name": "timestamp",
          "type": "uint256"
        },
        {
          "indexed": false,
          "internalType": "string",
          "name": "message",
          "type": "string"
        }
      ],
      "name": "NewWave",
      "type": "event"
    },
    {
      "inputs": [],
      "name": "getAllWaves",
      "outputs": [
        {
          "components": [
            {
              "internalType": "address",
              "name": "waver",
              "type": "address"
            },
            {
              "internalType": "string",
              "name": "message",
              "type": "string"
            },
            {
              "internalType": "uint256",
              "name": "timestamp",
              "type": "uint256"
            }
          ],
          "internalType": "struct WavePortal.Wave[]",
          "name": "",
          "type": "tuple[]"
        }
      ],
      "stateMutability": "view",
      "type": "function"
    },
    {
      "inputs": [],
      "name": "getTotalWaves",
      "outputs": [
        {
          "internalType": "uint256",
          "name": "",
          "type": "uint256"
        }
      ],
      "stateMutability": "view",
      "type": "function"
    },
    {
      "inputs": [
        {
          "internalType": "address",
          "name": "account",
          "type": "address"
        }
      ],
      "name": "toString",
      "outputs": [
        {
          "internalType": "string",
          "name": "",
          "type": "string"
        }
      ],
      "stateMutability": "pure",
      "type": "function"
    },
    {
      "inputs": [
        {
          "internalType": "uint256",
          "name": "value",
          "type": "uint256"
        }
      ],
      "name": "toString",
      "outputs": [
        {
          "internalType": "string",
          "name": "",
          "type": "string"
        }
      ],
      "stateMutability": "pure",
      "type": "function"
    },
    {
      "inputs": [
        {
          "internalType": "bytes",
          "name": "data",
          "type": "bytes"
        }
      ],
      "name": "toString",
      "outputs": [
        {
          "internalType": "string",
          "name": "",
          "type": "string"
        }
      ],
      "stateMutability": "pure",
      "type": "function"
    },
    {
      "inputs": [
        {
          "internalType": "bytes32",
          "name": "value",
          "type": "bytes32"
        }
      ],
      "name": "toString",
      "outputs": [
        {
          "internalType": "string",
          "name": "",
          "type": "string"
        }
      ],
      "stateMutability": "pure",
      "type": "function"
    },
    {
      "inputs": [
        {
          "internalType": "string",
          "name": "_message",
          "type": "string"
        },
        {
          "internalType": "string",
          "name": "_to",
          "type": "string"
        }
      ],
      "name": "wave",
      "outputs": [],
      "stateMutability": "nonpayable",
      "type": "function"
    }
  ],
  "bytecode": "0x60806040526200003360405180606001604052806025815260200162001dc4602591396200003960201b62000ae51760201c565b620001cd565b620000d98160405160240162000050919062000146565b6040516020818303038152906040527f41304fac000000000000000000000000000000000000000000000000000000007bffffffffffffffffffffffffffffffffffffffffffffffffffffffff19166020820180517bffffffffffffffffffffffffffffffffffffffffffffffffffffffff8381831617835250505050620000dc60201b60201c565b50565b60008151905060006a636f6e736f6c652e6c6f679050602083016000808483855afa5050505050565b600062000112826200016a565b6200011e818562000175565b93506200013081856020860162000186565b6200013b81620001bc565b840191505092915050565b6000602082019050818103600083015262000162818462000105565b905092915050565b600081519050919050565b600082825260208201905092915050565b60005b83811015620001a657808201518184015260208101905062000189565b83811115620001b6576000848401525b50505050565b6000601f19601f8301169050919050565b611be780620001dd6000396000f3fe608060405234801561001057600080fd5b506004361061007d5760003560e01c806371aad10d1161005b57806371aad10d146100fe5780639a2cdc081461012e578063b11a19e81461014c578063bd43a9081461017c5761007d565b8063518729591461008257806356ca623e1461009e5780636900a3ae146100ce575b600080fd5b61009c600480360381019061009791906111ec565b61019a565b005b6100b860048036038101906100b39190611159565b610434565b6040516100c59190611586565b60405180910390f35b6100e860048036038101906100e39190611258565b610465565b6040516100f59190611586565b60405180910390f35b610118600480360381019061011391906111ab565b610496565b6040516101259190611586565b60405180910390f35b6101366108e6565b6040516101439190611672565b60405180910390f35b61016660048036038101906101619190611182565b610931565b6040516101739190611586565b60405180910390f35b610184610962565b6040516101919190611564565b60405180910390f35b60016000808282546101ac91906117c0565b925050819055506101f46040518060400160405280601c81526020017f257320776176656420772f206d65737361676520257320746f20257300000000815250338484610b7e565b60016101ff82610c20565b60405161020c919061151d565b908152602001604051809103902060405180606001604052803373ffffffffffffffffffffffffffffffffffffffff16815260200184815260200142815250908060018154018082558091505060019003906000526020600020906003020160009091909190915060008201518160000160006101000a81548173ffffffffffffffffffffffffffffffffffffffff021916908373ffffffffffffffffffffffffffffffffffffffff16021790555060208201518160010190805190602001906102d7929190610fa7565b506040820151816002015550503373ffffffffffffffffffffffffffffffffffffffff167f5f7e16dc676677766a70e9c5628aa6c54ddb8b6e5188e2ae1e1f17f1ffbea716428460405161032c92919061168d565b60405180910390a260006509184e72a000905047811115610382576040517f08c379a000000000000000000000000000000000000000000000000000000000815260040161037990611632565b60405180910390fd5b60003373ffffffffffffffffffffffffffffffffffffffff16826040516103a890611534565b60006040518083038185875af1925050503d80600081146103e5576040519150601f19603f3d011682016040523d82523d6000602084013e6103ea565b606091505b505090508061042e576040517f08c379a000000000000000000000000000000000000000000000000000000000815260040161042590611652565b60405180910390fd5b50505050565b606061045e8260405160200161044a91906114e7565b604051602081830303815290604052610496565b9050919050565b606061048f8260405160200161047b9190611549565b604051602081830303815290604052610496565b9050919050565b606060006040518060400160405280601681526020017f303132333435363738396162636465664142434445460000000000000000000081525090506000600284516104e2919061184d565b60026104ee91906117c0565b67ffffffffffffffff81111561052d577f4e487b7100000000000000000000000000000000000000000000000000000000600052604160045260246000fd5b6040519080825280601f01601f19166020018201604052801561055f5781602001600182028036833780820191505090505b5090507f3000000000000000000000000000000000000000000000000000000000000000816000815181106105bd577f4e487b7100000000000000000000000000000000000000000000000000000000600052603260045260246000fd5b60200101907effffffffffffffffffffffffffffffffffffffffffffffffffffffffffffff1916908160001a9053507f780000000000000000000000000000000000000000000000000000000000000081600181518110610647577f4e487b7100000000000000000000000000000000000000000000000000000000600052603260045260246000fd5b60200101907effffffffffffffffffffffffffffffffffffffffffffffffffffffffffffff1916908160001a90535060005b84518110156108db578260048683815181106106be577f4e487b7100000000000000000000000000000000000000000000000000000000600052603260045260246000fd5b602001015160f81c60f81b7effffffffffffffffffffffffffffffffffffffffffffffffffffffffffffff1916901c60f81c60ff168151811061072a577f4e487b7100000000000000000000000000000000000000000000000000000000600052603260045260246000fd5b602001015160f81c60f81b82600283610743919061184d565b600261074f91906117c0565b81518110610786577f4e487b7100000000000000000000000000000000000000000000000000000000600052603260045260246000fd5b60200101907effffffffffffffffffffffffffffffffffffffffffffffffffffffffffffff1916908160001a90535082600f60f81b8683815181106107f4577f4e487b7100000000000000000000000000000000000000000000000000000000600052603260045260246000fd5b602001015160f81c60f81b1660f81c60ff168151811061083d577f4e487b7100000000000000000000000000000000000000000000000000000000600052603260045260246000fd5b602001015160f81c60f81b82600283610856919061184d565b600361086291906117c0565b81518110610899577f4e487b7100000000000000000000000000000000000000000000000000000000600052603260045260246000fd5b60200101907effffffffffffffffffffffffffffffffffffffffffffffffffffffffffffff1916908160001a90535080806108d39061199f565b915050610679565b508092505050919050565b60006109296040518060400160405280601781526020017f5765206861766520256420746f74616c20776176657321000000000000000000815250600054610ee2565b600054905090565b606061095b826040516020016109479190611502565b604051602081830303815290604052610496565b9050919050565b60606000600161097961097433610434565b610c20565b604051610986919061151d565b9081526020016040518091039020805480602002602001604051908101604052809291908181526020016000905b82821015610ad857838290600052602060002090600302016040518060600160405290816000820160009054906101000a900473ffffffffffffffffffffffffffffffffffffffff1673ffffffffffffffffffffffffffffffffffffffff1673ffffffffffffffffffffffffffffffffffffffff168152602001600182018054610a3d9061193c565b80601f0160208091040260200160405190810160405280929190818152602001828054610a699061193c565b8015610ab65780601f10610a8b57610100808354040283529160200191610ab6565b820191906000526020600020905b815481529060010190602001808311610a9957829003601f168201915b50505050508152602001600282015481525050815260200190600101906109b4565b5050505090508091505090565b610b7b81604051602401610af99190611586565b6040516020818303038152906040527f41304fac000000000000000000000000000000000000000000000000000000007bffffffffffffffffffffffffffffffffffffffffffffffffffffffff19166020820180517bffffffffffffffffffffffffffffffffffffffffffffffffffffffff8381831617835250505050610f7e565b50565b610c1a84848484604051602401610b9894939291906115a8565b6040516020818303038152906040527f245986f2000000000000000000000000000000000000000000000000000000007bffffffffffffffffffffffffffffffffffffffffffffffffffffffff19166020820180517bffffffffffffffffffffffffffffffffffffffffffffffffffffffff8381831617835250505050610f7e565b50505050565b606060008290506000815167ffffffffffffffff811115610c6a577f4e487b7100000000000000000000000000000000000000000000000000000000600052604160045260246000fd5b6040519080825280601f01601f191660200182016040528015610c9c5781602001600182028036833780820191505090505b50905060005b8251811015610ed7576041838281518110610ce6577f4e487b7100000000000000000000000000000000000000000000000000000000600052603260045260246000fd5b602001015160f81c60f81b60f81c60ff1610158015610d4f5750605a838281518110610d3b577f4e487b7100000000000000000000000000000000000000000000000000000000600052603260045260246000fd5b602001015160f81c60f81b60f81c60ff1611155b15610e17576020838281518110610d8f577f4e487b7100000000000000000000000000000000000000000000000000000000600052603260045260246000fd5b602001015160f81c60f81b60f81c610da79190611816565b60f81b828281518110610de3577f4e487b7100000000000000000000000000000000000000000000000000000000600052603260045260246000fd5b60200101907effffffffffffffffffffffffffffffffffffffffffffffffffffffffffffff1916908160001a905350610ec4565b828181518110610e50577f4e487b7100000000000000000000000000000000000000000000000000000000600052603260045260246000fd5b602001015160f81c60f81b828281518110610e94577f4e487b7100000000000000000000000000000000000000000000000000000000600052603260045260246000fd5b60200101907effffffffffffffffffffffffffffffffffffffffffffffffffffffffffffff1916908160001a9053505b8080610ecf9061199f565b915050610ca2565b508092505050919050565b610f7a8282604051602401610ef8929190611602565b6040516020818303038152906040527fb60e72cc000000000000000000000000000000000000000000000000000000007bffffffffffffffffffffffffffffffffffffffffffffffffffffffff19166020820180517bffffffffffffffffffffffffffffffffffffffffffffffffffffffff8381831617835250505050610f7e565b5050565b60008151905060006a636f6e736f6c652e6c6f679050602083016000808483855afa5050505050565b828054610fb39061193c565b90600052602060002090601f016020900481019282610fd5576000855561101c565b82601f10610fee57805160ff191683800117855561101c565b8280016001018555821561101c579182015b8281111561101b578251825591602001919060010190611000565b5b509050611029919061102d565b5090565b5b8082111561104657600081600090555060010161102e565b5090565b600061105d611058846116e2565b6116bd565b90508281526020810184848401111561107557600080fd5b6110808482856118fa565b509392505050565b600061109b61109684611713565b6116bd565b9050828152602081018484840111156110b357600080fd5b6110be8482856118fa565b509392505050565b6000813590506110d581611b6c565b92915050565b6000813590506110ea81611b83565b92915050565b600082601f83011261110157600080fd5b813561111184826020860161104a565b91505092915050565b600082601f83011261112b57600080fd5b813561113b848260208601611088565b91505092915050565b60008135905061115381611b9a565b92915050565b60006020828403121561116b57600080fd5b6000611179848285016110c6565b91505092915050565b60006020828403121561119457600080fd5b60006111a2848285016110db565b91505092915050565b6000602082840312156111bd57600080fd5b600082013567ffffffffffffffff8111156111d757600080fd5b6111e3848285016110f0565b91505092915050565b600080604083850312156111ff57600080fd5b600083013567ffffffffffffffff81111561121957600080fd5b6112258582860161111a565b925050602083013567ffffffffffffffff81111561124257600080fd5b61124e8582860161111a565b9150509250929050565b60006020828403121561126a57600080fd5b600061127884828501611144565b91505092915050565b600061128d8383611462565b905092915050565b61129e816118a7565b82525050565b6112ad816118a7565b82525050565b6112c46112bf826118a7565b6119e8565b82525050565b60006112d582611754565b6112df8185611777565b9350836020820285016112f185611744565b8060005b8581101561132d578484038952815161130e8582611281565b94506113198361176a565b925060208a019950506001810190506112f5565b50829750879550505050505092915050565b61135061134b826118b9565b6119fa565b82525050565b60006113618261175f565b61136b8185611793565b935061137b818560208601611909565b61138481611aad565b840191505092915050565b600061139a8261175f565b6113a481856117a4565b93506113b4818560208601611909565b6113bd81611aad565b840191505092915050565b60006113d38261175f565b6113dd81856117b5565b93506113ed818560208601611909565b80840191505092915050565b60006114066034836117a4565b915061141182611acb565b604082019050919050565b60006114296027836117a4565b915061143482611b1a565b604082019050919050565b600061144c600083611788565b915061145782611b69565b600082019050919050565b600060608301600083015161147a6000860182611295565b50602083015184820360208601526114928282611356565b91505060408301516114a760408601826114b2565b508091505092915050565b6114bb816118e3565b82525050565b6114ca816118e3565b82525050565b6114e16114dc826118e3565b611a16565b82525050565b60006114f382846112b3565b60148201915081905092915050565b600061150e828461133f565b60208201915081905092915050565b600061152982846113c8565b915081905092915050565b600061153f8261143f565b9150819050919050565b600061155582846114d0565b60208201915081905092915050565b6000602082019050818103600083015261157e81846112ca565b905092915050565b600060208201905081810360008301526115a0818461138f565b905092915050565b600060808201905081810360008301526115c2818761138f565b90506115d160208301866112a4565b81810360408301526115e3818561138f565b905081810360608301526115f7818461138f565b905095945050505050565b6000604082019050818103600083015261161c818561138f565b905061162b60208301846114c1565b9392505050565b6000602082019050818103600083015261164b816113f9565b9050919050565b6000602082019050818103600083015261166b8161141c565b9050919050565b600060208201905061168760008301846114c1565b92915050565b60006040820190506116a260008301856114c1565b81810360208301526116b4818461138f565b90509392505050565b60006116c76116d8565b90506116d3828261196e565b919050565b6000604051905090565b600067ffffffffffffffff8211156116fd576116fc611a7e565b5b61170682611aad565b9050602081019050919050565b600067ffffffffffffffff82111561172e5761172d611a7e565b5b61173782611aad565b9050602081019050919050565b6000819050602082019050919050565b600081519050919050565b600081519050919050565b6000602082019050919050565b600082825260208201905092915050565b600081905092915050565b600082825260208201905092915050565b600082825260208201905092915050565b600081905092915050565b60006117cb826118e3565b91506117d6836118e3565b9250827fffffffffffffffffffffffffffffffffffffffffffffffffffffffffffffffff0382111561180b5761180a611a20565b5b828201905092915050565b6000611821826118ed565b915061182c836118ed565b92508260ff0382111561184257611841611a20565b5b828201905092915050565b6000611858826118e3565b9150611863836118e3565b9250817fffffffffffffffffffffffffffffffffffffffffffffffffffffffffffffffff048311821515161561189c5761189b611a20565b5b828202905092915050565b60006118b2826118c3565b9050919050565b6000819050919050565b600073ffffffffffffffffffffffffffffffffffffffff82169050919050565b6000819050919050565b600060ff82169050919050565b82818337600083830152505050565b60005b8381101561192757808201518184015260208101905061190c565b83811115611936576000848401525b50505050565b6000600282049050600182168061195457607f821691505b6020821081141561196857611967611a4f565b5b50919050565b61197782611aad565b810181811067ffffffffffffffff8211171561199657611995611a7e565b5b80604052505050565b60006119aa826118e3565b91507fffffffffffffffffffffffffffffffffffffffffffffffffffffffffffffffff8214156119dd576119dc611a20565b5b600182019050919050565b60006119f382611a04565b9050919050565b6000819050919050565b6000611a0f82611abe565b9050919050565b6000819050919050565b7f4e487b7100000000000000000000000000000000000000000000000000000000600052601160045260246000fd5b7f4e487b7100000000000000000000000000000000000000000000000000000000600052602260045260246000fd5b7f4e487b7100000000000000000000000000000000000000000000000000000000600052604160045260246000fd5b6000601f19601f8301169050919050565b60008160601b9050919050565b7f547279696e6720746f207769746864726177206d6f7265206d6f6e657920746860008201527f616e2074686520636f6e7472616374206861732e000000000000000000000000602082015250565b7f4661696c656420746f207769746864726177206d6f6e65792066726f6d20636f60008201527f6e74726163742e00000000000000000000000000000000000000000000000000602082015250565b50565b611b75816118a7565b8114611b8057600080fd5b50565b611b8c816118b9565b8114611b9757600080fd5b50565b611ba3816118e3565b8114611bae57600080fd5b5056fea264697066735822122029853683cc26e3dbdd81c26d3c33d9da076f9bd0334f961a5f02b5a93a20588364736f6c63430008040033596f20796f2c204920616d206120636f6e747261637420616e64204920616d20736d617274",
  "linkReferences": {},
  "deployedLinkReferences": {}
}