{
  "_format": "hh-sol-artifact-1",
  "contractName": "WavePortal",
  "sourceName": "contracts/WavePortal.sol",
  "abi": [
    {
      "inputs": [
        {
          "internalType": "address",
          "name": "_stakingToken",
          "type": "address"
        },
        {
          "internalType": "address",
          "name": "_rewardToken",
          "type": "address"
        }
      ],
      "stateMutability": "payable",
      "type": "constructor"
    },
    {
      "anonymous": false,
      "inputs": [
        {
          "indexed": true,
          "internalType": "address",
          "name": "from",
          "type": "address"
        },
        {
          "indexed": false,
          "internalType": "uint256",
          "name": "timestamp",
          "type": "uint256"
        },
        {
          "indexed": false,
          "internalType": "string",
          "name": "message",
          "type": "string"
        }
      ],
      "name": "NewWave",
      "type": "event"
    },
    {
      "inputs": [
        {
          "internalType": "uint256",
          "name": "_amount",
          "type": "uint256"
        }
      ],
      "name": "addRewardAmount",
      "outputs": [],
      "stateMutability": "nonpayable",
      "type": "function"
    },
    {
      "inputs": [
        {
          "internalType": "address",
          "name": "",
          "type": "address"
        }
      ],
      "name": "balanceOf",
      "outputs": [
        {
          "internalType": "uint256",
          "name": "",
          "type": "uint256"
        }
      ],
      "stateMutability": "view",
      "type": "function"
    },
    {
      "inputs": [],
      "name": "duration",
      "outputs": [
        {
          "internalType": "uint256",
          "name": "",
          "type": "uint256"
        }
      ],
      "stateMutability": "view",
      "type": "function"
    },
    {
      "inputs": [
        {
          "internalType": "address",
          "name": "_account",
          "type": "address"
        }
      ],
      "name": "earned",
      "outputs": [
        {
          "internalType": "uint256",
          "name": "",
          "type": "uint256"
        }
      ],
      "stateMutability": "view",
      "type": "function"
    },
    {
      "inputs": [],
      "name": "finishAt",
      "outputs": [
        {
          "internalType": "uint256",
          "name": "",
          "type": "uint256"
        }
      ],
      "stateMutability": "view",
      "type": "function"
    },
    {
      "inputs": [],
      "name": "getAllWaves",
      "outputs": [
        {
          "components": [
            {
              "internalType": "address",
              "name": "waver",
              "type": "address"
            },
            {
              "internalType": "string",
              "name": "message",
              "type": "string"
            },
            {
              "internalType": "uint256",
              "name": "timestamp",
              "type": "uint256"
            }
          ],
          "internalType": "struct WavePortal.Wave[]",
          "name": "",
          "type": "tuple[]"
        }
      ],
      "stateMutability": "view",
      "type": "function"
    },
    {
      "inputs": [],
      "name": "getReward",
      "outputs": [],
      "stateMutability": "nonpayable",
      "type": "function"
    },
    {
      "inputs": [],
      "name": "getTotalWaves",
      "outputs": [
        {
          "internalType": "uint256",
          "name": "",
          "type": "uint256"
        }
      ],
      "stateMutability": "view",
      "type": "function"
    },
    {
      "inputs": [],
      "name": "lastTimeRewardApplicable",
      "outputs": [
        {
          "internalType": "uint256",
          "name": "",
          "type": "uint256"
        }
      ],
      "stateMutability": "view",
      "type": "function"
    },
    {
      "inputs": [
        {
          "internalType": "address",
          "name": "",
          "type": "address"
        }
      ],
      "name": "lastWavedAt",
      "outputs": [
        {
          "internalType": "uint256",
          "name": "",
          "type": "uint256"
        }
      ],
      "stateMutability": "view",
      "type": "function"
    },
    {
      "inputs": [
        {
          "internalType": "uint256",
          "name": "_amount",
          "type": "uint256"
        }
      ],
      "name": "notifyRewardAmount",
      "outputs": [],
      "stateMutability": "nonpayable",
      "type": "function"
    },
    {
      "inputs": [],
      "name": "owner",
      "outputs": [
        {
          "internalType": "address",
          "name": "",
          "type": "address"
        }
      ],
      "stateMutability": "view",
      "type": "function"
    },
    {
      "inputs": [],
      "name": "rewardPerToken",
      "outputs": [
        {
          "internalType": "uint256",
          "name": "",
          "type": "uint256"
        }
      ],
      "stateMutability": "view",
      "type": "function"
    },
    {
      "inputs": [],
      "name": "rewardPerTokenStored",
      "outputs": [
        {
          "internalType": "uint256",
          "name": "",
          "type": "uint256"
        }
      ],
      "stateMutability": "view",
      "type": "function"
    },
    {
      "inputs": [],
      "name": "rewardRate",
      "outputs": [
        {
          "internalType": "uint256",
          "name": "",
          "type": "uint256"
        }
      ],
      "stateMutability": "view",
      "type": "function"
    },
    {
      "inputs": [
        {
          "internalType": "address",
          "name": "",
          "type": "address"
        }
      ],
      "name": "rewards",
      "outputs": [
        {
          "internalType": "uint256",
          "name": "",
          "type": "uint256"
        }
      ],
      "stateMutability": "view",
      "type": "function"
    },
    {
      "inputs": [],
      "name": "rewardsToken",
      "outputs": [
        {
          "internalType": "contract IERC20",
          "name": "",
          "type": "address"
        }
      ],
      "stateMutability": "view",
      "type": "function"
    },
    {
      "inputs": [
        {
          "internalType": "uint256",
          "name": "_duration",
          "type": "uint256"
        }
      ],
      "name": "setRewardsDuration",
      "outputs": [],
      "stateMutability": "nonpayable",
      "type": "function"
    },
    {
      "inputs": [
        {
          "internalType": "uint256",
          "name": "_amount",
          "type": "uint256"
        }
      ],
      "name": "stake",
      "outputs": [],
      "stateMutability": "nonpayable",
      "type": "function"
    },
    {
      "inputs": [],
      "name": "stakingToken",
      "outputs": [
        {
          "internalType": "contract IERC20",
          "name": "",
          "type": "address"
        }
      ],
      "stateMutability": "view",
      "type": "function"
    },
    {
      "inputs": [
        {
          "internalType": "address",
          "name": "account",
          "type": "address"
        }
      ],
      "name": "toString",
      "outputs": [
        {
          "internalType": "string",
          "name": "",
          "type": "string"
        }
      ],
      "stateMutability": "pure",
      "type": "function"
    },
    {
      "inputs": [
        {
          "internalType": "uint256",
          "name": "value",
          "type": "uint256"
        }
      ],
      "name": "toString",
      "outputs": [
        {
          "internalType": "string",
          "name": "",
          "type": "string"
        }
      ],
      "stateMutability": "pure",
      "type": "function"
    },
    {
      "inputs": [
        {
          "internalType": "bytes",
          "name": "data",
          "type": "bytes"
        }
      ],
      "name": "toString",
      "outputs": [
        {
          "internalType": "string",
          "name": "",
          "type": "string"
        }
      ],
      "stateMutability": "pure",
      "type": "function"
    },
    {
      "inputs": [
        {
          "internalType": "bytes32",
          "name": "value",
          "type": "bytes32"
        }
      ],
      "name": "toString",
      "outputs": [
        {
          "internalType": "string",
          "name": "",
          "type": "string"
        }
      ],
      "stateMutability": "pure",
      "type": "function"
    },
    {
      "inputs": [],
      "name": "totalSupply",
      "outputs": [
        {
          "internalType": "uint256",
          "name": "",
          "type": "uint256"
        }
      ],
      "stateMutability": "view",
      "type": "function"
    },
    {
      "inputs": [],
      "name": "updatedAt",
      "outputs": [
        {
          "internalType": "uint256",
          "name": "",
          "type": "uint256"
        }
      ],
      "stateMutability": "view",
      "type": "function"
    },
    {
      "inputs": [
        {
          "internalType": "address",
          "name": "",
          "type": "address"
        }
      ],
      "name": "userRewardPerTokenPaid",
      "outputs": [
        {
          "internalType": "uint256",
          "name": "",
          "type": "uint256"
        }
      ],
      "stateMutability": "view",
      "type": "function"
    },
    {
      "inputs": [
        {
          "internalType": "string",
          "name": "_message",
          "type": "string"
        },
        {
          "internalType": "string",
          "name": "_to",
          "type": "string"
        }
      ],
      "name": "wave",
      "outputs": [],
      "stateMutability": "nonpayable",
      "type": "function"
    },
    {
      "inputs": [
        {
          "internalType": "uint256",
          "name": "_amount",
          "type": "uint256"
        }
      ],
      "name": "withdraw",
      "outputs": [],
      "stateMutability": "nonpayable",
      "type": "function"
    }
  ],
  "bytecode": "0x60c060405260405162003b1638038062003b16833981810160405281019062000029919062000214565b6200005860405180606001604052806035815260200162003ae1603591396200013160201b62001f071760201c565b60644442620000689190620002d6565b620000749190620003a7565b60018190555033600260006101000a81548173ffffffffffffffffffffffffffffffffffffffff021916908373ffffffffffffffffffffffffffffffffffffffff1602179055508173ffffffffffffffffffffffffffffffffffffffff1660808173ffffffffffffffffffffffffffffffffffffffff1660601b815250508073ffffffffffffffffffffffffffffffffffffffff1660a08173ffffffffffffffffffffffffffffffffffffffff1660601b81525050505062000468565b620001d18160405160240162000148919062000296565b6040516020818303038152906040527f41304fac000000000000000000000000000000000000000000000000000000007bffffffffffffffffffffffffffffffffffffffffffffffffffffffff19166020820180517bffffffffffffffffffffffffffffffffffffffffffffffffffffffff8381831617835250505050620001d460201b60201c565b50565b60008151905060006a636f6e736f6c652e6c6f679050602083016000808483855afa5050505050565b6000815190506200020e816200044e565b92915050565b600080604083850312156200022857600080fd5b60006200023885828601620001fd565b92505060206200024b85828601620001fd565b9150509250929050565b60006200026282620002ba565b6200026e8185620002c5565b93506200028081856020860162000371565b6200028b816200043d565b840191505092915050565b60006020820190508181036000830152620002b2818462000255565b905092915050565b600081519050919050565b600082825260208201905092915050565b6000620002e38262000367565b9150620002f08362000367565b9250827fffffffffffffffffffffffffffffffffffffffffffffffffffffffffffffffff03821115620003285762000327620003df565b5b828201905092915050565b6000620003408262000347565b9050919050565b600073ffffffffffffffffffffffffffffffffffffffff82169050919050565b6000819050919050565b60005b838110156200039157808201518184015260208101905062000374565b83811115620003a1576000848401525b50505050565b6000620003b48262000367565b9150620003c18362000367565b925082620003d457620003d36200040e565b5b828206905092915050565b7f4e487b7100000000000000000000000000000000000000000000000000000000600052601160045260246000fd5b7f4e487b7100000000000000000000000000000000000000000000000000000000600052601260045260246000fd5b6000601f19601f8301169050919050565b620004598162000333565b81146200046557600080fd5b50565b60805160601c60a05160601c61362a620004b760003960008181610b4701528181610dd6015281816118cd0152611edf0152600081816108790152818161174f0152611abf015261362a6000f3fe608060405234801561001057600080fd5b50600436106101ce5760003560e01c80637519ab5011610104578063a42a4663116100a2578063cc1a378f11610071578063cc1a378f14610545578063cd3daf9d14610561578063d1af0c7d1461057f578063df136d651461059d576101ce565b8063a42a4663146104ab578063a694fc3a146104db578063b11a19e8146104f7578063bd43a90814610527576101ce565b80638b876347116100de5780638b876347146104235780638da5cb5b146104535780639a2cdc08146104715780639b7ccf4c1461048f576101ce565b80637519ab50146103c95780637b0a47ee146103e757806380faa57d14610405576101ce565b806351872959116101715780636900a3ae1161014b5780636900a3ae1461031b57806370a082311461034b57806371aad10d1461037b57806372f702f3146103ab576101ce565b806351872959146102b157806356ca623e146102cd57806367d3b488146102fd576101ce565b806318160ddd116101ad57806318160ddd146102515780632e1a7d4d1461026f5780633c6b16ab1461028b5780633d18b912146102a7576101ce565b80628cc262146101d35780630700037d146102035780630fb5a6b414610233575b600080fd5b6101ed60048036038101906101e8919061265e565b6105bb565b6040516101fa9190612e3e565b60405180910390f35b61021d6004803603810190610218919061265e565b6106bd565b60405161022a9190612e3e565b60405180910390f35b61023b6106d5565b6040516102489190612e3e565b60405180910390f35b6102596106db565b6040516102669190612e3e565b60405180910390f35b61028960048036038101906102849190612786565b6106e1565b005b6102a560048036038101906102a09190612786565b610929565b005b6102af610c5e565b005b6102cb60048036038101906102c6919061271a565b610e87565b005b6102e760048036038101906102e2919061265e565b61127d565b6040516102f49190612c54565b60405180910390f35b6103056112ae565b6040516103129190612e3e565b60405180910390f35b61033560048036038101906103309190612786565b6112b4565b6040516103429190612c54565b60405180910390f35b6103656004803603810190610360919061265e565b6112e5565b6040516103729190612e3e565b60405180910390f35b610395600480360381019061039091906126d9565b6112fd565b6040516103a29190612c54565b60405180910390f35b6103b361174d565b6040516103c09190612c39565b60405180910390f35b6103d1611771565b6040516103de9190612e3e565b60405180910390f35b6103ef611777565b6040516103fc9190612e3e565b60405180910390f35b61040d61177d565b60405161041a9190612e3e565b60405180910390f35b61043d6004803603810190610438919061265e565b611790565b60405161044a9190612e3e565b60405180910390f35b61045b6117a8565b6040516104689190612b9c565b60405180910390f35b6104796117ce565b6040516104869190612e3e565b60405180910390f35b6104a960048036038101906104a49190612786565b6117fc565b005b6104c560048036038101906104c0919061265e565b61197e565b6040516104d29190612e3e565b60405180910390f35b6104f560048036038101906104f09190612786565b611996565b005b610511600480360381019061050c91906126b0565b611be0565b60405161051e9190612c54565b60405180910390f35b61052f611c11565b60405161053c9190612c17565b60405180910390f35b61055f600480360381019061055a9190612786565b611d94565b005b610569611e72565b6040516105769190612e3e565b60405180910390f35b610587611edd565b6040516105949190612c39565b60405180910390f35b6105a5611f01565b6040516105b29190612e3e565b60405180910390f35b6000600960008373ffffffffffffffffffffffffffffffffffffffff1673ffffffffffffffffffffffffffffffffffffffff16815260200190815260200160002054670de0b6b3a7640000600860008573ffffffffffffffffffffffffffffffffffffffff1673ffffffffffffffffffffffffffffffffffffffff1681526020019081526020016000205461064e611e72565b61065891906130a4565b600b60008673ffffffffffffffffffffffffffffffffffffffff1673ffffffffffffffffffffffffffffffffffffffff168152602001908152602001600020546106a2919061304a565b6106ac9190613019565b6106b69190612f8c565b9050919050565b60096020528060005260406000206000915090505481565b60035481565b600a5481565b336106ea611e72565b6007819055506106f861177d565b600581905550600073ffffffffffffffffffffffffffffffffffffffff168173ffffffffffffffffffffffffffffffffffffffff16146107c55761073b816105bb565b600960008373ffffffffffffffffffffffffffffffffffffffff1673ffffffffffffffffffffffffffffffffffffffff16815260200190815260200160002081905550600754600860008373ffffffffffffffffffffffffffffffffffffffff1673ffffffffffffffffffffffffffffffffffffffff168152602001908152602001600020819055505b60008211610808576040517f08c379a00000000000000000000000000000000000000000000000000000000081526004016107ff90612dfe565b60405180910390fd5b81600b60003373ffffffffffffffffffffffffffffffffffffffff1673ffffffffffffffffffffffffffffffffffffffff168152602001908152602001600020600082825461085791906130a4565b9250508190555081600a600082825461087091906130a4565b925050819055507f000000000000000000000000000000000000000000000000000000000000000073ffffffffffffffffffffffffffffffffffffffff1663a9059cbb33846040518363ffffffff1660e01b81526004016108d2929190612bee565b602060405180830381600087803b1580156108ec57600080fd5b505af1158015610900573d6000803e3d6000fd5b505050506040513d601f19601f820116820180604052508101906109249190612687565b505050565b600260009054906101000a900473ffffffffffffffffffffffffffffffffffffffff1673ffffffffffffffffffffffffffffffffffffffff163373ffffffffffffffffffffffffffffffffffffffff16146109b9576040517f08c379a00000000000000000000000000000000000000000000000000000000081526004016109b090612dbe565b60405180910390fd5b60006109c3611e72565b6007819055506109d161177d565b600581905550600073ffffffffffffffffffffffffffffffffffffffff168173ffffffffffffffffffffffffffffffffffffffff1614610a9e57610a14816105bb565b600960008373ffffffffffffffffffffffffffffffffffffffff1673ffffffffffffffffffffffffffffffffffffffff16815260200190815260200160002081905550600754600860008373ffffffffffffffffffffffffffffffffffffffff1673ffffffffffffffffffffffffffffffffffffffff168152602001908152602001600020819055505b6004544210610ac05760035482610ab59190613019565b600681905550610b00565b600060065442600454610ad391906130a4565b610add919061304a565b90506003548184610aee9190612f8c565b610af89190613019565b600681905550505b600060065411610b45576040517f08c379a0000000000000000000000000000000000000000000000000000000008152600401610b3c90612e1e565b60405180910390fd5b7f000000000000000000000000000000000000000000000000000000000000000073ffffffffffffffffffffffffffffffffffffffff166370a08231306040518263ffffffff1660e01b8152600401610b9e9190612b9c565b60206040518083038186803b158015610bb657600080fd5b505afa158015610bca573d6000803e3d6000fd5b505050506040513d601f19601f82011682018060405250810190610bee91906127af565b600354600654610bfe919061304a565b1115610c3f576040517f08c379a0000000000000000000000000000000000000000000000000000000008152600401610c3690612dde565b60405180910390fd5b60035442610c4d9190612f8c565b600481905550426005819055505050565b33610c67611e72565b600781905550610c7561177d565b600581905550600073ffffffffffffffffffffffffffffffffffffffff168173ffffffffffffffffffffffffffffffffffffffff1614610d4257610cb8816105bb565b600960008373ffffffffffffffffffffffffffffffffffffffff1673ffffffffffffffffffffffffffffffffffffffff16815260200190815260200160002081905550600754600860008373ffffffffffffffffffffffffffffffffffffffff1673ffffffffffffffffffffffffffffffffffffffff168152602001908152602001600020819055505b6000600960003373ffffffffffffffffffffffffffffffffffffffff1673ffffffffffffffffffffffffffffffffffffffff1681526020019081526020016000205490506000811115610e83576000600960003373ffffffffffffffffffffffffffffffffffffffff1673ffffffffffffffffffffffffffffffffffffffff168152602001908152602001600020819055507f000000000000000000000000000000000000000000000000000000000000000073ffffffffffffffffffffffffffffffffffffffff1663a9059cbb33836040518363ffffffff1660e01b8152600401610e2f929190612bee565b602060405180830381600087803b158015610e4957600080fd5b505af1158015610e5d573d6000803e3d6000fd5b505050506040513d601f19601f82011682018060405250810190610e819190612687565b505b5050565b4261012c600c60003373ffffffffffffffffffffffffffffffffffffffff1673ffffffffffffffffffffffffffffffffffffffff16815260200190815260200160002054610ed59190612f8c565b10610f15576040517f08c379a0000000000000000000000000000000000000000000000000000000008152600401610f0c90612d7e565b60405180910390fd5b42600c60003373ffffffffffffffffffffffffffffffffffffffff1673ffffffffffffffffffffffffffffffffffffffff168152602001908152602001600020819055506001600080828254610f6b9190612f8c565b92505081905550610f966040518060600160405280602c8152602001613580602c9139338484611fa0565b600d610fa182612042565b604051610fae9190612b55565b908152602001604051809103902060405180606001604052803373ffffffffffffffffffffffffffffffffffffffff16815260200184815260200142815250908060018154018082558091505060019003906000526020600020906003020160009091909190915060008201518160000160006101000a81548173ffffffffffffffffffffffffffffffffffffffff021916908373ffffffffffffffffffffffffffffffffffffffff1602179055506020820151816001019080519060200190611079929190612482565b506040820151816002015550503373ffffffffffffffffffffffffffffffffffffffff167f5f7e16dc676677766a70e9c5628aa6c54ddb8b6e5188e2ae1e1f17f1ffbea71642846040516110ce929190612e59565b60405180910390a2606460015442446110e79190612f8c565b6110f19190612f8c565b6110fb9190613281565b60018190555060006509184e72a000905061114b6040518060400160405280601881526020017f5b736d61727420636f6e74726163745d62616c616e63653a000000000000000081525047612304565b60326001541161118857600281611162919061304a565b90506111876040518060600160405280602881526020016135ac6028913933836123a0565b5b478111156111cb576040517f08c379a00000000000000000000000000000000000000000000000000000000081526004016111c290612d5e565b60405180910390fd5b60003373ffffffffffffffffffffffffffffffffffffffff16826040516111f190612b6c565b60006040518083038185875af1925050503d806000811461122e576040519150601f19603f3d011682016040523d82523d6000602084013e611233565b606091505b5050905080611277576040517f08c379a000000000000000000000000000000000000000000000000000000000815260040161126e90612d9e565b60405180910390fd5b50505050565b60606112a7826040516020016112939190612b1f565b6040516020818303038152906040526112fd565b9050919050565b60045481565b60606112de826040516020016112ca9190612b81565b6040516020818303038152906040526112fd565b9050919050565b600b6020528060005260406000206000915090505481565b606060006040518060400160405280601681526020017f30313233343536373839616263646566414243444546000000000000000000008152509050600060028451611349919061304a565b60026113559190612f8c565b67ffffffffffffffff811115611394577f4e487b7100000000000000000000000000000000000000000000000000000000600052604160045260246000fd5b6040519080825280601f01601f1916602001820160405280156113c65781602001600182028036833780820191505090505b5090507f300000000000000000000000000000000000000000000000000000000000000081600081518110611424577f4e487b7100000000000000000000000000000000000000000000000000000000600052603260045260246000fd5b60200101907effffffffffffffffffffffffffffffffffffffffffffffffffffffffffffff1916908160001a9053507f7800000000000000000000000000000000000000000000000000000000000000816001815181106114ae577f4e487b7100000000000000000000000000000000000000000000000000000000600052603260045260246000fd5b60200101907effffffffffffffffffffffffffffffffffffffffffffffffffffffffffffff1916908160001a90535060005b845181101561174257826004868381518110611525577f4e487b7100000000000000000000000000000000000000000000000000000000600052603260045260246000fd5b602001015160f81c60f81b7effffffffffffffffffffffffffffffffffffffffffffffffffffffffffffff1916901c60f81c60ff1681518110611591577f4e487b7100000000000000000000000000000000000000000000000000000000600052603260045260246000fd5b602001015160f81c60f81b826002836115aa919061304a565b60026115b69190612f8c565b815181106115ed577f4e487b7100000000000000000000000000000000000000000000000000000000600052603260045260246000fd5b60200101907effffffffffffffffffffffffffffffffffffffffffffffffffffffffffffff1916908160001a90535082600f60f81b86838151811061165b577f4e487b7100000000000000000000000000000000000000000000000000000000600052603260045260246000fd5b602001015160f81c60f81b1660f81c60ff16815181106116a4577f4e487b7100000000000000000000000000000000000000000000000000000000600052603260045260246000fd5b602001015160f81c60f81b826002836116bd919061304a565b60036116c99190612f8c565b81518110611700577f4e487b7100000000000000000000000000000000000000000000000000000000600052603260045260246000fd5b60200101907effffffffffffffffffffffffffffffffffffffffffffffffffffffffffffff1916908160001a905350808061173a90613200565b9150506114e0565b508092505050919050565b7f000000000000000000000000000000000000000000000000000000000000000081565b60055481565b60065481565b600061178b6004544261243f565b905090565b60086020528060005260406000206000915090505481565b600260009054906101000a900473ffffffffffffffffffffffffffffffffffffffff1681565b60006117f46040518060600160405280602181526020016135d460219139600054612304565b600054905090565b600260009054906101000a900473ffffffffffffffffffffffffffffffffffffffff1673ffffffffffffffffffffffffffffffffffffffff163373ffffffffffffffffffffffffffffffffffffffff161461188c576040517f08c379a000000000000000000000000000000000000000000000000000000000815260040161188390612dbe565b60405180910390fd5b6118cb6040518060400160405280600c81526020017f616464204847546f6b656e3a000000000000000000000000000000000000000081525082612304565b7f000000000000000000000000000000000000000000000000000000000000000073ffffffffffffffffffffffffffffffffffffffff166323b872dd3330846040518463ffffffff1660e01b815260040161192893929190612bb7565b602060405180830381600087803b15801561194257600080fd5b505af1158015611956573d6000803e3d6000fd5b505050506040513d601f19601f8201168201806040525081019061197a9190612687565b5050565b600c6020528060005260406000206000915090505481565b3361199f611e72565b6007819055506119ad61177d565b600581905550600073ffffffffffffffffffffffffffffffffffffffff168173ffffffffffffffffffffffffffffffffffffffff1614611a7a576119f0816105bb565b600960008373ffffffffffffffffffffffffffffffffffffffff1673ffffffffffffffffffffffffffffffffffffffff16815260200190815260200160002081905550600754600860008373ffffffffffffffffffffffffffffffffffffffff1673ffffffffffffffffffffffffffffffffffffffff168152602001908152602001600020819055505b60008211611abd576040517f08c379a0000000000000000000000000000000000000000000000000000000008152600401611ab490612dfe565b60405180910390fd5b7f000000000000000000000000000000000000000000000000000000000000000073ffffffffffffffffffffffffffffffffffffffff166323b872dd3330856040518463ffffffff1660e01b8152600401611b1a93929190612bb7565b602060405180830381600087803b158015611b3457600080fd5b505af1158015611b48573d6000803e3d6000fd5b505050506040513d601f19601f82011682018060405250810190611b6c9190612687565b5081600b60003373ffffffffffffffffffffffffffffffffffffffff1673ffffffffffffffffffffffffffffffffffffffff1681526020019081526020016000206000828254611bbc9190612f8c565b9250508190555081600a6000828254611bd59190612f8c565b925050819055505050565b6060611c0a82604051602001611bf69190612b3a565b6040516020818303038152906040526112fd565b9050919050565b60606000600d611c28611c233361127d565b612042565b604051611c359190612b55565b9081526020016040518091039020805480602002602001604051908101604052809291908181526020016000905b82821015611d8757838290600052602060002090600302016040518060600160405290816000820160009054906101000a900473ffffffffffffffffffffffffffffffffffffffff1673ffffffffffffffffffffffffffffffffffffffff1673ffffffffffffffffffffffffffffffffffffffff168152602001600182018054611cec9061319d565b80601f0160208091040260200160405190810160405280929190818152602001828054611d189061319d565b8015611d655780601f10611d3a57610100808354040283529160200191611d65565b820191906000526020600020905b815481529060010190602001808311611d4857829003601f168201915b5050505050815260200160028201548152505081526020019060010190611c63565b5050505090508091505090565b600260009054906101000a900473ffffffffffffffffffffffffffffffffffffffff1673ffffffffffffffffffffffffffffffffffffffff163373ffffffffffffffffffffffffffffffffffffffff1614611e24576040517f08c379a0000000000000000000000000000000000000000000000000000000008152600401611e1b90612dbe565b60405180910390fd5b4260045410611e68576040517f08c379a0000000000000000000000000000000000000000000000000000000008152600401611e5f90612d3e565b60405180910390fd5b8060038190555050565b600080600a541415611e88576007549050611eda565b600a54670de0b6b3a7640000600554611e9f61177d565b611ea991906130a4565b600654611eb6919061304a565b611ec0919061304a565b611eca9190613019565b600754611ed79190612f8c565b90505b90565b7f000000000000000000000000000000000000000000000000000000000000000081565b60075481565b611f9d81604051602401611f1b9190612c54565b6040516020818303038152906040527f41304fac000000000000000000000000000000000000000000000000000000007bffffffffffffffffffffffffffffffffffffffffffffffffffffffff19166020820180517bffffffffffffffffffffffffffffffffffffffffffffffffffffffff8381831617835250505050612459565b50565b61203c84848484604051602401611fba9493929190612c76565b6040516020818303038152906040527f245986f2000000000000000000000000000000000000000000000000000000007bffffffffffffffffffffffffffffffffffffffffffffffffffffffff19166020820180517bffffffffffffffffffffffffffffffffffffffffffffffffffffffff8381831617835250505050612459565b50505050565b606060008290506000815167ffffffffffffffff81111561208c577f4e487b7100000000000000000000000000000000000000000000000000000000600052604160045260246000fd5b6040519080825280601f01601f1916602001820160405280156120be5781602001600182028036833780820191505090505b50905060005b82518110156122f9576041838281518110612108577f4e487b7100000000000000000000000000000000000000000000000000000000600052603260045260246000fd5b602001015160f81c60f81b60f81c60ff16101580156121715750605a83828151811061215d577f4e487b7100000000000000000000000000000000000000000000000000000000600052603260045260246000fd5b602001015160f81c60f81b60f81c60ff1611155b156122395760208382815181106121b1577f4e487b7100000000000000000000000000000000000000000000000000000000600052603260045260246000fd5b602001015160f81c60f81b60f81c6121c99190612fe2565b60f81b828281518110612205577f4e487b7100000000000000000000000000000000000000000000000000000000600052603260045260246000fd5b60200101907effffffffffffffffffffffffffffffffffffffffffffffffffffffffffffff1916908160001a9053506122e6565b828181518110612272577f4e487b7100000000000000000000000000000000000000000000000000000000600052603260045260246000fd5b602001015160f81c60f81b8282815181106122b6577f4e487b7100000000000000000000000000000000000000000000000000000000600052603260045260246000fd5b60200101907effffffffffffffffffffffffffffffffffffffffffffffffffffffffffffff1916908160001a9053505b80806122f190613200565b9150506120c4565b508092505050919050565b61239c828260405160240161231a929190612d0e565b6040516020818303038152906040527fb60e72cc000000000000000000000000000000000000000000000000000000007bffffffffffffffffffffffffffffffffffffffffffffffffffffffff19166020820180517bffffffffffffffffffffffffffffffffffffffffffffffffffffffff8381831617835250505050612459565b5050565b61243a8383836040516024016123b893929190612cd0565b6040516020818303038152906040527f0d26b925000000000000000000000000000000000000000000000000000000007bffffffffffffffffffffffffffffffffffffffffffffffffffffffff19166020820180517bffffffffffffffffffffffffffffffffffffffffffffffffffffffff8381831617835250505050612459565b505050565b60008183111561244f5781612451565b825b905092915050565b60008151905060006a636f6e736f6c652e6c6f679050602083016000808483855afa5050505050565b82805461248e9061319d565b90600052602060002090601f0160209004810192826124b057600085556124f7565b82601f106124c957805160ff19168380011785556124f7565b828001600101855582156124f7579182015b828111156124f65782518255916020019190600101906124db565b5b5090506125049190612508565b5090565b5b80821115612521576000816000905550600101612509565b5090565b600061253861253384612eae565b612e89565b90508281526020810184848401111561255057600080fd5b61255b84828561315b565b509392505050565b600061257661257184612edf565b612e89565b90508281526020810184848401111561258e57600080fd5b61259984828561315b565b509392505050565b6000813590506125b081613523565b92915050565b6000815190506125c58161353a565b92915050565b6000813590506125da81613551565b92915050565b600082601f8301126125f157600080fd5b8135612601848260208601612525565b91505092915050565b600082601f83011261261b57600080fd5b813561262b848260208601612563565b91505092915050565b60008135905061264381613568565b92915050565b60008151905061265881613568565b92915050565b60006020828403121561267057600080fd5b600061267e848285016125a1565b91505092915050565b60006020828403121561269957600080fd5b60006126a7848285016125b6565b91505092915050565b6000602082840312156126c257600080fd5b60006126d0848285016125cb565b91505092915050565b6000602082840312156126eb57600080fd5b600082013567ffffffffffffffff81111561270557600080fd5b612711848285016125e0565b91505092915050565b6000806040838503121561272d57600080fd5b600083013567ffffffffffffffff81111561274757600080fd5b6127538582860161260a565b925050602083013567ffffffffffffffff81111561277057600080fd5b61277c8582860161260a565b9150509250929050565b60006020828403121561279857600080fd5b60006127a684828501612634565b91505092915050565b6000602082840312156127c157600080fd5b60006127cf84828501612649565b91505092915050565b60006127e48383612a9a565b905092915050565b6127f5816130d8565b82525050565b612804816130d8565b82525050565b61281b612816826130d8565b613249565b82525050565b600061282c82612f20565b6128368185612f43565b93508360208202850161284885612f10565b8060005b85811015612884578484038952815161286585826127d8565b945061287083612f36565b925060208a0199505060018101905061284c565b50829750879550505050505092915050565b6128a76128a2826130f6565b61325b565b82525050565b6128b681613137565b82525050565b60006128c782612f2b565b6128d18185612f5f565b93506128e181856020860161316a565b6128ea8161336e565b840191505092915050565b600061290082612f2b565b61290a8185612f70565b935061291a81856020860161316a565b6129238161336e565b840191505092915050565b600061293982612f2b565b6129438185612f81565b935061295381856020860161316a565b80840191505092915050565b600061296c601c83612f70565b91506129778261338c565b602082019050919050565b600061298f603483612f70565b915061299a826133b5565b604082019050919050565b60006129b2601a83612f70565b91506129bd82613404565b602082019050919050565b60006129d5602783612f70565b91506129e08261342d565b604082019050919050565b60006129f8600e83612f70565b9150612a038261347c565b602082019050919050565b6000612a1b600083612f54565b9150612a26826134a5565b600082019050919050565b6000612a3e601783612f70565b9150612a49826134a8565b602082019050919050565b6000612a61600a83612f70565b9150612a6c826134d1565b602082019050919050565b6000612a84600f83612f70565b9150612a8f826134fa565b602082019050919050565b6000606083016000830151612ab260008601826127ec565b5060208301518482036020860152612aca82826128bc565b9150506040830151612adf6040860182612aea565b508091505092915050565b612af381613120565b82525050565b612b0281613120565b82525050565b612b19612b1482613120565b613277565b82525050565b6000612b2b828461280a565b60148201915081905092915050565b6000612b468284612896565b60208201915081905092915050565b6000612b61828461292e565b915081905092915050565b6000612b7782612a0e565b9150819050919050565b6000612b8d8284612b08565b60208201915081905092915050565b6000602082019050612bb160008301846127fb565b92915050565b6000606082019050612bcc60008301866127fb565b612bd960208301856127fb565b612be66040830184612af9565b949350505050565b6000604082019050612c0360008301856127fb565b612c106020830184612af9565b9392505050565b60006020820190508181036000830152612c318184612821565b905092915050565b6000602082019050612c4e60008301846128ad565b92915050565b60006020820190508181036000830152612c6e81846128f5565b905092915050565b60006080820190508181036000830152612c9081876128f5565b9050612c9f60208301866127fb565b8181036040830152612cb181856128f5565b90508181036060830152612cc581846128f5565b905095945050505050565b60006060820190508181036000830152612cea81866128f5565b9050612cf960208301856127fb565b612d066040830184612af9565b949350505050565b60006040820190508181036000830152612d2881856128f5565b9050612d376020830184612af9565b9392505050565b60006020820190508181036000830152612d578161295f565b9050919050565b60006020820190508181036000830152612d7781612982565b9050919050565b60006020820190508181036000830152612d97816129a5565b9050919050565b60006020820190508181036000830152612db7816129c8565b9050919050565b60006020820190508181036000830152612dd7816129eb565b9050919050565b60006020820190508181036000830152612df781612a31565b9050919050565b60006020820190508181036000830152612e1781612a54565b9050919050565b60006020820190508181036000830152612e3781612a77565b9050919050565b6000602082019050612e536000830184612af9565b92915050565b6000604082019050612e6e6000830185612af9565b8181036020830152612e8081846128f5565b90509392505050565b6000612e93612ea4565b9050612e9f82826131cf565b919050565b6000604051905090565b600067ffffffffffffffff821115612ec957612ec861333f565b5b612ed28261336e565b9050602081019050919050565b600067ffffffffffffffff821115612efa57612ef961333f565b5b612f038261336e565b9050602081019050919050565b6000819050602082019050919050565b600081519050919050565b600081519050919050565b6000602082019050919050565b600082825260208201905092915050565b600081905092915050565b600082825260208201905092915050565b600082825260208201905092915050565b600081905092915050565b6000612f9782613120565b9150612fa283613120565b9250827fffffffffffffffffffffffffffffffffffffffffffffffffffffffffffffffff03821115612fd757612fd66132b2565b5b828201905092915050565b6000612fed8261312a565b9150612ff88361312a565b92508260ff0382111561300e5761300d6132b2565b5b828201905092915050565b600061302482613120565b915061302f83613120565b92508261303f5761303e6132e1565b5b828204905092915050565b600061305582613120565b915061306083613120565b9250817fffffffffffffffffffffffffffffffffffffffffffffffffffffffffffffffff0483118215151615613099576130986132b2565b5b828202905092915050565b60006130af82613120565b91506130ba83613120565b9250828210156130cd576130cc6132b2565b5b828203905092915050565b60006130e382613100565b9050919050565b60008115159050919050565b6000819050919050565b600073ffffffffffffffffffffffffffffffffffffffff82169050919050565b6000819050919050565b600060ff82169050919050565b600061314282613149565b9050919050565b600061315482613100565b9050919050565b82818337600083830152505050565b60005b8381101561318857808201518184015260208101905061316d565b83811115613197576000848401525b50505050565b600060028204905060018216806131b557607f821691505b602082108114156131c9576131c8613310565b5b50919050565b6131d88261336e565b810181811067ffffffffffffffff821117156131f7576131f661333f565b5b80604052505050565b600061320b82613120565b91507fffffffffffffffffffffffffffffffffffffffffffffffffffffffffffffffff82141561323e5761323d6132b2565b5b600182019050919050565b600061325482613265565b9050919050565b6000819050919050565b60006132708261337f565b9050919050565b6000819050919050565b600061328c82613120565b915061329783613120565b9250826132a7576132a66132e1565b5b828206905092915050565b7f4e487b7100000000000000000000000000000000000000000000000000000000600052601160045260246000fd5b7f4e487b7100000000000000000000000000000000000000000000000000000000600052601260045260246000fd5b7f4e487b7100000000000000000000000000000000000000000000000000000000600052602260045260246000fd5b7f4e487b7100000000000000000000000000000000000000000000000000000000600052604160045260246000fd5b6000601f19601f8301169050919050565b60008160601b9050919050565b7f726577617264206475726174696f6e206e6f742066696e697368656400000000600082015250565b7f547279696e6720746f207769746864726177206d6f7265206d6f6e657920746860008201527f616e2074686520636f6e7472616374206861732e000000000000000000000000602082015250565b7f5b736d61727420636f6e74726163745d5761697420356d696e73000000000000600082015250565b7f4661696c656420746f207769746864726177206d6f6e65792066726f6d20636f60008201527f6e74726163742e00000000000000000000000000000000000000000000000000602082015250565b7f6e6f7420617574686f72697a6564000000000000000000000000000000000000600082015250565b50565b7f72657761726420616d6f756e74203e2062616c616e6365000000000000000000600082015250565b7f616d6f756e74203d203000000000000000000000000000000000000000000000600082015250565b7f7265776172642072617465203d20300000000000000000000000000000000000600082015250565b61352c816130d8565b811461353757600080fd5b50565b613543816130ea565b811461354e57600080fd5b50565b61355a816130f6565b811461356557600080fd5b50565b61357181613120565b811461357c57600080fd5b5056fe5b736d61727420636f6e74726163745d257320776176656420772f206d65737361676520257320746f2025735b736d61727420636f6e74726163745d257320776f6e21205265776172642076616c75653a2025735b736d61727420636f6e74726163745d5765206861766520256420776176657321a2646970667358221220ebf27a6712d876d7763d848e5583ccec8f8ea75fd0005af6fbebf92649dc4e3f64736f6c634300080400335b736d61727420636f6e74726163745d596f20796f2c204920616d206120636f6e747261637420616e64204920616d20736d617274",
  "linkReferences": {},
  "deployedLinkReferences": {}
}