{
  "_format": "hh-sol-artifact-1",
  "contractName": "WavePortal",
  "sourceName": "contracts/WavePortal.sol",
  "abi": [
    {
      "inputs": [],
      "stateMutability": "nonpayable",
      "type": "constructor"
    },
    {
      "inputs": [],
      "name": "getSendersWaves",
      "outputs": [
        {
          "internalType": "uint256",
          "name": "",
          "type": "uint256"
        }
      ],
      "stateMutability": "view",
      "type": "function"
    },
    {
      "inputs": [],
      "name": "getTotalWaves",
      "outputs": [
        {
          "internalType": "uint256",
          "name": "",
          "type": "uint256"
        }
      ],
      "stateMutability": "view",
      "type": "function"
    },
    {
      "inputs": [
        {
          "internalType": "address",
          "name": "",
          "type": "address"
        }
      ],
      "name": "senders",
      "outputs": [
        {
          "internalType": "uint256",
          "name": "",
          "type": "uint256"
        }
      ],
      "stateMutability": "view",
      "type": "function"
    },
    {
      "inputs": [],
      "name": "wave",
      "outputs": [],
      "stateMutability": "nonpayable",
      "type": "function"
    }
  ],
  "bytecode": "0x608060405234801561001057600080fd5b5061003c6040518060600160405280602581526020016109a06025913961004160201b6102561760201c565b6101c4565b6100dd816040516024016100559190610142565b6040516020818303038152906040527f41304fac000000000000000000000000000000000000000000000000000000007bffffffffffffffffffffffffffffffffffffffffffffffffffffffff19166020820180517bffffffffffffffffffffffffffffffffffffffffffffffffffffffff83818316178352505050506100e060201b60201c565b50565b60008151905060006a636f6e736f6c652e6c6f679050602083016000808483855afa5050505050565b600061011482610164565b61011e818561016f565b935061012e818560208601610180565b610137816101b3565b840191505092915050565b6000602082019050818103600083015261015c8184610109565b905092915050565b600081519050919050565b600082825260208201905092915050565b60005b8381101561019e578082015181840152602081019050610183565b838111156101ad576000848401525b50505050565b6000601f19601f8301169050919050565b6107cd806101d36000396000f3fe608060405234801561001057600080fd5b506004361061004c5760003560e01c80636fe15b4414610051578063982fb9d81461005b5780639a2cdc081461008b578063a1d57819146100a9575b600080fd5b6100596100c7565b005b61007560048036038101906100709190610504565b610167565b6040516100829190610644565b60405180910390f35b61009361017f565b6040516100a09190610644565b60405180910390f35b6100b16101ca565b6040516100be9190610644565b60405180910390f35b60016000808282546100d9919061067b565b92505081905550600054600160003373ffffffffffffffffffffffffffffffffffffffff1673ffffffffffffffffffffffffffffffffffffffff168152602001908152602001600020819055506101656040518060400160405280600d81526020017f2573206861732077617665642100000000000000000000000000000000000000815250336102ef565b565b60016020528060005260406000206000915090505481565b60006101c26040518060400160405280601781526020017f5765206861766520256420746f74616c2077617665732100000000000000000081525060005461038b565b600054905090565b600080600160003373ffffffffffffffffffffffffffffffffffffffff1673ffffffffffffffffffffffffffffffffffffffff16815260200190815260200160002054905061024f6040518060400160405280600f81526020017f25732077617665642061742025642100000000000000000000000000000000008152503383610427565b8091505090565b6102ec8160405160240161026a9190610584565b6040516020818303038152906040527f41304fac000000000000000000000000000000000000000000000000000000007bffffffffffffffffffffffffffffffffffffffffffffffffffffffff19166020820180517bffffffffffffffffffffffffffffffffffffffffffffffffffffffff83818316178352505050506104c6565b50565b61038782826040516024016103059291906105a6565b6040516020818303038152906040527f319af333000000000000000000000000000000000000000000000000000000007bffffffffffffffffffffffffffffffffffffffffffffffffffffffff19166020820180517bffffffffffffffffffffffffffffffffffffffffffffffffffffffff83818316178352505050506104c6565b5050565b61042382826040516024016103a1929190610614565b6040516020818303038152906040527fb60e72cc000000000000000000000000000000000000000000000000000000007bffffffffffffffffffffffffffffffffffffffffffffffffffffffff19166020820180517bffffffffffffffffffffffffffffffffffffffffffffffffffffffff83818316178352505050506104c6565b5050565b6104c183838360405160240161043f939291906105d6565b6040516020818303038152906040527f0d26b925000000000000000000000000000000000000000000000000000000007bffffffffffffffffffffffffffffffffffffffffffffffffffffffff19166020820180517bffffffffffffffffffffffffffffffffffffffffffffffffffffffff83818316178352505050506104c6565b505050565b60008151905060006a636f6e736f6c652e6c6f679050602083016000808483855afa5050505050565b6000813590506104fe81610780565b92915050565b60006020828403121561051657600080fd5b6000610524848285016104ef565b91505092915050565b610536816106d1565b82525050565b60006105478261065f565b610551818561066a565b935061056181856020860161070d565b61056a8161076f565b840191505092915050565b61057e81610703565b82525050565b6000602082019050818103600083015261059e818461053c565b905092915050565b600060408201905081810360008301526105c0818561053c565b90506105cf602083018461052d565b9392505050565b600060608201905081810360008301526105f0818661053c565b90506105ff602083018561052d565b61060c6040830184610575565b949350505050565b6000604082019050818103600083015261062e818561053c565b905061063d6020830184610575565b9392505050565b60006020820190506106596000830184610575565b92915050565b600081519050919050565b600082825260208201905092915050565b600061068682610703565b915061069183610703565b9250827fffffffffffffffffffffffffffffffffffffffffffffffffffffffffffffffff038211156106c6576106c5610740565b5b828201905092915050565b60006106dc826106e3565b9050919050565b600073ffffffffffffffffffffffffffffffffffffffff82169050919050565b6000819050919050565b60005b8381101561072b578082015181840152602081019050610710565b8381111561073a576000848401525b50505050565b7f4e487b7100000000000000000000000000000000000000000000000000000000600052601160045260246000fd5b6000601f19601f8301169050919050565b610789816106d1565b811461079457600080fd5b5056fea26469706673582212204b867e7f9af7189bceb37b8126a626189fe08d94340fb1927d32edf5dbd43d9264736f6c63430008040033596f20796f2c204920616d206120636f6e747261637420616e64204920616d20736d617274",
  "linkReferences": {},
  "deployedLinkReferences": {}
}