{
  "_format": "hh-sol-artifact-1",
  "contractName": "WavePortal",
  "sourceName": "contracts/WavePortal.sol",
  "abi": [
    {
      "inputs": [
        {
          "internalType": "address",
          "name": "_stakingToken",
          "type": "address"
        },
        {
          "internalType": "address",
          "name": "_rewardToken",
          "type": "address"
        },
        {
          "internalType": "address",
          "name": "_houseNFT",
          "type": "address"
        },
        {
          "internalType": "address",
          "name": "_rentalNFT",
          "type": "address"
        }
      ],
      "stateMutability": "payable",
      "type": "constructor"
    },
    {
      "anonymous": false,
      "inputs": [
        {
          "indexed": true,
          "internalType": "address",
          "name": "from",
          "type": "address"
        },
        {
          "indexed": false,
          "internalType": "uint256",
          "name": "timestamp",
          "type": "uint256"
        },
        {
          "indexed": false,
          "internalType": "string",
          "name": "message",
          "type": "string"
        }
      ],
      "name": "NewWave",
      "type": "event"
    },
    {
      "inputs": [
        {
          "internalType": "uint256",
          "name": "_amount",
          "type": "uint256"
        }
      ],
      "name": "addRewardAmount",
      "outputs": [],
      "stateMutability": "nonpayable",
      "type": "function"
    },
    {
      "inputs": [
        {
          "internalType": "uint256",
          "name": "_amount",
          "type": "uint256"
        },
        {
          "internalType": "address",
          "name": "whoPaid",
          "type": "address"
        },
        {
          "internalType": "uint256",
          "name": "id",
          "type": "uint256"
        }
      ],
      "name": "agree",
      "outputs": [],
      "stateMutability": "nonpayable",
      "type": "function"
    },
    {
      "inputs": [
        {
          "internalType": "string",
          "name": "tokenURI",
          "type": "string"
        },
        {
          "internalType": "uint256",
          "name": "newItemId",
          "type": "uint256"
        }
      ],
      "name": "awardItem",
      "outputs": [
        {
          "internalType": "uint256",
          "name": "",
          "type": "uint256"
        }
      ],
      "stateMutability": "nonpayable",
      "type": "function"
    },
    {
      "inputs": [
        {
          "internalType": "address",
          "name": "",
          "type": "address"
        }
      ],
      "name": "balanceOf",
      "outputs": [
        {
          "internalType": "uint256",
          "name": "",
          "type": "uint256"
        }
      ],
      "stateMutability": "view",
      "type": "function"
    },
    {
      "inputs": [],
      "name": "duration",
      "outputs": [
        {
          "internalType": "uint256",
          "name": "",
          "type": "uint256"
        }
      ],
      "stateMutability": "view",
      "type": "function"
    },
    {
      "inputs": [
        {
          "internalType": "address",
          "name": "_account",
          "type": "address"
        }
      ],
      "name": "earned",
      "outputs": [
        {
          "internalType": "uint256",
          "name": "",
          "type": "uint256"
        }
      ],
      "stateMutability": "view",
      "type": "function"
    },
    {
      "inputs": [],
      "name": "finishAt",
      "outputs": [
        {
          "internalType": "uint256",
          "name": "",
          "type": "uint256"
        }
      ],
      "stateMutability": "view",
      "type": "function"
    },
    {
      "inputs": [],
      "name": "getAccountDetails",
      "outputs": [
        {
          "internalType": "uint256",
          "name": "",
          "type": "uint256"
        },
        {
          "internalType": "uint256",
          "name": "",
          "type": "uint256"
        },
        {
          "internalType": "uint256",
          "name": "",
          "type": "uint256"
        },
        {
          "internalType": "uint256",
          "name": "",
          "type": "uint256"
        },
        {
          "internalType": "uint256",
          "name": "",
          "type": "uint256"
        },
        {
          "internalType": "uint256",
          "name": "",
          "type": "uint256"
        }
      ],
      "stateMutability": "view",
      "type": "function"
    },
    {
      "inputs": [],
      "name": "getAllWaves",
      "outputs": [
        {
          "components": [
            {
              "internalType": "address",
              "name": "waver",
              "type": "address"
            },
            {
              "internalType": "string",
              "name": "message",
              "type": "string"
            },
            {
              "internalType": "uint256",
              "name": "timestamp",
              "type": "uint256"
            }
          ],
          "internalType": "struct WavePortal.Wave[]",
          "name": "",
          "type": "tuple[]"
        }
      ],
      "stateMutability": "view",
      "type": "function"
    },
    {
      "inputs": [
        {
          "internalType": "uint256",
          "name": "id",
          "type": "uint256"
        }
      ],
      "name": "getAllWhoPaid",
      "outputs": [
        {
          "components": [
            {
              "internalType": "address",
              "name": "tenant",
              "type": "address"
            },
            {
              "internalType": "uint256",
              "name": "amount",
              "type": "uint256"
            },
            {
              "internalType": "uint256",
              "name": "timestamp",
              "type": "uint256"
            }
          ],
          "internalType": "struct WavePortal.WhoPaid[]",
          "name": "",
          "type": "tuple[]"
        }
      ],
      "stateMutability": "view",
      "type": "function"
    },
    {
      "inputs": [],
      "name": "getReward",
      "outputs": [],
      "stateMutability": "nonpayable",
      "type": "function"
    },
    {
      "inputs": [],
      "name": "getTotalWaves",
      "outputs": [
        {
          "internalType": "uint256",
          "name": "",
          "type": "uint256"
        }
      ],
      "stateMutability": "view",
      "type": "function"
    },
    {
      "inputs": [],
      "name": "houseNFT",
      "outputs": [
        {
          "internalType": "contract House",
          "name": "",
          "type": "address"
        }
      ],
      "stateMutability": "view",
      "type": "function"
    },
    {
      "inputs": [],
      "name": "lastTimeRewardApplicable",
      "outputs": [
        {
          "internalType": "uint256",
          "name": "",
          "type": "uint256"
        }
      ],
      "stateMutability": "view",
      "type": "function"
    },
    {
      "inputs": [
        {
          "internalType": "address",
          "name": "",
          "type": "address"
        }
      ],
      "name": "lastWavedAt",
      "outputs": [
        {
          "internalType": "uint256",
          "name": "",
          "type": "uint256"
        }
      ],
      "stateMutability": "view",
      "type": "function"
    },
    {
      "inputs": [
        {
          "internalType": "uint256",
          "name": "_amount",
          "type": "uint256"
        }
      ],
      "name": "notifyRewardAmount",
      "outputs": [],
      "stateMutability": "nonpayable",
      "type": "function"
    },
    {
      "inputs": [],
      "name": "owner",
      "outputs": [
        {
          "internalType": "address",
          "name": "",
          "type": "address"
        }
      ],
      "stateMutability": "view",
      "type": "function"
    },
    {
      "inputs": [
        {
          "internalType": "uint256",
          "name": "_amount",
          "type": "uint256"
        },
        {
          "internalType": "uint256",
          "name": "id",
          "type": "uint256"
        }
      ],
      "name": "paid",
      "outputs": [],
      "stateMutability": "nonpayable",
      "type": "function"
    },
    {
      "inputs": [],
      "name": "rentalNFT",
      "outputs": [
        {
          "internalType": "contract Rental",
          "name": "",
          "type": "address"
        }
      ],
      "stateMutability": "view",
      "type": "function"
    },
    {
      "inputs": [],
      "name": "rewardPerToken",
      "outputs": [
        {
          "internalType": "uint256",
          "name": "",
          "type": "uint256"
        }
      ],
      "stateMutability": "view",
      "type": "function"
    },
    {
      "inputs": [],
      "name": "rewardPerTokenStored",
      "outputs": [
        {
          "internalType": "uint256",
          "name": "",
          "type": "uint256"
        }
      ],
      "stateMutability": "view",
      "type": "function"
    },
    {
      "inputs": [],
      "name": "rewardRate",
      "outputs": [
        {
          "internalType": "uint256",
          "name": "",
          "type": "uint256"
        }
      ],
      "stateMutability": "view",
      "type": "function"
    },
    {
      "inputs": [
        {
          "internalType": "address",
          "name": "",
          "type": "address"
        }
      ],
      "name": "rewards",
      "outputs": [
        {
          "internalType": "uint256",
          "name": "",
          "type": "uint256"
        }
      ],
      "stateMutability": "view",
      "type": "function"
    },
    {
      "inputs": [],
      "name": "rewardsToken",
      "outputs": [
        {
          "internalType": "contract IERC20",
          "name": "",
          "type": "address"
        }
      ],
      "stateMutability": "view",
      "type": "function"
    },
    {
      "inputs": [
        {
          "internalType": "uint256",
          "name": "_duration",
          "type": "uint256"
        }
      ],
      "name": "setRewardsDuration",
      "outputs": [],
      "stateMutability": "nonpayable",
      "type": "function"
    },
    {
      "inputs": [
        {
          "internalType": "uint256",
          "name": "_amount",
          "type": "uint256"
        }
      ],
      "name": "stake",
      "outputs": [],
      "stateMutability": "nonpayable",
      "type": "function"
    },
    {
      "inputs": [],
      "name": "stakingToken",
      "outputs": [
        {
          "internalType": "contract IERC20",
          "name": "",
          "type": "address"
        }
      ],
      "stateMutability": "view",
      "type": "function"
    },
    {
      "inputs": [
        {
          "internalType": "address",
          "name": "account",
          "type": "address"
        }
      ],
      "name": "toString",
      "outputs": [
        {
          "internalType": "string",
          "name": "",
          "type": "string"
        }
      ],
      "stateMutability": "pure",
      "type": "function"
    },
    {
      "inputs": [
        {
          "internalType": "uint256",
          "name": "value",
          "type": "uint256"
        }
      ],
      "name": "toString",
      "outputs": [
        {
          "internalType": "string",
          "name": "",
          "type": "string"
        }
      ],
      "stateMutability": "pure",
      "type": "function"
    },
    {
      "inputs": [
        {
          "internalType": "bytes",
          "name": "data",
          "type": "bytes"
        }
      ],
      "name": "toString",
      "outputs": [
        {
          "internalType": "string",
          "name": "",
          "type": "string"
        }
      ],
      "stateMutability": "pure",
      "type": "function"
    },
    {
      "inputs": [
        {
          "internalType": "bytes32",
          "name": "value",
          "type": "bytes32"
        }
      ],
      "name": "toString",
      "outputs": [
        {
          "internalType": "string",
          "name": "",
          "type": "string"
        }
      ],
      "stateMutability": "pure",
      "type": "function"
    },
    {
      "inputs": [],
      "name": "totalSupply",
      "outputs": [
        {
          "internalType": "uint256",
          "name": "",
          "type": "uint256"
        }
      ],
      "stateMutability": "view",
      "type": "function"
    },
    {
      "inputs": [],
      "name": "updatedAt",
      "outputs": [
        {
          "internalType": "uint256",
          "name": "",
          "type": "uint256"
        }
      ],
      "stateMutability": "view",
      "type": "function"
    },
    {
      "inputs": [
        {
          "internalType": "address",
          "name": "",
          "type": "address"
        }
      ],
      "name": "userRewardPerTokenPaid",
      "outputs": [
        {
          "internalType": "uint256",
          "name": "",
          "type": "uint256"
        }
      ],
      "stateMutability": "view",
      "type": "function"
    },
    {
      "inputs": [
        {
          "internalType": "string",
          "name": "_message",
          "type": "string"
        },
        {
          "internalType": "string",
          "name": "_to",
          "type": "string"
        }
      ],
      "name": "wave",
      "outputs": [],
      "stateMutability": "nonpayable",
      "type": "function"
    },
    {
      "inputs": [
        {
          "internalType": "uint256",
          "name": "_amount",
          "type": "uint256"
        }
      ],
      "name": "withdraw",
      "outputs": [],
      "stateMutability": "nonpayable",
      "type": "function"
    }
  ],
  "bytecode": "0x61010060405260405162004d1f38038062004d1f83398181016040528101906200002a919062000285565b6200005960405180606001604052806035815260200162004cea60359139620001a260201b62002bec1760201c565b6064444262000069919062000372565b62000075919062000443565b60018190555033600360006101000a81548173ffffffffffffffffffffffffffffffffffffffff021916908373ffffffffffffffffffffffffffffffffffffffff1602179055508373ffffffffffffffffffffffffffffffffffffffff1660808173ffffffffffffffffffffffffffffffffffffffff1660601b815250508273ffffffffffffffffffffffffffffffffffffffff1660a08173ffffffffffffffffffffffffffffffffffffffff1660601b815250508173ffffffffffffffffffffffffffffffffffffffff1660c08173ffffffffffffffffffffffffffffffffffffffff1660601b815250508073ffffffffffffffffffffffffffffffffffffffff1660e08173ffffffffffffffffffffffffffffffffffffffff1660601b815250505050505062000504565b6200024281604051602401620001b9919062000332565b6040516020818303038152906040527f41304fac000000000000000000000000000000000000000000000000000000007bffffffffffffffffffffffffffffffffffffffffffffffffffffffff19166020820180517bffffffffffffffffffffffffffffffffffffffffffffffffffffffff83818316178352505050506200024560201b60201c565b50565b60008151905060006a636f6e736f6c652e6c6f679050602083016000808483855afa5050505050565b6000815190506200027f81620004ea565b92915050565b600080600080608085870312156200029c57600080fd5b6000620002ac878288016200026e565b9450506020620002bf878288016200026e565b9350506040620002d2878288016200026e565b9250506060620002e5878288016200026e565b91505092959194509250565b6000620002fe8262000356565b6200030a818562000361565b93506200031c8185602086016200040d565b6200032781620004d9565b840191505092915050565b600060208201905081810360008301526200034e8184620002f1565b905092915050565b600081519050919050565b600082825260208201905092915050565b60006200037f8262000403565b91506200038c8362000403565b9250827fffffffffffffffffffffffffffffffffffffffffffffffffffffffffffffffff03821115620003c457620003c36200047b565b5b828201905092915050565b6000620003dc82620003e3565b9050919050565b600073ffffffffffffffffffffffffffffffffffffffff82169050919050565b6000819050919050565b60005b838110156200042d57808201518184015260208101905062000410565b838111156200043d576000848401525b50505050565b6000620004508262000403565b91506200045d8362000403565b92508262000470576200046f620004aa565b5b828206905092915050565b7f4e487b7100000000000000000000000000000000000000000000000000000000600052601160045260246000fd5b7f4e487b7100000000000000000000000000000000000000000000000000000000600052601260045260246000fd5b6000601f19601f8301169050919050565b620004f581620003cf565b81146200050157600080fd5b50565b60805160601c60a05160601c60c05160601c60e05160601c614745620005a560003960008181610b040152818161142501526129be01526000818161094201528181610bc00152818161195201526129150152600081816110e301528181611372015281816122a8015281816128230152612bc4015260008181610e1501528181611e1501528181611f970152818161249a015261277a01526147456000f3fe608060405234801561001057600080fd5b506004361061021b5760003560e01c806372f702f311610125578063a42a4663116100ad578063c39869c11161007c578063c39869c114610666578063cc1a378f14610689578063cd3daf9d146106a5578063d1af0c7d146106c3578063df136d65146106e15761021b565b8063a42a4663146105cc578063a694fc3a146105fc578063b11a19e814610618578063bd43a908146106485761021b565b80638b876347116100f45780638b876347146105285780638d42394d146105585780638da5cb5b146105745780639a2cdc08146105925780639b7ccf4c146105b05761021b565b806372f702f3146104b05780637519ab50146104ce5780637b0a47ee146104ec57806380faa57d1461050a5761021b565b806349c2beae116101a8578063673578f411610177578063673578f4146103e457806367d3b488146104025780636900a3ae1461042057806370a082311461045057806371aad10d146104805761021b565b806349c2beae1461034a578063518729591461036857806356ca623e146103845780636604de03146103b45761021b565b80631644104f116101ef5780631644104f146102ba57806318160ddd146102ea5780632e1a7d4d146103085780633c6b16ab146103245780633d18b912146103405761021b565b80628cc262146102205780630700037d146102505780630eebadae146102805780630fb5a6b41461029c575b600080fd5b61023a60048036038101906102359190613358565b6106ff565b6040516102479190613e4e565b60405180910390f35b61026a60048036038101906102659190613358565b610801565b6040516102779190613e4e565b60405180910390f35b61029a6004803603810190610295919061354f565b610819565b005b6102a4610bb6565b6040516102b19190613e4e565b60405180910390f35b6102d460048036038101906102cf91906134a9565b610bbc565b6040516102e19190613e4e565b60405180910390f35b6102f2610c77565b6040516102ff9190613e4e565b60405180910390f35b610322600480360381019061031d91906134fd565b610c7d565b005b61033e600480360381019061033991906134fd565b610ec5565b005b6103486111fa565b005b610352611423565b60405161035f9190613c29565b60405180910390f35b610382600480360381019061037d919061343d565b611447565b005b61039e60048036038101906103999190613358565b61183d565b6040516103ab9190613c44565b60405180910390f35b6103ce60048036038101906103c991906134fd565b61186e565b6040516103db9190613bd1565b60405180910390f35b6103ec611950565b6040516103f99190613bf3565b60405180910390f35b61040a611974565b6040516104179190613e4e565b60405180910390f35b61043a600480360381019061043591906134fd565b61197a565b6040516104479190613c44565b60405180910390f35b61046a60048036038101906104659190613358565b6119ab565b6040516104779190613e4e565b60405180910390f35b61049a600480360381019061049591906133fc565b6119c3565b6040516104a79190613c44565b60405180910390f35b6104b8611e13565b6040516104c59190613c0e565b60405180910390f35b6104d6611e37565b6040516104e39190613e4e565b60405180910390f35b6104f4611e3d565b6040516105019190613e4e565b60405180910390f35b610512611e43565b60405161051f9190613e4e565b60405180910390f35b610542600480360381019061053d9190613358565b611e56565b60405161054f9190613e4e565b60405180910390f35b610572600480360381019061056d919061359e565b611e6e565b005b61057c612183565b6040516105899190613aba565b60405180910390f35b61059a6121a9565b6040516105a79190613e4e565b60405180910390f35b6105ca60048036038101906105c591906134fd565b6121d7565b005b6105e660048036038101906105e19190613358565b612359565b6040516105f39190613e4e565b60405180910390f35b610616600480360381019061061191906134fd565b612371565b005b610632600480360381019061062d91906133d3565b6125bb565b60405161063f9190613c44565b60405180910390f35b6106506125ec565b60405161065d9190613baf565b60405180910390f35b61066e61276f565b60405161068096959493929190613e99565b60405180910390f35b6106a3600480360381019061069e91906134fd565b612a79565b005b6106ad612b57565b6040516106ba9190613e4e565b60405180910390f35b6106cb612bc2565b6040516106d89190613c0e565b60405180910390f35b6106e9612be6565b6040516106f69190613e4e565b60405180910390f35b6000600a60008373ffffffffffffffffffffffffffffffffffffffff1673ffffffffffffffffffffffffffffffffffffffff16815260200190815260200160002054670de0b6b3a7640000600960008573ffffffffffffffffffffffffffffffffffffffff1673ffffffffffffffffffffffffffffffffffffffff16815260200190815260200160002054610792612b57565b61079c919061414e565b600c60008673ffffffffffffffffffffffffffffffffffffffff1673ffffffffffffffffffffffffffffffffffffffff168152602001908152602001600020546107e691906140f4565b6107f091906140c3565b6107fa9190614036565b9050919050565b600a6020528060005260406000206000915090505481565b33610822612b57565b600881905550610830611e43565b600681905550600073ffffffffffffffffffffffffffffffffffffffff168173ffffffffffffffffffffffffffffffffffffffff16146108fd57610873816106ff565b600a60008373ffffffffffffffffffffffffffffffffffffffff1673ffffffffffffffffffffffffffffffffffffffff16815260200190815260200160002081905550600854600960008373ffffffffffffffffffffffffffffffffffffffff1673ffffffffffffffffffffffffffffffffffffffff168152602001908152602001600020819055505b60008411610940576040517f08c379a000000000000000000000000000000000000000000000000000000000815260040161093790613e0e565b60405180910390fd5b7f000000000000000000000000000000000000000000000000000000000000000073ffffffffffffffffffffffffffffffffffffffff16636352211e836040518263ffffffff1660e01b81526004016109999190613e4e565b60206040518083038186803b1580156109b157600080fd5b505afa1580156109c5573d6000803e3d6000fd5b505050506040513d601f19601f820116820180604052508101906109e99190613381565b73ffffffffffffffffffffffffffffffffffffffff163373ffffffffffffffffffffffffffffffffffffffff1614610a56576040517f08c379a0000000000000000000000000000000000000000000000000000000008152600401610a4d90613dce565b60405180910390fd5b83600c60008573ffffffffffffffffffffffffffffffffffffffff1673ffffffffffffffffffffffffffffffffffffffff1681526020019081526020016000206000828254610aa5919061414e565b9250508190555083600c60003373ffffffffffffffffffffffffffffffffffffffff1673ffffffffffffffffffffffffffffffffffffffff1681526020019081526020016000206000828254610afb9190614036565b925050819055507f000000000000000000000000000000000000000000000000000000000000000073ffffffffffffffffffffffffffffffffffffffff1663cd3dd21a84846040518363ffffffff1660e01b8152600401610b5d929190613b4a565b602060405180830381600087803b158015610b7757600080fd5b505af1158015610b8b573d6000803e3d6000fd5b505050506040513d601f19601f82011682018060405250810190610baf9190613526565b5050505050565b60045481565b60007f000000000000000000000000000000000000000000000000000000000000000073ffffffffffffffffffffffffffffffffffffffff1663cd3dd21a3385856040518463ffffffff1660e01b8152600401610c1b93929190613b0c565b602060405180830381600087803b158015610c3557600080fd5b505af1158015610c49573d6000803e3d6000fd5b505050506040513d601f19601f82011682018060405250810190610c6d9190613526565b5081905092915050565b600b5481565b33610c86612b57565b600881905550610c94611e43565b600681905550600073ffffffffffffffffffffffffffffffffffffffff168173ffffffffffffffffffffffffffffffffffffffff1614610d6157610cd7816106ff565b600a60008373ffffffffffffffffffffffffffffffffffffffff1673ffffffffffffffffffffffffffffffffffffffff16815260200190815260200160002081905550600854600960008373ffffffffffffffffffffffffffffffffffffffff1673ffffffffffffffffffffffffffffffffffffffff168152602001908152602001600020819055505b60008211610da4576040517f08c379a0000000000000000000000000000000000000000000000000000000008152600401610d9b90613e0e565b60405180910390fd5b81600c60003373ffffffffffffffffffffffffffffffffffffffff1673ffffffffffffffffffffffffffffffffffffffff1681526020019081526020016000206000828254610df3919061414e565b9250508190555081600b6000828254610e0c919061414e565b925050819055507f000000000000000000000000000000000000000000000000000000000000000073ffffffffffffffffffffffffffffffffffffffff1663a9059cbb33846040518363ffffffff1660e01b8152600401610e6e929190613b86565b602060405180830381600087803b158015610e8857600080fd5b505af1158015610e9c573d6000803e3d6000fd5b505050506040513d601f19601f82011682018060405250810190610ec091906133aa565b505050565b600360009054906101000a900473ffffffffffffffffffffffffffffffffffffffff1673ffffffffffffffffffffffffffffffffffffffff163373ffffffffffffffffffffffffffffffffffffffff1614610f55576040517f08c379a0000000000000000000000000000000000000000000000000000000008152600401610f4c90613dae565b60405180910390fd5b6000610f5f612b57565b600881905550610f6d611e43565b600681905550600073ffffffffffffffffffffffffffffffffffffffff168173ffffffffffffffffffffffffffffffffffffffff161461103a57610fb0816106ff565b600a60008373ffffffffffffffffffffffffffffffffffffffff1673ffffffffffffffffffffffffffffffffffffffff16815260200190815260200160002081905550600854600960008373ffffffffffffffffffffffffffffffffffffffff1673ffffffffffffffffffffffffffffffffffffffff168152602001908152602001600020819055505b600554421061105c576004548261105191906140c3565b60078190555061109c565b60006007544260055461106f919061414e565b61107991906140f4565b9050600454818461108a9190614036565b61109491906140c3565b600781905550505b6000600754116110e1576040517f08c379a00000000000000000000000000000000000000000000000000000000081526004016110d890613e2e565b60405180910390fd5b7f000000000000000000000000000000000000000000000000000000000000000073ffffffffffffffffffffffffffffffffffffffff166370a08231306040518263ffffffff1660e01b815260040161113a9190613aba565b60206040518083038186803b15801561115257600080fd5b505afa158015611166573d6000803e3d6000fd5b505050506040513d601f19601f8201168201806040525081019061118a9190613526565b60045460075461119a91906140f4565b11156111db576040517f08c379a00000000000000000000000000000000000000000000000000000000081526004016111d290613dee565b60405180910390fd5b600454426111e99190614036565b600581905550426006819055505050565b33611203612b57565b600881905550611211611e43565b600681905550600073ffffffffffffffffffffffffffffffffffffffff168173ffffffffffffffffffffffffffffffffffffffff16146112de57611254816106ff565b600a60008373ffffffffffffffffffffffffffffffffffffffff1673ffffffffffffffffffffffffffffffffffffffff16815260200190815260200160002081905550600854600960008373ffffffffffffffffffffffffffffffffffffffff1673ffffffffffffffffffffffffffffffffffffffff168152602001908152602001600020819055505b6000600a60003373ffffffffffffffffffffffffffffffffffffffff1673ffffffffffffffffffffffffffffffffffffffff168152602001908152602001600020549050600081111561141f576000600a60003373ffffffffffffffffffffffffffffffffffffffff1673ffffffffffffffffffffffffffffffffffffffff168152602001908152602001600020819055507f000000000000000000000000000000000000000000000000000000000000000073ffffffffffffffffffffffffffffffffffffffff1663a9059cbb33836040518363ffffffff1660e01b81526004016113cb929190613b86565b602060405180830381600087803b1580156113e557600080fd5b505af11580156113f9573d6000803e3d6000fd5b505050506040513d601f19601f8201168201806040525081019061141d91906133aa565b505b5050565b7f000000000000000000000000000000000000000000000000000000000000000081565b4261012c600d60003373ffffffffffffffffffffffffffffffffffffffff1673ffffffffffffffffffffffffffffffffffffffff168152602001908152602001600020546114959190614036565b106114d5576040517f08c379a00000000000000000000000000000000000000000000000000000000081526004016114cc90613d6e565b60405180910390fd5b42600d60003373ffffffffffffffffffffffffffffffffffffffff1673ffffffffffffffffffffffffffffffffffffffff16815260200190815260200160002081905550600160008082825461152b9190614036565b925050819055506115566040518060600160405280602c815260200161469b602c9139338484612c85565b600e61156182612d27565b60405161156e9190613a73565b908152602001604051809103902060405180606001604052803373ffffffffffffffffffffffffffffffffffffffff16815260200184815260200142815250908060018154018082558091505060019003906000526020600020906003020160009091909190915060008201518160000160006101000a81548173ffffffffffffffffffffffffffffffffffffffff021916908373ffffffffffffffffffffffffffffffffffffffff1602179055506020820151816001019080519060200190611639929190613167565b506040820151816002015550503373ffffffffffffffffffffffffffffffffffffffff167f5f7e16dc676677766a70e9c5628aa6c54ddb8b6e5188e2ae1e1f17f1ffbea716428460405161168e929190613e69565b60405180910390a2606460015442446116a79190614036565b6116b19190614036565b6116bb9190614373565b60018190555060006509184e72a000905061170b6040518060400160405280601881526020017f5b736d61727420636f6e74726163745d62616c616e63653a000000000000000081525047612fe9565b6032600154116117485760028161172291906140f4565b90506117476040518060600160405280602881526020016146c7602891393383613085565b5b4781111561178b576040517f08c379a000000000000000000000000000000000000000000000000000000000815260040161178290613d4e565b60405180910390fd5b60003373ffffffffffffffffffffffffffffffffffffffff16826040516117b190613a8a565b60006040518083038185875af1925050503d80600081146117ee576040519150601f19603f3d011682016040523d82523d6000602084013e6117f3565b606091505b5050905080611837576040517f08c379a000000000000000000000000000000000000000000000000000000000815260040161182e90613d8e565b60405180910390fd5b50505050565b6060611867826040516020016118539190613a3d565b6040516020818303038152906040526119c3565b9050919050565b6060600060026000848152602001908152602001600020805480602002602001604051908101604052809291908181526020016000905b8282101561194157838290600052602060002090600302016040518060600160405290816000820160009054906101000a900473ffffffffffffffffffffffffffffffffffffffff1673ffffffffffffffffffffffffffffffffffffffff1673ffffffffffffffffffffffffffffffffffffffff16815260200160018201548152602001600282015481525050815260200190600101906118a5565b50505050905080915050919050565b7f000000000000000000000000000000000000000000000000000000000000000081565b60055481565b60606119a4826040516020016119909190613a9f565b6040516020818303038152906040526119c3565b9050919050565b600c6020528060005260406000206000915090505481565b606060006040518060400160405280601681526020017f30313233343536373839616263646566414243444546000000000000000000008152509050600060028451611a0f91906140f4565b6002611a1b9190614036565b67ffffffffffffffff811115611a5a577f4e487b7100000000000000000000000000000000000000000000000000000000600052604160045260246000fd5b6040519080825280601f01601f191660200182016040528015611a8c5781602001600182028036833780820191505090505b5090507f300000000000000000000000000000000000000000000000000000000000000081600081518110611aea577f4e487b7100000000000000000000000000000000000000000000000000000000600052603260045260246000fd5b60200101907effffffffffffffffffffffffffffffffffffffffffffffffffffffffffffff1916908160001a9053507f780000000000000000000000000000000000000000000000000000000000000081600181518110611b74577f4e487b7100000000000000000000000000000000000000000000000000000000600052603260045260246000fd5b60200101907effffffffffffffffffffffffffffffffffffffffffffffffffffffffffffff1916908160001a90535060005b8451811015611e0857826004868381518110611beb577f4e487b7100000000000000000000000000000000000000000000000000000000600052603260045260246000fd5b602001015160f81c60f81b7effffffffffffffffffffffffffffffffffffffffffffffffffffffffffffff1916901c60f81c60ff1681518110611c57577f4e487b7100000000000000000000000000000000000000000000000000000000600052603260045260246000fd5b602001015160f81c60f81b82600283611c7091906140f4565b6002611c7c9190614036565b81518110611cb3577f4e487b7100000000000000000000000000000000000000000000000000000000600052603260045260246000fd5b60200101907effffffffffffffffffffffffffffffffffffffffffffffffffffffffffffff1916908160001a90535082600f60f81b868381518110611d21577f4e487b7100000000000000000000000000000000000000000000000000000000600052603260045260246000fd5b602001015160f81c60f81b1660f81c60ff1681518110611d6a577f4e487b7100000000000000000000000000000000000000000000000000000000600052603260045260246000fd5b602001015160f81c60f81b82600283611d8391906140f4565b6003611d8f9190614036565b81518110611dc6577f4e487b7100000000000000000000000000000000000000000000000000000000600052603260045260246000fd5b60200101907effffffffffffffffffffffffffffffffffffffffffffffffffffffffffffff1916908160001a9053508080611e00906142f2565b915050611ba6565b508092505050919050565b7f000000000000000000000000000000000000000000000000000000000000000081565b60065481565b60075481565b6000611e5160055442613124565b905090565b60096020528060005260406000206000915090505481565b33611e77612b57565b600881905550611e85611e43565b600681905550600073ffffffffffffffffffffffffffffffffffffffff168173ffffffffffffffffffffffffffffffffffffffff1614611f5257611ec8816106ff565b600a60008373ffffffffffffffffffffffffffffffffffffffff1673ffffffffffffffffffffffffffffffffffffffff16815260200190815260200160002081905550600854600960008373ffffffffffffffffffffffffffffffffffffffff1673ffffffffffffffffffffffffffffffffffffffff168152602001908152602001600020819055505b60008311611f95576040517f08c379a0000000000000000000000000000000000000000000000000000000008152600401611f8c90613e0e565b60405180910390fd5b7f000000000000000000000000000000000000000000000000000000000000000073ffffffffffffffffffffffffffffffffffffffff166323b872dd3330866040518463ffffffff1660e01b8152600401611ff293929190613ad5565b602060405180830381600087803b15801561200c57600080fd5b505af1158015612020573d6000803e3d6000fd5b505050506040513d601f19601f8201168201806040525081019061204491906133aa565b5082600c60003373ffffffffffffffffffffffffffffffffffffffff1673ffffffffffffffffffffffffffffffffffffffff16815260200190815260200160002060008282546120949190614036565b9250508190555082600b60008282546120ad9190614036565b925050819055506002600083815260200190815260200160002060405180606001604052803373ffffffffffffffffffffffffffffffffffffffff16815260200185815260200142815250908060018154018082558091505060019003906000526020600020906003020160009091909190915060008201518160000160006101000a81548173ffffffffffffffffffffffffffffffffffffffff021916908373ffffffffffffffffffffffffffffffffffffffff16021790555060208201518160010155604082015181600201555050505050565b600360009054906101000a900473ffffffffffffffffffffffffffffffffffffffff1681565b60006121cf6040518060600160405280602181526020016146ef60219139600054612fe9565b600054905090565b600360009054906101000a900473ffffffffffffffffffffffffffffffffffffffff1673ffffffffffffffffffffffffffffffffffffffff163373ffffffffffffffffffffffffffffffffffffffff1614612267576040517f08c379a000000000000000000000000000000000000000000000000000000000815260040161225e90613dae565b60405180910390fd5b6122a66040518060400160405280600c81526020017f616464204847546f6b656e3a000000000000000000000000000000000000000081525082612fe9565b7f000000000000000000000000000000000000000000000000000000000000000073ffffffffffffffffffffffffffffffffffffffff166323b872dd3330846040518463ffffffff1660e01b815260040161230393929190613ad5565b602060405180830381600087803b15801561231d57600080fd5b505af1158015612331573d6000803e3d6000fd5b505050506040513d601f19601f8201168201806040525081019061235591906133aa565b5050565b600d6020528060005260406000206000915090505481565b3361237a612b57565b600881905550612388611e43565b600681905550600073ffffffffffffffffffffffffffffffffffffffff168173ffffffffffffffffffffffffffffffffffffffff1614612455576123cb816106ff565b600a60008373ffffffffffffffffffffffffffffffffffffffff1673ffffffffffffffffffffffffffffffffffffffff16815260200190815260200160002081905550600854600960008373ffffffffffffffffffffffffffffffffffffffff1673ffffffffffffffffffffffffffffffffffffffff168152602001908152602001600020819055505b60008211612498576040517f08c379a000000000000000000000000000000000000000000000000000000000815260040161248f90613e0e565b60405180910390fd5b7f000000000000000000000000000000000000000000000000000000000000000073ffffffffffffffffffffffffffffffffffffffff166323b872dd3330856040518463ffffffff1660e01b81526004016124f593929190613ad5565b602060405180830381600087803b15801561250f57600080fd5b505af1158015612523573d6000803e3d6000fd5b505050506040513d601f19601f8201168201806040525081019061254791906133aa565b5081600c60003373ffffffffffffffffffffffffffffffffffffffff1673ffffffffffffffffffffffffffffffffffffffff16815260200190815260200160002060008282546125979190614036565b9250508190555081600b60008282546125b09190614036565b925050819055505050565b60606125e5826040516020016125d19190613a58565b6040516020818303038152906040526119c3565b9050919050565b60606000600e6126036125fe3361183d565b612d27565b6040516126109190613a73565b9081526020016040518091039020805480602002602001604051908101604052809291908181526020016000905b8282101561276257838290600052602060002090600302016040518060600160405290816000820160009054906101000a900473ffffffffffffffffffffffffffffffffffffffff1673ffffffffffffffffffffffffffffffffffffffff1673ffffffffffffffffffffffffffffffffffffffff1681526020016001820180546126c79061428f565b80601f01602080910402602001604051908101604052809291908181526020018280546126f39061428f565b80156127405780601f1061271557610100808354040283529160200191612740565b820191906000526020600020905b81548152906001019060200180831161272357829003601f168201915b505050505081526020016002820154815250508152602001906001019061263e565b5050505090508091505090565b6000806000806000807f000000000000000000000000000000000000000000000000000000000000000073ffffffffffffffffffffffffffffffffffffffff166370a08231336040518263ffffffff1660e01b81526004016127d19190613aba565b60206040518083038186803b1580156127e957600080fd5b505afa1580156127fd573d6000803e3d6000fd5b505050506040513d601f19601f820116820180604052508101906128219190613526565b7f000000000000000000000000000000000000000000000000000000000000000073ffffffffffffffffffffffffffffffffffffffff166370a08231336040518263ffffffff1660e01b815260040161287a9190613aba565b60206040518083038186803b15801561289257600080fd5b505afa1580156128a6573d6000803e3d6000fd5b505050506040513d601f19601f820116820180604052508101906128ca9190613526565b600c60003373ffffffffffffffffffffffffffffffffffffffff1673ffffffffffffffffffffffffffffffffffffffff16815260200190815260200160002054612913336106ff565b7f000000000000000000000000000000000000000000000000000000000000000073ffffffffffffffffffffffffffffffffffffffff166370a08231336040518263ffffffff1660e01b815260040161296c9190613aba565b60206040518083038186803b15801561298457600080fd5b505afa158015612998573d6000803e3d6000fd5b505050506040513d601f19601f820116820180604052508101906129bc9190613526565b7f000000000000000000000000000000000000000000000000000000000000000073ffffffffffffffffffffffffffffffffffffffff166370a08231336040518263ffffffff1660e01b8152600401612a159190613aba565b60206040518083038186803b158015612a2d57600080fd5b505afa158015612a41573d6000803e3d6000fd5b505050506040513d601f19601f82011682018060405250810190612a659190613526565b955095509550955095509550909192939495565b600360009054906101000a900473ffffffffffffffffffffffffffffffffffffffff1673ffffffffffffffffffffffffffffffffffffffff163373ffffffffffffffffffffffffffffffffffffffff1614612b09576040517f08c379a0000000000000000000000000000000000000000000000000000000008152600401612b0090613dae565b60405180910390fd5b4260055410612b4d576040517f08c379a0000000000000000000000000000000000000000000000000000000008152600401612b4490613d2e565b60405180910390fd5b8060048190555050565b600080600b541415612b6d576008549050612bbf565b600b54670de0b6b3a7640000600654612b84611e43565b612b8e919061414e565b600754612b9b91906140f4565b612ba591906140f4565b612baf91906140c3565b600854612bbc9190614036565b90505b90565b7f000000000000000000000000000000000000000000000000000000000000000081565b60085481565b612c8281604051602401612c009190613c44565b6040516020818303038152906040527f41304fac000000000000000000000000000000000000000000000000000000007bffffffffffffffffffffffffffffffffffffffffffffffffffffffff19166020820180517bffffffffffffffffffffffffffffffffffffffffffffffffffffffff838183161783525050505061313e565b50565b612d2184848484604051602401612c9f9493929190613c66565b6040516020818303038152906040527f245986f2000000000000000000000000000000000000000000000000000000007bffffffffffffffffffffffffffffffffffffffffffffffffffffffff19166020820180517bffffffffffffffffffffffffffffffffffffffffffffffffffffffff838183161783525050505061313e565b50505050565b606060008290506000815167ffffffffffffffff811115612d71577f4e487b7100000000000000000000000000000000000000000000000000000000600052604160045260246000fd5b6040519080825280601f01601f191660200182016040528015612da35781602001600182028036833780820191505090505b50905060005b8251811015612fde576041838281518110612ded577f4e487b7100000000000000000000000000000000000000000000000000000000600052603260045260246000fd5b602001015160f81c60f81b60f81c60ff1610158015612e565750605a838281518110612e42577f4e487b7100000000000000000000000000000000000000000000000000000000600052603260045260246000fd5b602001015160f81c60f81b60f81c60ff1611155b15612f1e576020838281518110612e96577f4e487b7100000000000000000000000000000000000000000000000000000000600052603260045260246000fd5b602001015160f81c60f81b60f81c612eae919061408c565b60f81b828281518110612eea577f4e487b7100000000000000000000000000000000000000000000000000000000600052603260045260246000fd5b60200101907effffffffffffffffffffffffffffffffffffffffffffffffffffffffffffff1916908160001a905350612fcb565b828181518110612f57577f4e487b7100000000000000000000000000000000000000000000000000000000600052603260045260246000fd5b602001015160f81c60f81b828281518110612f9b577f4e487b7100000000000000000000000000000000000000000000000000000000600052603260045260246000fd5b60200101907effffffffffffffffffffffffffffffffffffffffffffffffffffffffffffff1916908160001a9053505b8080612fd6906142f2565b915050612da9565b508092505050919050565b6130818282604051602401612fff929190613cfe565b6040516020818303038152906040527fb60e72cc000000000000000000000000000000000000000000000000000000007bffffffffffffffffffffffffffffffffffffffffffffffffffffffff19166020820180517bffffffffffffffffffffffffffffffffffffffffffffffffffffffff838183161783525050505061313e565b5050565b61311f83838360405160240161309d93929190613cc0565b6040516020818303038152906040527f0d26b925000000000000000000000000000000000000000000000000000000007bffffffffffffffffffffffffffffffffffffffffffffffffffffffff19166020820180517bffffffffffffffffffffffffffffffffffffffffffffffffffffffff838183161783525050505061313e565b505050565b6000818311156131345781613136565b825b905092915050565b60008151905060006a636f6e736f6c652e6c6f679050602083016000808483855afa5050505050565b8280546131739061428f565b90600052602060002090601f01602090048101928261319557600085556131dc565b82601f106131ae57805160ff19168380011785556131dc565b828001600101855582156131dc579182015b828111156131db5782518255916020019190600101906131c0565b5b5090506131e991906131ed565b5090565b5b808211156132065760008160009055506001016131ee565b5090565b600061321d61321884613f1f565b613efa565b90508281526020810184848401111561323557600080fd5b61324084828561424d565b509392505050565b600061325b61325684613f50565b613efa565b90508281526020810184848401111561327357600080fd5b61327e84828561424d565b509392505050565b6000813590506132958161463e565b92915050565b6000815190506132aa8161463e565b92915050565b6000815190506132bf81614655565b92915050565b6000813590506132d48161466c565b92915050565b600082601f8301126132eb57600080fd5b81356132fb84826020860161320a565b91505092915050565b600082601f83011261331557600080fd5b8135613325848260208601613248565b91505092915050565b60008135905061333d81614683565b92915050565b60008151905061335281614683565b92915050565b60006020828403121561336a57600080fd5b600061337884828501613286565b91505092915050565b60006020828403121561339357600080fd5b60006133a18482850161329b565b91505092915050565b6000602082840312156133bc57600080fd5b60006133ca848285016132b0565b91505092915050565b6000602082840312156133e557600080fd5b60006133f3848285016132c5565b91505092915050565b60006020828403121561340e57600080fd5b600082013567ffffffffffffffff81111561342857600080fd5b613434848285016132da565b91505092915050565b6000806040838503121561345057600080fd5b600083013567ffffffffffffffff81111561346a57600080fd5b61347685828601613304565b925050602083013567ffffffffffffffff81111561349357600080fd5b61349f85828601613304565b9150509250929050565b600080604083850312156134bc57600080fd5b600083013567ffffffffffffffff8111156134d657600080fd5b6134e285828601613304565b92505060206134f38582860161332e565b9150509250929050565b60006020828403121561350f57600080fd5b600061351d8482850161332e565b91505092915050565b60006020828403121561353857600080fd5b600061354684828501613343565b91505092915050565b60008060006060848603121561356457600080fd5b60006135728682870161332e565b935050602061358386828701613286565b92505060406135948682870161332e565b9150509250925092565b600080604083850312156135b157600080fd5b60006135bf8582860161332e565b92505060206135d08582860161332e565b9150509250929050565b60006135e68383613976565b905092915050565b60006135fa83836139c6565b60608301905092915050565b61360f81614182565b82525050565b61361e81614182565b82525050565b61363561363082614182565b61433b565b82525050565b600061364682613fa1565b6136508185613fdc565b93508360208202850161366285613f81565b8060005b8581101561369e578484038952815161367f85826135da565b945061368a83613fc2565b925060208a01995050600181019050613666565b50829750879550505050505092915050565b60006136bb82613fac565b6136c58185613fed565b93506136d083613f91565b8060005b838110156137015781516136e888826135ee565b97506136f383613fcf565b9250506001810190506136d4565b5085935050505092915050565b61371f61371a826141a0565b61434d565b82525050565b61372e816141e1565b82525050565b61373d81614205565b82525050565b61374c81614229565b82525050565b600061375d82613fb7565b6137678185614009565b935061377781856020860161425c565b61378081614460565b840191505092915050565b600061379682613fb7565b6137a0818561401a565b93506137b081856020860161425c565b6137b981614460565b840191505092915050565b60006137cf82613fb7565b6137d9818561402b565b93506137e981856020860161425c565b80840191505092915050565b6000613802601c8361401a565b915061380d8261447e565b602082019050919050565b600061382560348361401a565b9150613830826144a7565b604082019050919050565b6000613848601a8361401a565b9150613853826144f6565b602082019050919050565b600061386b60278361401a565b91506138768261451f565b604082019050919050565b600061388e600e8361401a565b91506138998261456e565b602082019050919050565b60006138b1600d8361401a565b91506138bc82614597565b602082019050919050565b60006138d4600083613ffe565b91506138df826145c0565b600082019050919050565b60006138f760008361401a565b9150613902826145c0565b600082019050919050565b600061391a60178361401a565b9150613925826145c3565b602082019050919050565b600061393d600a8361401a565b9150613948826145ec565b602082019050919050565b6000613960600f8361401a565b915061396b82614615565b602082019050919050565b600060608301600083015161398e6000860182613606565b50602083015184820360208601526139a68282613752565b91505060408301516139bb6040860182613a08565b508091505092915050565b6060820160008201516139dc6000850182613606565b5060208201516139ef6020850182613a08565b506040820151613a026040850182613a08565b50505050565b613a11816141ca565b82525050565b613a20816141ca565b82525050565b613a37613a32826141ca565b614369565b82525050565b6000613a498284613624565b60148201915081905092915050565b6000613a64828461370e565b60208201915081905092915050565b6000613a7f82846137c4565b915081905092915050565b6000613a95826138c7565b9150819050919050565b6000613aab8284613a26565b60208201915081905092915050565b6000602082019050613acf6000830184613615565b92915050565b6000606082019050613aea6000830186613615565b613af76020830185613615565b613b046040830184613a17565b949350505050565b6000606082019050613b216000830186613615565b8181036020830152613b33818561378b565b9050613b426040830184613a17565b949350505050565b6000606082019050613b5f6000830185613615565b8181036020830152613b70816138ea565b9050613b7f6040830184613a17565b9392505050565b6000604082019050613b9b6000830185613615565b613ba86020830184613a17565b9392505050565b60006020820190508181036000830152613bc9818461363b565b905092915050565b60006020820190508181036000830152613beb81846136b0565b905092915050565b6000602082019050613c086000830184613725565b92915050565b6000602082019050613c236000830184613734565b92915050565b6000602082019050613c3e6000830184613743565b92915050565b60006020820190508181036000830152613c5e818461378b565b905092915050565b60006080820190508181036000830152613c80818761378b565b9050613c8f6020830186613615565b8181036040830152613ca1818561378b565b90508181036060830152613cb5818461378b565b905095945050505050565b60006060820190508181036000830152613cda818661378b565b9050613ce96020830185613615565b613cf66040830184613a17565b949350505050565b60006040820190508181036000830152613d18818561378b565b9050613d276020830184613a17565b9392505050565b60006020820190508181036000830152613d47816137f5565b9050919050565b60006020820190508181036000830152613d6781613818565b9050919050565b60006020820190508181036000830152613d878161383b565b9050919050565b60006020820190508181036000830152613da78161385e565b9050919050565b60006020820190508181036000830152613dc781613881565b9050919050565b60006020820190508181036000830152613de7816138a4565b9050919050565b60006020820190508181036000830152613e078161390d565b9050919050565b60006020820190508181036000830152613e2781613930565b9050919050565b60006020820190508181036000830152613e4781613953565b9050919050565b6000602082019050613e636000830184613a17565b92915050565b6000604082019050613e7e6000830185613a17565b8181036020830152613e90818461378b565b90509392505050565b600060c082019050613eae6000830189613a17565b613ebb6020830188613a17565b613ec86040830187613a17565b613ed56060830186613a17565b613ee26080830185613a17565b613eef60a0830184613a17565b979650505050505050565b6000613f04613f15565b9050613f1082826142c1565b919050565b6000604051905090565b600067ffffffffffffffff821115613f3a57613f39614431565b5b613f4382614460565b9050602081019050919050565b600067ffffffffffffffff821115613f6b57613f6a614431565b5b613f7482614460565b9050602081019050919050565b6000819050602082019050919050565b6000819050602082019050919050565b600081519050919050565b600081519050919050565b600081519050919050565b6000602082019050919050565b6000602082019050919050565b600082825260208201905092915050565b600082825260208201905092915050565b600081905092915050565b600082825260208201905092915050565b600082825260208201905092915050565b600081905092915050565b6000614041826141ca565b915061404c836141ca565b9250827fffffffffffffffffffffffffffffffffffffffffffffffffffffffffffffffff03821115614081576140806143a4565b5b828201905092915050565b6000614097826141d4565b91506140a2836141d4565b92508260ff038211156140b8576140b76143a4565b5b828201905092915050565b60006140ce826141ca565b91506140d9836141ca565b9250826140e9576140e86143d3565b5b828204905092915050565b60006140ff826141ca565b915061410a836141ca565b9250817fffffffffffffffffffffffffffffffffffffffffffffffffffffffffffffffff0483118215151615614143576141426143a4565b5b828202905092915050565b6000614159826141ca565b9150614164836141ca565b925082821015614177576141766143a4565b5b828203905092915050565b600061418d826141aa565b9050919050565b60008115159050919050565b6000819050919050565b600073ffffffffffffffffffffffffffffffffffffffff82169050919050565b6000819050919050565b600060ff82169050919050565b60006141ec826141f3565b9050919050565b60006141fe826141aa565b9050919050565b600061421082614217565b9050919050565b6000614222826141aa565b9050919050565b60006142348261423b565b9050919050565b6000614246826141aa565b9050919050565b82818337600083830152505050565b60005b8381101561427a57808201518184015260208101905061425f565b83811115614289576000848401525b50505050565b600060028204905060018216806142a757607f821691505b602082108114156142bb576142ba614402565b5b50919050565b6142ca82614460565b810181811067ffffffffffffffff821117156142e9576142e8614431565b5b80604052505050565b60006142fd826141ca565b91507fffffffffffffffffffffffffffffffffffffffffffffffffffffffffffffffff8214156143305761432f6143a4565b5b600182019050919050565b600061434682614357565b9050919050565b6000819050919050565b600061436282614471565b9050919050565b6000819050919050565b600061437e826141ca565b9150614389836141ca565b925082614399576143986143d3565b5b828206905092915050565b7f4e487b7100000000000000000000000000000000000000000000000000000000600052601160045260246000fd5b7f4e487b7100000000000000000000000000000000000000000000000000000000600052601260045260246000fd5b7f4e487b7100000000000000000000000000000000000000000000000000000000600052602260045260246000fd5b7f4e487b7100000000000000000000000000000000000000000000000000000000600052604160045260246000fd5b6000601f19601f8301169050919050565b60008160601b9050919050565b7f726577617264206475726174696f6e206e6f742066696e697368656400000000600082015250565b7f547279696e6720746f207769746864726177206d6f7265206d6f6e657920746860008201527f616e2074686520636f6e7472616374206861732e000000000000000000000000602082015250565b7f5b736d61727420636f6e74726163745d5761697420356d696e73000000000000600082015250565b7f4661696c656420746f207769746864726177206d6f6e65792066726f6d20636f60008201527f6e74726163742e00000000000000000000000000000000000000000000000000602082015250565b7f6e6f7420617574686f72697a6564000000000000000000000000000000000000600082015250565b7f6e6f74204e4654206f776e657200000000000000000000000000000000000000600082015250565b50565b7f72657761726420616d6f756e74203e2062616c616e6365000000000000000000600082015250565b7f616d6f756e74203d203000000000000000000000000000000000000000000000600082015250565b7f7265776172642072617465203d20300000000000000000000000000000000000600082015250565b61464781614182565b811461465257600080fd5b50565b61465e81614194565b811461466957600080fd5b50565b614675816141a0565b811461468057600080fd5b50565b61468c816141ca565b811461469757600080fd5b5056fe5b736d61727420636f6e74726163745d257320776176656420772f206d65737361676520257320746f2025735b736d61727420636f6e74726163745d257320776f6e21205265776172642076616c75653a2025735b736d61727420636f6e74726163745d5765206861766520256420776176657321a2646970667358221220de39b1751f95c402ecb0d7128ed4c263950a036e052a9357544b0275928f9ad464736f6c634300080400335b736d61727420636f6e74726163745d596f20796f2c204920616d206120636f6e747261637420616e64204920616d20736d617274",
  "linkReferences": {},
  "deployedLinkReferences": {}
}