{
  "_format": "hh-sol-artifact-1",
  "contractName": "WavePortal",
  "sourceName": "contracts/WavePortal.sol",
  "abi": [
    {
      "inputs": [
        {
          "internalType": "address",
          "name": "_stakingToken",
          "type": "address"
        },
        {
          "internalType": "address",
          "name": "_rewardToken",
          "type": "address"
        },
        {
          "internalType": "address",
          "name": "_houseNFT",
          "type": "address"
        },
        {
          "internalType": "address",
          "name": "_rentalNFT",
          "type": "address"
        }
      ],
      "stateMutability": "payable",
      "type": "constructor"
    },
    {
      "anonymous": false,
      "inputs": [
        {
          "indexed": true,
          "internalType": "address",
          "name": "from",
          "type": "address"
        },
        {
          "indexed": false,
          "internalType": "uint256",
          "name": "timestamp",
          "type": "uint256"
        },
        {
          "indexed": false,
          "internalType": "string",
          "name": "message",
          "type": "string"
        }
      ],
      "name": "NewWave",
      "type": "event"
    },
    {
      "inputs": [
        {
          "internalType": "uint256",
          "name": "_amount",
          "type": "uint256"
        }
      ],
      "name": "addRewardAmount",
      "outputs": [],
      "stateMutability": "nonpayable",
      "type": "function"
    },
    {
      "inputs": [
        {
          "internalType": "uint256",
          "name": "_amount",
          "type": "uint256"
        },
        {
          "internalType": "address",
          "name": "whoPaid",
          "type": "address"
        },
        {
          "internalType": "uint256",
          "name": "id",
          "type": "uint256"
        },
        {
          "internalType": "string",
          "name": "tokenURI",
          "type": "string"
        }
      ],
      "name": "agree",
      "outputs": [],
      "stateMutability": "nonpayable",
      "type": "function"
    },
    {
      "inputs": [
        {
          "internalType": "string",
          "name": "tokenURI",
          "type": "string"
        },
        {
          "internalType": "uint256",
          "name": "newItemId",
          "type": "uint256"
        }
      ],
      "name": "awardItem",
      "outputs": [
        {
          "internalType": "uint256",
          "name": "",
          "type": "uint256"
        }
      ],
      "stateMutability": "nonpayable",
      "type": "function"
    },
    {
      "inputs": [
        {
          "internalType": "address",
          "name": "",
          "type": "address"
        }
      ],
      "name": "balanceOf",
      "outputs": [
        {
          "internalType": "uint256",
          "name": "",
          "type": "uint256"
        }
      ],
      "stateMutability": "view",
      "type": "function"
    },
    {
      "inputs": [],
      "name": "duration",
      "outputs": [
        {
          "internalType": "uint256",
          "name": "",
          "type": "uint256"
        }
      ],
      "stateMutability": "view",
      "type": "function"
    },
    {
      "inputs": [
        {
          "internalType": "address",
          "name": "_account",
          "type": "address"
        }
      ],
      "name": "earned",
      "outputs": [
        {
          "internalType": "uint256",
          "name": "",
          "type": "uint256"
        }
      ],
      "stateMutability": "view",
      "type": "function"
    },
    {
      "inputs": [],
      "name": "finishAt",
      "outputs": [
        {
          "internalType": "uint256",
          "name": "",
          "type": "uint256"
        }
      ],
      "stateMutability": "view",
      "type": "function"
    },
    {
      "inputs": [],
      "name": "getAccountDetails",
      "outputs": [
        {
          "internalType": "uint256",
          "name": "",
          "type": "uint256"
        },
        {
          "internalType": "uint256",
          "name": "",
          "type": "uint256"
        },
        {
          "internalType": "uint256",
          "name": "",
          "type": "uint256"
        },
        {
          "internalType": "uint256",
          "name": "",
          "type": "uint256"
        },
        {
          "internalType": "uint256",
          "name": "",
          "type": "uint256"
        },
        {
          "internalType": "uint256",
          "name": "",
          "type": "uint256"
        }
      ],
      "stateMutability": "view",
      "type": "function"
    },
    {
      "inputs": [],
      "name": "getAllWaves",
      "outputs": [
        {
          "components": [
            {
              "internalType": "address",
              "name": "waver",
              "type": "address"
            },
            {
              "internalType": "string",
              "name": "message",
              "type": "string"
            },
            {
              "internalType": "uint256",
              "name": "timestamp",
              "type": "uint256"
            }
          ],
          "internalType": "struct WavePortal.Wave[]",
          "name": "",
          "type": "tuple[]"
        }
      ],
      "stateMutability": "view",
      "type": "function"
    },
    {
      "inputs": [
        {
          "internalType": "uint256",
          "name": "id",
          "type": "uint256"
        }
      ],
      "name": "getAllWhoPaid",
      "outputs": [
        {
          "components": [
            {
              "internalType": "address",
              "name": "tenant",
              "type": "address"
            },
            {
              "internalType": "uint256",
              "name": "amount",
              "type": "uint256"
            },
            {
              "internalType": "uint256",
              "name": "timestamp",
              "type": "uint256"
            }
          ],
          "internalType": "struct WavePortal.WhoPaid[]",
          "name": "",
          "type": "tuple[]"
        }
      ],
      "stateMutability": "view",
      "type": "function"
    },
    {
      "inputs": [],
      "name": "getReward",
      "outputs": [],
      "stateMutability": "nonpayable",
      "type": "function"
    },
    {
      "inputs": [],
      "name": "getTotalWaves",
      "outputs": [
        {
          "internalType": "uint256",
          "name": "",
          "type": "uint256"
        }
      ],
      "stateMutability": "view",
      "type": "function"
    },
    {
      "inputs": [],
      "name": "houseNFT",
      "outputs": [
        {
          "internalType": "contract House",
          "name": "",
          "type": "address"
        }
      ],
      "stateMutability": "view",
      "type": "function"
    },
    {
      "inputs": [],
      "name": "lastTimeRewardApplicable",
      "outputs": [
        {
          "internalType": "uint256",
          "name": "",
          "type": "uint256"
        }
      ],
      "stateMutability": "view",
      "type": "function"
    },
    {
      "inputs": [
        {
          "internalType": "address",
          "name": "",
          "type": "address"
        }
      ],
      "name": "lastWavedAt",
      "outputs": [
        {
          "internalType": "uint256",
          "name": "",
          "type": "uint256"
        }
      ],
      "stateMutability": "view",
      "type": "function"
    },
    {
      "inputs": [
        {
          "internalType": "uint256",
          "name": "_amount",
          "type": "uint256"
        }
      ],
      "name": "notifyRewardAmount",
      "outputs": [],
      "stateMutability": "nonpayable",
      "type": "function"
    },
    {
      "inputs": [],
      "name": "owner",
      "outputs": [
        {
          "internalType": "address",
          "name": "",
          "type": "address"
        }
      ],
      "stateMutability": "view",
      "type": "function"
    },
    {
      "inputs": [
        {
          "internalType": "uint256",
          "name": "_amount",
          "type": "uint256"
        },
        {
          "internalType": "uint256",
          "name": "id",
          "type": "uint256"
        }
      ],
      "name": "paid",
      "outputs": [],
      "stateMutability": "nonpayable",
      "type": "function"
    },
    {
      "inputs": [],
      "name": "rentalNFT",
      "outputs": [
        {
          "internalType": "contract Rental",
          "name": "",
          "type": "address"
        }
      ],
      "stateMutability": "view",
      "type": "function"
    },
    {
      "inputs": [],
      "name": "rewardPerToken",
      "outputs": [
        {
          "internalType": "uint256",
          "name": "",
          "type": "uint256"
        }
      ],
      "stateMutability": "view",
      "type": "function"
    },
    {
      "inputs": [],
      "name": "rewardPerTokenStored",
      "outputs": [
        {
          "internalType": "uint256",
          "name": "",
          "type": "uint256"
        }
      ],
      "stateMutability": "view",
      "type": "function"
    },
    {
      "inputs": [],
      "name": "rewardRate",
      "outputs": [
        {
          "internalType": "uint256",
          "name": "",
          "type": "uint256"
        }
      ],
      "stateMutability": "view",
      "type": "function"
    },
    {
      "inputs": [
        {
          "internalType": "address",
          "name": "",
          "type": "address"
        }
      ],
      "name": "rewards",
      "outputs": [
        {
          "internalType": "uint256",
          "name": "",
          "type": "uint256"
        }
      ],
      "stateMutability": "view",
      "type": "function"
    },
    {
      "inputs": [],
      "name": "rewardsToken",
      "outputs": [
        {
          "internalType": "contract IERC20",
          "name": "",
          "type": "address"
        }
      ],
      "stateMutability": "view",
      "type": "function"
    },
    {
      "inputs": [
        {
          "internalType": "uint256",
          "name": "_duration",
          "type": "uint256"
        }
      ],
      "name": "setRewardsDuration",
      "outputs": [],
      "stateMutability": "nonpayable",
      "type": "function"
    },
    {
      "inputs": [
        {
          "internalType": "uint256",
          "name": "_amount",
          "type": "uint256"
        }
      ],
      "name": "stake",
      "outputs": [],
      "stateMutability": "nonpayable",
      "type": "function"
    },
    {
      "inputs": [],
      "name": "stakingToken",
      "outputs": [
        {
          "internalType": "contract IERC20",
          "name": "",
          "type": "address"
        }
      ],
      "stateMutability": "view",
      "type": "function"
    },
    {
      "inputs": [
        {
          "internalType": "address",
          "name": "account",
          "type": "address"
        }
      ],
      "name": "toString",
      "outputs": [
        {
          "internalType": "string",
          "name": "",
          "type": "string"
        }
      ],
      "stateMutability": "pure",
      "type": "function"
    },
    {
      "inputs": [
        {
          "internalType": "uint256",
          "name": "value",
          "type": "uint256"
        }
      ],
      "name": "toString",
      "outputs": [
        {
          "internalType": "string",
          "name": "",
          "type": "string"
        }
      ],
      "stateMutability": "pure",
      "type": "function"
    },
    {
      "inputs": [
        {
          "internalType": "bytes",
          "name": "data",
          "type": "bytes"
        }
      ],
      "name": "toString",
      "outputs": [
        {
          "internalType": "string",
          "name": "",
          "type": "string"
        }
      ],
      "stateMutability": "pure",
      "type": "function"
    },
    {
      "inputs": [
        {
          "internalType": "bytes32",
          "name": "value",
          "type": "bytes32"
        }
      ],
      "name": "toString",
      "outputs": [
        {
          "internalType": "string",
          "name": "",
          "type": "string"
        }
      ],
      "stateMutability": "pure",
      "type": "function"
    },
    {
      "inputs": [],
      "name": "totalSupply",
      "outputs": [
        {
          "internalType": "uint256",
          "name": "",
          "type": "uint256"
        }
      ],
      "stateMutability": "view",
      "type": "function"
    },
    {
      "inputs": [],
      "name": "updatedAt",
      "outputs": [
        {
          "internalType": "uint256",
          "name": "",
          "type": "uint256"
        }
      ],
      "stateMutability": "view",
      "type": "function"
    },
    {
      "inputs": [
        {
          "internalType": "address",
          "name": "",
          "type": "address"
        }
      ],
      "name": "userRewardPerTokenPaid",
      "outputs": [
        {
          "internalType": "uint256",
          "name": "",
          "type": "uint256"
        }
      ],
      "stateMutability": "view",
      "type": "function"
    },
    {
      "inputs": [
        {
          "internalType": "string",
          "name": "_message",
          "type": "string"
        },
        {
          "internalType": "string",
          "name": "_to",
          "type": "string"
        }
      ],
      "name": "wave",
      "outputs": [],
      "stateMutability": "nonpayable",
      "type": "function"
    },
    {
      "inputs": [
        {
          "internalType": "uint256",
          "name": "_amount",
          "type": "uint256"
        }
      ],
      "name": "withdraw",
      "outputs": [],
      "stateMutability": "nonpayable",
      "type": "function"
    }
  ],
  "bytecode": "0x61010060405260405162004e0238038062004e0283398181016040528101906200002a919062000285565b6200005960405180606001604052806035815260200162004dcd60359139620001a260201b62002cd21760201c565b6064444262000069919062000372565b62000075919062000443565b60018190555033600360006101000a81548173ffffffffffffffffffffffffffffffffffffffff021916908373ffffffffffffffffffffffffffffffffffffffff1602179055508373ffffffffffffffffffffffffffffffffffffffff1660808173ffffffffffffffffffffffffffffffffffffffff1660601b815250508273ffffffffffffffffffffffffffffffffffffffff1660a08173ffffffffffffffffffffffffffffffffffffffff1660601b815250508173ffffffffffffffffffffffffffffffffffffffff1660c08173ffffffffffffffffffffffffffffffffffffffff1660601b815250508073ffffffffffffffffffffffffffffffffffffffff1660e08173ffffffffffffffffffffffffffffffffffffffff1660601b815250505050505062000504565b6200024281604051602401620001b9919062000332565b6040516020818303038152906040527f41304fac000000000000000000000000000000000000000000000000000000007bffffffffffffffffffffffffffffffffffffffffffffffffffffffff19166020820180517bffffffffffffffffffffffffffffffffffffffffffffffffffffffff83818316178352505050506200024560201b60201c565b50565b60008151905060006a636f6e736f6c652e6c6f679050602083016000808483855afa5050505050565b6000815190506200027f81620004ea565b92915050565b600080600080608085870312156200029c57600080fd5b6000620002ac878288016200026e565b9450506020620002bf878288016200026e565b9350506040620002d2878288016200026e565b9250506060620002e5878288016200026e565b91505092959194509250565b6000620002fe8262000356565b6200030a818562000361565b93506200031c8185602086016200040d565b6200032781620004d9565b840191505092915050565b600060208201905081810360008301526200034e8184620002f1565b905092915050565b600081519050919050565b600082825260208201905092915050565b60006200037f8262000403565b91506200038c8362000403565b9250827fffffffffffffffffffffffffffffffffffffffffffffffffffffffffffffffff03821115620003c457620003c36200047b565b5b828201905092915050565b6000620003dc82620003e3565b9050919050565b600073ffffffffffffffffffffffffffffffffffffffff82169050919050565b6000819050919050565b60005b838110156200042d57808201518184015260208101905062000410565b838111156200043d576000848401525b50505050565b6000620004508262000403565b91506200045d8362000403565b92508262000470576200046f620004aa565b5b828206905092915050565b7f4e487b7100000000000000000000000000000000000000000000000000000000600052601160045260246000fd5b7f4e487b7100000000000000000000000000000000000000000000000000000000600052601260045260246000fd5b6000601f19601f8301169050919050565b620004f581620003cf565b81146200050157600080fd5b50565b60805160601c60a05160601c60c05160601c60e05160601c614821620005ac60003960008181610cad0152818161150b0152612aa401526000818161082301528181610a1701528181610ae701528181611a3801526129fb0152600081816111c9015281816114580152818161238e015281816129090152612caa015260008181610efb01528181611efb0152818161207d01528181612580015261286001526148216000f3fe608060405234801561001057600080fd5b506004361061021b5760003560e01c806372f702f311610125578063a42a4663116100ad578063c39869c11161007c578063c39869c114610666578063cc1a378f14610689578063cd3daf9d146106a5578063d1af0c7d146106c3578063df136d65146106e15761021b565b8063a42a4663146105cc578063a694fc3a146105fc578063b11a19e814610618578063bd43a908146106485761021b565b80638b876347116100f45780638b876347146105285780638d42394d146105585780638da5cb5b146105745780639a2cdc08146105925780639b7ccf4c146105b05761021b565b806372f702f3146104b05780637519ab50146104ce5780637b0a47ee146104ec57806380faa57d1461050a5761021b565b806349c2beae116101a8578063673578f411610177578063673578f4146103e457806367d3b488146104025780636900a3ae1461042057806370a082311461045057806371aad10d146104805761021b565b806349c2beae1461034a578063518729591461036857806356ca623e146103845780636604de03146103b45761021b565b806318160ddd116101ef57806318160ddd146102ce57806319a69e1c146102ec5780632e1a7d4d146103085780633c6b16ab146103245780633d18b912146103405761021b565b80628cc262146102205780630700037d146102505780630fb5a6b4146102805780631644104f1461029e575b600080fd5b61023a6004803603810190610235919061343e565b6106ff565b6040516102479190613f48565b60405180910390f35b61026a6004803603810190610265919061343e565b610801565b6040516102779190613f48565b60405180910390f35b610288610819565b6040516102959190613f48565b60405180910390f35b6102b860048036038101906102b3919061358f565b61081f565b6040516102c59190613f48565b60405180910390f35b6102d66108da565b6040516102e39190613f48565b60405180910390f35b61030660048036038101906103019190613635565b6108e0565b005b610322600480360381019061031d91906135e3565b610d63565b005b61033e600480360381019061033991906135e3565b610fab565b005b6103486112e0565b005b610352611509565b60405161035f9190613d43565b60405180910390f35b610382600480360381019061037d9190613523565b61152d565b005b61039e6004803603810190610399919061343e565b611923565b6040516103ab9190613d5e565b60405180910390f35b6103ce60048036038101906103c991906135e3565b611954565b6040516103db9190613ceb565b60405180910390f35b6103ec611a36565b6040516103f99190613d0d565b60405180910390f35b61040a611a5a565b6040516104179190613f48565b60405180910390f35b61043a600480360381019061043591906135e3565b611a60565b6040516104479190613d5e565b60405180910390f35b61046a6004803603810190610465919061343e565b611a91565b6040516104779190613f48565b60405180910390f35b61049a600480360381019061049591906134e2565b611aa9565b6040516104a79190613d5e565b60405180910390f35b6104b8611ef9565b6040516104c59190613d28565b60405180910390f35b6104d6611f1d565b6040516104e39190613f48565b60405180910390f35b6104f4611f23565b6040516105019190613f48565b60405180910390f35b610512611f29565b60405161051f9190613f48565b60405180910390f35b610542600480360381019061053d919061343e565b611f3c565b60405161054f9190613f48565b60405180910390f35b610572600480360381019061056d91906136b0565b611f54565b005b61057c612269565b6040516105899190613c10565b60405180910390f35b61059a61228f565b6040516105a79190613f48565b60405180910390f35b6105ca60048036038101906105c591906135e3565b6122bd565b005b6105e660048036038101906105e1919061343e565b61243f565b6040516105f39190613f48565b60405180910390f35b610616600480360381019061061191906135e3565b612457565b005b610632600480360381019061062d91906134b9565b6126a1565b60405161063f9190613d5e565b60405180910390f35b6106506126d2565b60405161065d9190613cc9565b60405180910390f35b61066e612855565b60405161068096959493929190613f93565b60405180910390f35b6106a3600480360381019061069e91906135e3565b612b5f565b005b6106ad612c3d565b6040516106ba9190613f48565b60405180910390f35b6106cb612ca8565b6040516106d89190613d28565b60405180910390f35b6106e9612ccc565b6040516106f69190613f48565b60405180910390f35b6000600a60008373ffffffffffffffffffffffffffffffffffffffff1673ffffffffffffffffffffffffffffffffffffffff16815260200190815260200160002054670de0b6b3a7640000600960008573ffffffffffffffffffffffffffffffffffffffff1673ffffffffffffffffffffffffffffffffffffffff16815260200190815260200160002054610792612c3d565b61079c9190614253565b600c60008673ffffffffffffffffffffffffffffffffffffffff1673ffffffffffffffffffffffffffffffffffffffff168152602001908152602001600020546107e691906141f9565b6107f091906141c8565b6107fa919061413b565b9050919050565b600a6020528060005260406000206000915090505481565b60045481565b60007f000000000000000000000000000000000000000000000000000000000000000073ffffffffffffffffffffffffffffffffffffffff1663cd3dd21a3385856040518463ffffffff1660e01b815260040161087e93929190613c62565b602060405180830381600087803b15801561089857600080fd5b505af11580156108ac573d6000803e3d6000fd5b505050506040513d601f19601f820116820180604052508101906108d0919061360c565b5081905092915050565b600b5481565b336108e9612c3d565b6008819055506108f7611f29565b600681905550600073ffffffffffffffffffffffffffffffffffffffff168173ffffffffffffffffffffffffffffffffffffffff16146109c45761093a816106ff565b600a60008373ffffffffffffffffffffffffffffffffffffffff1673ffffffffffffffffffffffffffffffffffffffff16815260200190815260200160002081905550600854600960008373ffffffffffffffffffffffffffffffffffffffff1673ffffffffffffffffffffffffffffffffffffffff168152602001908152602001600020819055505b60008511610a07576040517f08c379a00000000000000000000000000000000000000000000000000000000081526004016109fe90613f08565b60405180910390fd5b6000610a1233611923565b610ac37f000000000000000000000000000000000000000000000000000000000000000073ffffffffffffffffffffffffffffffffffffffff16636352211e876040518263ffffffff1660e01b8152600401610a6e9190613f48565b60206040518083038186803b158015610a8657600080fd5b505afa158015610a9a573d6000803e3d6000fd5b505050506040513d601f19601f82011682018060405250810190610abe9190613467565b611923565b604051602001610ad4929190613b96565b60405160208183030381529060405290507f000000000000000000000000000000000000000000000000000000000000000073ffffffffffffffffffffffffffffffffffffffff16636352211e856040518263ffffffff1660e01b8152600401610b3e9190613f48565b60206040518083038186803b158015610b5657600080fd5b505afa158015610b6a573d6000803e3d6000fd5b505050506040513d601f19601f82011682018060405250810190610b8e9190613467565b73ffffffffffffffffffffffffffffffffffffffff163373ffffffffffffffffffffffffffffffffffffffff16148190610bfe576040517f08c379a0000000000000000000000000000000000000000000000000000000008152600401610bf59190613d5e565b60405180910390fd5b5085600c60008773ffffffffffffffffffffffffffffffffffffffff1673ffffffffffffffffffffffffffffffffffffffff1681526020019081526020016000206000828254610c4e9190614253565b9250508190555085600c60003373ffffffffffffffffffffffffffffffffffffffff1673ffffffffffffffffffffffffffffffffffffffff1681526020019081526020016000206000828254610ca4919061413b565b925050819055507f000000000000000000000000000000000000000000000000000000000000000073ffffffffffffffffffffffffffffffffffffffff1663cd3dd21a8685876040518463ffffffff1660e01b8152600401610d0893929190613c62565b602060405180830381600087803b158015610d2257600080fd5b505af1158015610d36573d6000803e3d6000fd5b505050506040513d601f19601f82011682018060405250810190610d5a919061360c565b50505050505050565b33610d6c612c3d565b600881905550610d7a611f29565b600681905550600073ffffffffffffffffffffffffffffffffffffffff168173ffffffffffffffffffffffffffffffffffffffff1614610e4757610dbd816106ff565b600a60008373ffffffffffffffffffffffffffffffffffffffff1673ffffffffffffffffffffffffffffffffffffffff16815260200190815260200160002081905550600854600960008373ffffffffffffffffffffffffffffffffffffffff1673ffffffffffffffffffffffffffffffffffffffff168152602001908152602001600020819055505b60008211610e8a576040517f08c379a0000000000000000000000000000000000000000000000000000000008152600401610e8190613f08565b60405180910390fd5b81600c60003373ffffffffffffffffffffffffffffffffffffffff1673ffffffffffffffffffffffffffffffffffffffff1681526020019081526020016000206000828254610ed99190614253565b9250508190555081600b6000828254610ef29190614253565b925050819055507f000000000000000000000000000000000000000000000000000000000000000073ffffffffffffffffffffffffffffffffffffffff1663a9059cbb33846040518363ffffffff1660e01b8152600401610f54929190613ca0565b602060405180830381600087803b158015610f6e57600080fd5b505af1158015610f82573d6000803e3d6000fd5b505050506040513d601f19601f82011682018060405250810190610fa69190613490565b505050565b600360009054906101000a900473ffffffffffffffffffffffffffffffffffffffff1673ffffffffffffffffffffffffffffffffffffffff163373ffffffffffffffffffffffffffffffffffffffff161461103b576040517f08c379a000000000000000000000000000000000000000000000000000000000815260040161103290613ec8565b60405180910390fd5b6000611045612c3d565b600881905550611053611f29565b600681905550600073ffffffffffffffffffffffffffffffffffffffff168173ffffffffffffffffffffffffffffffffffffffff161461112057611096816106ff565b600a60008373ffffffffffffffffffffffffffffffffffffffff1673ffffffffffffffffffffffffffffffffffffffff16815260200190815260200160002081905550600854600960008373ffffffffffffffffffffffffffffffffffffffff1673ffffffffffffffffffffffffffffffffffffffff168152602001908152602001600020819055505b6005544210611142576004548261113791906141c8565b600781905550611182565b6000600754426005546111559190614253565b61115f91906141f9565b90506004548184611170919061413b565b61117a91906141c8565b600781905550505b6000600754116111c7576040517f08c379a00000000000000000000000000000000000000000000000000000000081526004016111be90613f28565b60405180910390fd5b7f000000000000000000000000000000000000000000000000000000000000000073ffffffffffffffffffffffffffffffffffffffff166370a08231306040518263ffffffff1660e01b81526004016112209190613c10565b60206040518083038186803b15801561123857600080fd5b505afa15801561124c573d6000803e3d6000fd5b505050506040513d601f19601f82011682018060405250810190611270919061360c565b60045460075461128091906141f9565b11156112c1576040517f08c379a00000000000000000000000000000000000000000000000000000000081526004016112b890613ee8565b60405180910390fd5b600454426112cf919061413b565b600581905550426006819055505050565b336112e9612c3d565b6008819055506112f7611f29565b600681905550600073ffffffffffffffffffffffffffffffffffffffff168173ffffffffffffffffffffffffffffffffffffffff16146113c45761133a816106ff565b600a60008373ffffffffffffffffffffffffffffffffffffffff1673ffffffffffffffffffffffffffffffffffffffff16815260200190815260200160002081905550600854600960008373ffffffffffffffffffffffffffffffffffffffff1673ffffffffffffffffffffffffffffffffffffffff168152602001908152602001600020819055505b6000600a60003373ffffffffffffffffffffffffffffffffffffffff1673ffffffffffffffffffffffffffffffffffffffff1681526020019081526020016000205490506000811115611505576000600a60003373ffffffffffffffffffffffffffffffffffffffff1673ffffffffffffffffffffffffffffffffffffffff168152602001908152602001600020819055507f000000000000000000000000000000000000000000000000000000000000000073ffffffffffffffffffffffffffffffffffffffff1663a9059cbb33836040518363ffffffff1660e01b81526004016114b1929190613ca0565b602060405180830381600087803b1580156114cb57600080fd5b505af11580156114df573d6000803e3d6000fd5b505050506040513d601f19601f820116820180604052508101906115039190613490565b505b5050565b7f000000000000000000000000000000000000000000000000000000000000000081565b4261012c600d60003373ffffffffffffffffffffffffffffffffffffffff1673ffffffffffffffffffffffffffffffffffffffff1681526020019081526020016000205461157b919061413b565b106115bb576040517f08c379a00000000000000000000000000000000000000000000000000000000081526004016115b290613e88565b60405180910390fd5b42600d60003373ffffffffffffffffffffffffffffffffffffffff1673ffffffffffffffffffffffffffffffffffffffff168152602001908152602001600020819055506001600080828254611611919061413b565b9250508190555061163c6040518060600160405280602c8152602001614777602c9139338484612d6b565b600e61164782612e0d565b6040516116549190613bc9565b908152602001604051809103902060405180606001604052803373ffffffffffffffffffffffffffffffffffffffff16815260200184815260200142815250908060018154018082558091505060019003906000526020600020906003020160009091909190915060008201518160000160006101000a81548173ffffffffffffffffffffffffffffffffffffffff021916908373ffffffffffffffffffffffffffffffffffffffff160217905550602082015181600101908051906020019061171f92919061324d565b506040820151816002015550503373ffffffffffffffffffffffffffffffffffffffff167f5f7e16dc676677766a70e9c5628aa6c54ddb8b6e5188e2ae1e1f17f1ffbea7164284604051611774929190613f63565b60405180910390a26064600154424461178d919061413b565b611797919061413b565b6117a19190614478565b60018190555060006509184e72a00090506117f16040518060400160405280601881526020017f5b736d61727420636f6e74726163745d62616c616e63653a0000000000000000815250476130cf565b60326001541161182e5760028161180891906141f9565b905061182d6040518060600160405280602881526020016147a360289139338361316b565b5b47811115611871576040517f08c379a000000000000000000000000000000000000000000000000000000000815260040161186890613e68565b60405180910390fd5b60003373ffffffffffffffffffffffffffffffffffffffff168260405161189790613be0565b60006040518083038185875af1925050503d80600081146118d4576040519150601f19603f3d011682016040523d82523d6000602084013e6118d9565b606091505b505090508061191d576040517f08c379a000000000000000000000000000000000000000000000000000000000815260040161191490613ea8565b60405180910390fd5b50505050565b606061194d826040516020016119399190613b60565b604051602081830303815290604052611aa9565b9050919050565b6060600060026000848152602001908152602001600020805480602002602001604051908101604052809291908181526020016000905b82821015611a2757838290600052602060002090600302016040518060600160405290816000820160009054906101000a900473ffffffffffffffffffffffffffffffffffffffff1673ffffffffffffffffffffffffffffffffffffffff1673ffffffffffffffffffffffffffffffffffffffff168152602001600182015481526020016002820154815250508152602001906001019061198b565b50505050905080915050919050565b7f000000000000000000000000000000000000000000000000000000000000000081565b60055481565b6060611a8a82604051602001611a769190613bf5565b604051602081830303815290604052611aa9565b9050919050565b600c6020528060005260406000206000915090505481565b606060006040518060400160405280601681526020017f30313233343536373839616263646566414243444546000000000000000000008152509050600060028451611af591906141f9565b6002611b01919061413b565b67ffffffffffffffff811115611b40577f4e487b7100000000000000000000000000000000000000000000000000000000600052604160045260246000fd5b6040519080825280601f01601f191660200182016040528015611b725781602001600182028036833780820191505090505b5090507f300000000000000000000000000000000000000000000000000000000000000081600081518110611bd0577f4e487b7100000000000000000000000000000000000000000000000000000000600052603260045260246000fd5b60200101907effffffffffffffffffffffffffffffffffffffffffffffffffffffffffffff1916908160001a9053507f780000000000000000000000000000000000000000000000000000000000000081600181518110611c5a577f4e487b7100000000000000000000000000000000000000000000000000000000600052603260045260246000fd5b60200101907effffffffffffffffffffffffffffffffffffffffffffffffffffffffffffff1916908160001a90535060005b8451811015611eee57826004868381518110611cd1577f4e487b7100000000000000000000000000000000000000000000000000000000600052603260045260246000fd5b602001015160f81c60f81b7effffffffffffffffffffffffffffffffffffffffffffffffffffffffffffff1916901c60f81c60ff1681518110611d3d577f4e487b7100000000000000000000000000000000000000000000000000000000600052603260045260246000fd5b602001015160f81c60f81b82600283611d5691906141f9565b6002611d62919061413b565b81518110611d99577f4e487b7100000000000000000000000000000000000000000000000000000000600052603260045260246000fd5b60200101907effffffffffffffffffffffffffffffffffffffffffffffffffffffffffffff1916908160001a90535082600f60f81b868381518110611e07577f4e487b7100000000000000000000000000000000000000000000000000000000600052603260045260246000fd5b602001015160f81c60f81b1660f81c60ff1681518110611e50577f4e487b7100000000000000000000000000000000000000000000000000000000600052603260045260246000fd5b602001015160f81c60f81b82600283611e6991906141f9565b6003611e75919061413b565b81518110611eac577f4e487b7100000000000000000000000000000000000000000000000000000000600052603260045260246000fd5b60200101907effffffffffffffffffffffffffffffffffffffffffffffffffffffffffffff1916908160001a9053508080611ee6906143f7565b915050611c8c565b508092505050919050565b7f000000000000000000000000000000000000000000000000000000000000000081565b60065481565b60075481565b6000611f376005544261320a565b905090565b60096020528060005260406000206000915090505481565b33611f5d612c3d565b600881905550611f6b611f29565b600681905550600073ffffffffffffffffffffffffffffffffffffffff168173ffffffffffffffffffffffffffffffffffffffff161461203857611fae816106ff565b600a60008373ffffffffffffffffffffffffffffffffffffffff1673ffffffffffffffffffffffffffffffffffffffff16815260200190815260200160002081905550600854600960008373ffffffffffffffffffffffffffffffffffffffff1673ffffffffffffffffffffffffffffffffffffffff168152602001908152602001600020819055505b6000831161207b576040517f08c379a000000000000000000000000000000000000000000000000000000000815260040161207290613f08565b60405180910390fd5b7f000000000000000000000000000000000000000000000000000000000000000073ffffffffffffffffffffffffffffffffffffffff166323b872dd3330866040518463ffffffff1660e01b81526004016120d893929190613c2b565b602060405180830381600087803b1580156120f257600080fd5b505af1158015612106573d6000803e3d6000fd5b505050506040513d601f19601f8201168201806040525081019061212a9190613490565b5082600c60003373ffffffffffffffffffffffffffffffffffffffff1673ffffffffffffffffffffffffffffffffffffffff168152602001908152602001600020600082825461217a919061413b565b9250508190555082600b6000828254612193919061413b565b925050819055506002600083815260200190815260200160002060405180606001604052803373ffffffffffffffffffffffffffffffffffffffff16815260200185815260200142815250908060018154018082558091505060019003906000526020600020906003020160009091909190915060008201518160000160006101000a81548173ffffffffffffffffffffffffffffffffffffffff021916908373ffffffffffffffffffffffffffffffffffffffff16021790555060208201518160010155604082015181600201555050505050565b600360009054906101000a900473ffffffffffffffffffffffffffffffffffffffff1681565b60006122b56040518060600160405280602181526020016147cb602191396000546130cf565b600054905090565b600360009054906101000a900473ffffffffffffffffffffffffffffffffffffffff1673ffffffffffffffffffffffffffffffffffffffff163373ffffffffffffffffffffffffffffffffffffffff161461234d576040517f08c379a000000000000000000000000000000000000000000000000000000000815260040161234490613ec8565b60405180910390fd5b61238c6040518060400160405280600c81526020017f616464204847546f6b656e3a0000000000000000000000000000000000000000815250826130cf565b7f000000000000000000000000000000000000000000000000000000000000000073ffffffffffffffffffffffffffffffffffffffff166323b872dd3330846040518463ffffffff1660e01b81526004016123e993929190613c2b565b602060405180830381600087803b15801561240357600080fd5b505af1158015612417573d6000803e3d6000fd5b505050506040513d601f19601f8201168201806040525081019061243b9190613490565b5050565b600d6020528060005260406000206000915090505481565b33612460612c3d565b60088190555061246e611f29565b600681905550600073ffffffffffffffffffffffffffffffffffffffff168173ffffffffffffffffffffffffffffffffffffffff161461253b576124b1816106ff565b600a60008373ffffffffffffffffffffffffffffffffffffffff1673ffffffffffffffffffffffffffffffffffffffff16815260200190815260200160002081905550600854600960008373ffffffffffffffffffffffffffffffffffffffff1673ffffffffffffffffffffffffffffffffffffffff168152602001908152602001600020819055505b6000821161257e576040517f08c379a000000000000000000000000000000000000000000000000000000000815260040161257590613f08565b60405180910390fd5b7f000000000000000000000000000000000000000000000000000000000000000073ffffffffffffffffffffffffffffffffffffffff166323b872dd3330856040518463ffffffff1660e01b81526004016125db93929190613c2b565b602060405180830381600087803b1580156125f557600080fd5b505af1158015612609573d6000803e3d6000fd5b505050506040513d601f19601f8201168201806040525081019061262d9190613490565b5081600c60003373ffffffffffffffffffffffffffffffffffffffff1673ffffffffffffffffffffffffffffffffffffffff168152602001908152602001600020600082825461267d919061413b565b9250508190555081600b6000828254612696919061413b565b925050819055505050565b60606126cb826040516020016126b79190613b7b565b604051602081830303815290604052611aa9565b9050919050565b60606000600e6126e96126e433611923565b612e0d565b6040516126f69190613bc9565b9081526020016040518091039020805480602002602001604051908101604052809291908181526020016000905b8282101561284857838290600052602060002090600302016040518060600160405290816000820160009054906101000a900473ffffffffffffffffffffffffffffffffffffffff1673ffffffffffffffffffffffffffffffffffffffff1673ffffffffffffffffffffffffffffffffffffffff1681526020016001820180546127ad90614394565b80601f01602080910402602001604051908101604052809291908181526020018280546127d990614394565b80156128265780601f106127fb57610100808354040283529160200191612826565b820191906000526020600020905b81548152906001019060200180831161280957829003601f168201915b5050505050815260200160028201548152505081526020019060010190612724565b5050505090508091505090565b6000806000806000807f000000000000000000000000000000000000000000000000000000000000000073ffffffffffffffffffffffffffffffffffffffff166370a08231336040518263ffffffff1660e01b81526004016128b79190613c10565b60206040518083038186803b1580156128cf57600080fd5b505afa1580156128e3573d6000803e3d6000fd5b505050506040513d601f19601f82011682018060405250810190612907919061360c565b7f000000000000000000000000000000000000000000000000000000000000000073ffffffffffffffffffffffffffffffffffffffff166370a08231336040518263ffffffff1660e01b81526004016129609190613c10565b60206040518083038186803b15801561297857600080fd5b505afa15801561298c573d6000803e3d6000fd5b505050506040513d601f19601f820116820180604052508101906129b0919061360c565b600c60003373ffffffffffffffffffffffffffffffffffffffff1673ffffffffffffffffffffffffffffffffffffffff168152602001908152602001600020546129f9336106ff565b7f000000000000000000000000000000000000000000000000000000000000000073ffffffffffffffffffffffffffffffffffffffff166370a08231336040518263ffffffff1660e01b8152600401612a529190613c10565b60206040518083038186803b158015612a6a57600080fd5b505afa158015612a7e573d6000803e3d6000fd5b505050506040513d601f19601f82011682018060405250810190612aa2919061360c565b7f000000000000000000000000000000000000000000000000000000000000000073ffffffffffffffffffffffffffffffffffffffff166370a08231336040518263ffffffff1660e01b8152600401612afb9190613c10565b60206040518083038186803b158015612b1357600080fd5b505afa158015612b27573d6000803e3d6000fd5b505050506040513d601f19601f82011682018060405250810190612b4b919061360c565b955095509550955095509550909192939495565b600360009054906101000a900473ffffffffffffffffffffffffffffffffffffffff1673ffffffffffffffffffffffffffffffffffffffff163373ffffffffffffffffffffffffffffffffffffffff1614612bef576040517f08c379a0000000000000000000000000000000000000000000000000000000008152600401612be690613ec8565b60405180910390fd5b4260055410612c33576040517f08c379a0000000000000000000000000000000000000000000000000000000008152600401612c2a90613e48565b60405180910390fd5b8060048190555050565b600080600b541415612c53576008549050612ca5565b600b54670de0b6b3a7640000600654612c6a611f29565b612c749190614253565b600754612c8191906141f9565b612c8b91906141f9565b612c9591906141c8565b600854612ca2919061413b565b90505b90565b7f000000000000000000000000000000000000000000000000000000000000000081565b60085481565b612d6881604051602401612ce69190613d5e565b6040516020818303038152906040527f41304fac000000000000000000000000000000000000000000000000000000007bffffffffffffffffffffffffffffffffffffffffffffffffffffffff19166020820180517bffffffffffffffffffffffffffffffffffffffffffffffffffffffff8381831617835250505050613224565b50565b612e0784848484604051602401612d859493929190613d80565b6040516020818303038152906040527f245986f2000000000000000000000000000000000000000000000000000000007bffffffffffffffffffffffffffffffffffffffffffffffffffffffff19166020820180517bffffffffffffffffffffffffffffffffffffffffffffffffffffffff8381831617835250505050613224565b50505050565b606060008290506000815167ffffffffffffffff811115612e57577f4e487b7100000000000000000000000000000000000000000000000000000000600052604160045260246000fd5b6040519080825280601f01601f191660200182016040528015612e895781602001600182028036833780820191505090505b50905060005b82518110156130c4576041838281518110612ed3577f4e487b7100000000000000000000000000000000000000000000000000000000600052603260045260246000fd5b602001015160f81c60f81b60f81c60ff1610158015612f3c5750605a838281518110612f28577f4e487b7100000000000000000000000000000000000000000000000000000000600052603260045260246000fd5b602001015160f81c60f81b60f81c60ff1611155b15613004576020838281518110612f7c577f4e487b7100000000000000000000000000000000000000000000000000000000600052603260045260246000fd5b602001015160f81c60f81b60f81c612f949190614191565b60f81b828281518110612fd0577f4e487b7100000000000000000000000000000000000000000000000000000000600052603260045260246000fd5b60200101907effffffffffffffffffffffffffffffffffffffffffffffffffffffffffffff1916908160001a9053506130b1565b82818151811061303d577f4e487b7100000000000000000000000000000000000000000000000000000000600052603260045260246000fd5b602001015160f81c60f81b828281518110613081577f4e487b7100000000000000000000000000000000000000000000000000000000600052603260045260246000fd5b60200101907effffffffffffffffffffffffffffffffffffffffffffffffffffffffffffff1916908160001a9053505b80806130bc906143f7565b915050612e8f565b508092505050919050565b61316782826040516024016130e5929190613e18565b6040516020818303038152906040527fb60e72cc000000000000000000000000000000000000000000000000000000007bffffffffffffffffffffffffffffffffffffffffffffffffffffffff19166020820180517bffffffffffffffffffffffffffffffffffffffffffffffffffffffff8381831617835250505050613224565b5050565b61320583838360405160240161318393929190613dda565b6040516020818303038152906040527f0d26b925000000000000000000000000000000000000000000000000000000007bffffffffffffffffffffffffffffffffffffffffffffffffffffffff19166020820180517bffffffffffffffffffffffffffffffffffffffffffffffffffffffff8381831617835250505050613224565b505050565b60008183111561321a578161321c565b825b905092915050565b60008151905060006a636f6e736f6c652e6c6f679050602083016000808483855afa5050505050565b82805461325990614394565b90600052602060002090601f01602090048101928261327b57600085556132c2565b82601f1061329457805160ff19168380011785556132c2565b828001600101855582156132c2579182015b828111156132c15782518255916020019190600101906132a6565b5b5090506132cf91906132d3565b5090565b5b808211156132ec5760008160009055506001016132d4565b5090565b60006133036132fe84614019565b613ff4565b90508281526020810184848401111561331b57600080fd5b613326848285614352565b509392505050565b600061334161333c8461404a565b613ff4565b90508281526020810184848401111561335957600080fd5b613364848285614352565b509392505050565b60008135905061337b8161471a565b92915050565b6000815190506133908161471a565b92915050565b6000815190506133a581614731565b92915050565b6000813590506133ba81614748565b92915050565b600082601f8301126133d157600080fd5b81356133e18482602086016132f0565b91505092915050565b600082601f8301126133fb57600080fd5b813561340b84826020860161332e565b91505092915050565b6000813590506134238161475f565b92915050565b6000815190506134388161475f565b92915050565b60006020828403121561345057600080fd5b600061345e8482850161336c565b91505092915050565b60006020828403121561347957600080fd5b600061348784828501613381565b91505092915050565b6000602082840312156134a257600080fd5b60006134b084828501613396565b91505092915050565b6000602082840312156134cb57600080fd5b60006134d9848285016133ab565b91505092915050565b6000602082840312156134f457600080fd5b600082013567ffffffffffffffff81111561350e57600080fd5b61351a848285016133c0565b91505092915050565b6000806040838503121561353657600080fd5b600083013567ffffffffffffffff81111561355057600080fd5b61355c858286016133ea565b925050602083013567ffffffffffffffff81111561357957600080fd5b613585858286016133ea565b9150509250929050565b600080604083850312156135a257600080fd5b600083013567ffffffffffffffff8111156135bc57600080fd5b6135c8858286016133ea565b92505060206135d985828601613414565b9150509250929050565b6000602082840312156135f557600080fd5b600061360384828501613414565b91505092915050565b60006020828403121561361e57600080fd5b600061362c84828501613429565b91505092915050565b6000806000806080858703121561364b57600080fd5b600061365987828801613414565b945050602061366a8782880161336c565b935050604061367b87828801613414565b925050606085013567ffffffffffffffff81111561369857600080fd5b6136a4878288016133ea565b91505092959194509250565b600080604083850312156136c357600080fd5b60006136d185828601613414565b92505060206136e285828601613414565b9150509250929050565b60006136f88383613a99565b905092915050565b600061370c8383613ae9565b60608301905092915050565b61372181614287565b82525050565b61373081614287565b82525050565b61374761374282614287565b614440565b82525050565b60006137588261409b565b61376281856140e1565b9350836020820285016137748561407b565b8060005b858110156137b0578484038952815161379185826136ec565b945061379c836140c7565b925060208a01995050600181019050613778565b50829750879550505050505092915050565b60006137cd826140a6565b6137d781856140f2565b93506137e28361408b565b8060005b838110156138135781516137fa8882613700565b9750613805836140d4565b9250506001810190506137e6565b5085935050505092915050565b61383161382c826142a5565b614452565b82525050565b6000613842826140b1565b61384c8185614103565b935061385c818560208601614361565b80840191505092915050565b613871816142e6565b82525050565b6138808161430a565b82525050565b61388f8161432e565b82525050565b60006138a0826140bc565b6138aa818561410e565b93506138ba818560208601614361565b6138c381614565565b840191505092915050565b60006138d9826140bc565b6138e3818561411f565b93506138f3818560208601614361565b6138fc81614565565b840191505092915050565b6000613912826140bc565b61391c8185614130565b935061392c818560208601614361565b80840191505092915050565b6000613945601c8361411f565b915061395082614583565b602082019050919050565b600061396860348361411f565b9150613973826145ac565b604082019050919050565b600061398b601a8361411f565b9150613996826145fb565b602082019050919050565b60006139ae60278361411f565b91506139b982614624565b604082019050919050565b60006139d1600e8361411f565b91506139dc82614673565b602082019050919050565b60006139f4600083614103565b91506139ff8261469c565b600082019050919050565b6000613a1760178361411f565b9150613a228261469f565b602082019050919050565b7f2d00000000000000000000000000000000000000000000000000000000000000815250565b6000613a60600a8361411f565b9150613a6b826146c8565b602082019050919050565b6000613a83600f8361411f565b9150613a8e826146f1565b602082019050919050565b6000606083016000830151613ab16000860182613718565b5060208301518482036020860152613ac98282613895565b9150506040830151613ade6040860182613b2b565b508091505092915050565b606082016000820151613aff6000850182613718565b506020820151613b126020850182613b2b565b506040820151613b256040850182613b2b565b50505050565b613b34816142cf565b82525050565b613b43816142cf565b82525050565b613b5a613b55826142cf565b61446e565b82525050565b6000613b6c8284613736565b60148201915081905092915050565b6000613b878284613820565b60208201915081905092915050565b6000613ba28285613837565b9150613bad82613a2d565b600182019150613bbd8284613837565b91508190509392505050565b6000613bd58284613907565b915081905092915050565b6000613beb826139e7565b9150819050919050565b6000613c018284613b49565b60208201915081905092915050565b6000602082019050613c256000830184613727565b92915050565b6000606082019050613c406000830186613727565b613c4d6020830185613727565b613c5a6040830184613b3a565b949350505050565b6000606082019050613c776000830186613727565b8181036020830152613c8981856138ce565b9050613c986040830184613b3a565b949350505050565b6000604082019050613cb56000830185613727565b613cc26020830184613b3a565b9392505050565b60006020820190508181036000830152613ce3818461374d565b905092915050565b60006020820190508181036000830152613d0581846137c2565b905092915050565b6000602082019050613d226000830184613868565b92915050565b6000602082019050613d3d6000830184613877565b92915050565b6000602082019050613d586000830184613886565b92915050565b60006020820190508181036000830152613d7881846138ce565b905092915050565b60006080820190508181036000830152613d9a81876138ce565b9050613da96020830186613727565b8181036040830152613dbb81856138ce565b90508181036060830152613dcf81846138ce565b905095945050505050565b60006060820190508181036000830152613df481866138ce565b9050613e036020830185613727565b613e106040830184613b3a565b949350505050565b60006040820190508181036000830152613e3281856138ce565b9050613e416020830184613b3a565b9392505050565b60006020820190508181036000830152613e6181613938565b9050919050565b60006020820190508181036000830152613e818161395b565b9050919050565b60006020820190508181036000830152613ea18161397e565b9050919050565b60006020820190508181036000830152613ec1816139a1565b9050919050565b60006020820190508181036000830152613ee1816139c4565b9050919050565b60006020820190508181036000830152613f0181613a0a565b9050919050565b60006020820190508181036000830152613f2181613a53565b9050919050565b60006020820190508181036000830152613f4181613a76565b9050919050565b6000602082019050613f5d6000830184613b3a565b92915050565b6000604082019050613f786000830185613b3a565b8181036020830152613f8a81846138ce565b90509392505050565b600060c082019050613fa86000830189613b3a565b613fb56020830188613b3a565b613fc26040830187613b3a565b613fcf6060830186613b3a565b613fdc6080830185613b3a565b613fe960a0830184613b3a565b979650505050505050565b6000613ffe61400f565b905061400a82826143c6565b919050565b6000604051905090565b600067ffffffffffffffff82111561403457614033614536565b5b61403d82614565565b9050602081019050919050565b600067ffffffffffffffff82111561406557614064614536565b5b61406e82614565565b9050602081019050919050565b6000819050602082019050919050565b6000819050602082019050919050565b600081519050919050565b600081519050919050565b600081519050919050565b600081519050919050565b6000602082019050919050565b6000602082019050919050565b600082825260208201905092915050565b600082825260208201905092915050565b600081905092915050565b600082825260208201905092915050565b600082825260208201905092915050565b600081905092915050565b6000614146826142cf565b9150614151836142cf565b9250827fffffffffffffffffffffffffffffffffffffffffffffffffffffffffffffffff03821115614186576141856144a9565b5b828201905092915050565b600061419c826142d9565b91506141a7836142d9565b92508260ff038211156141bd576141bc6144a9565b5b828201905092915050565b60006141d3826142cf565b91506141de836142cf565b9250826141ee576141ed6144d8565b5b828204905092915050565b6000614204826142cf565b915061420f836142cf565b9250817fffffffffffffffffffffffffffffffffffffffffffffffffffffffffffffffff0483118215151615614248576142476144a9565b5b828202905092915050565b600061425e826142cf565b9150614269836142cf565b92508282101561427c5761427b6144a9565b5b828203905092915050565b6000614292826142af565b9050919050565b60008115159050919050565b6000819050919050565b600073ffffffffffffffffffffffffffffffffffffffff82169050919050565b6000819050919050565b600060ff82169050919050565b60006142f1826142f8565b9050919050565b6000614303826142af565b9050919050565b60006143158261431c565b9050919050565b6000614327826142af565b9050919050565b600061433982614340565b9050919050565b600061434b826142af565b9050919050565b82818337600083830152505050565b60005b8381101561437f578082015181840152602081019050614364565b8381111561438e576000848401525b50505050565b600060028204905060018216806143ac57607f821691505b602082108114156143c0576143bf614507565b5b50919050565b6143cf82614565565b810181811067ffffffffffffffff821117156143ee576143ed614536565b5b80604052505050565b6000614402826142cf565b91507fffffffffffffffffffffffffffffffffffffffffffffffffffffffffffffffff821415614435576144346144a9565b5b600182019050919050565b600061444b8261445c565b9050919050565b6000819050919050565b600061446782614576565b9050919050565b6000819050919050565b6000614483826142cf565b915061448e836142cf565b92508261449e5761449d6144d8565b5b828206905092915050565b7f4e487b7100000000000000000000000000000000000000000000000000000000600052601160045260246000fd5b7f4e487b7100000000000000000000000000000000000000000000000000000000600052601260045260246000fd5b7f4e487b7100000000000000000000000000000000000000000000000000000000600052602260045260246000fd5b7f4e487b7100000000000000000000000000000000000000000000000000000000600052604160045260246000fd5b6000601f19601f8301169050919050565b60008160601b9050919050565b7f726577617264206475726174696f6e206e6f742066696e697368656400000000600082015250565b7f547279696e6720746f207769746864726177206d6f7265206d6f6e657920746860008201527f616e2074686520636f6e7472616374206861732e000000000000000000000000602082015250565b7f5b736d61727420636f6e74726163745d5761697420356d696e73000000000000600082015250565b7f4661696c656420746f207769746864726177206d6f6e65792066726f6d20636f60008201527f6e74726163742e00000000000000000000000000000000000000000000000000602082015250565b7f6e6f7420617574686f72697a6564000000000000000000000000000000000000600082015250565b50565b7f72657761726420616d6f756e74203e2062616c616e6365000000000000000000600082015250565b7f616d6f756e74203d203000000000000000000000000000000000000000000000600082015250565b7f7265776172642072617465203d20300000000000000000000000000000000000600082015250565b61472381614287565b811461472e57600080fd5b50565b61473a81614299565b811461474557600080fd5b50565b614751816142a5565b811461475c57600080fd5b50565b614768816142cf565b811461477357600080fd5b5056fe5b736d61727420636f6e74726163745d257320776176656420772f206d65737361676520257320746f2025735b736d61727420636f6e74726163745d257320776f6e21205265776172642076616c75653a2025735b736d61727420636f6e74726163745d5765206861766520256420776176657321a2646970667358221220a00cc2d500f8b1ffceb24078780f948a4002dfffadc7dd402a0ff4ace9b0691664736f6c634300080400335b736d61727420636f6e74726163745d596f20796f2c204920616d206120636f6e747261637420616e64204920616d20736d617274",
  "linkReferences": {},
  "deployedLinkReferences": {}
}